:020000040800F2
:1000000088120020E9010008F1010008F30100084E
:10001000F5010008F7010008F901000800000000E0
:10002000000000000000000000000000FB010008CC
:10003000FD01000800000000FF010008D1160008C3
:10004000030200080302000803020008030200087C
:10005000030200080302000803020008030200086C
:10006000030200080302000803020008030200085C
:10007000030200080302000803020008030200084C
:10008000030200080302000803020008030200083C
:10009000C91A00080302000803020008030200084E
:1000A000030200080302000803020008030200081C
:1000B000030200080302000803020008030200080C
:1000C00003020008030200080302000803020008FC
:1000D0000302000885170008E91700082D1800081A
:1000E00003020008030200080302000803020008DC
:1000F00003020008030200080302000803020008CC
:1001000003020008030200080302000803020008BB
:100110004117000803020008030200080302000858
:10012000030200080302000803020008030200089B
:1001300000F002F800F048F80AA090E8000C8244B1
:100140008344AAF10107DA4501D100F03DF8AFF28E
:10015000090EBAE80F0013F0010F18BFFB1A43F0A5
:1001600001031847703D0000903D0000103A24BF85
:1001700078C878C1FAD8520724BF30C830C144BF0C
:1001800004680C607047000000230024002500264E
:10019000103A28BF78C1FBD8520728BF30C148BFEA
:1001A0000B607047642900F08780002070471FB5FE
:1001B00000F0DAFA04000020002103F041FD401CA9
:1001C00060601FBD10B510BD00F0E0FA1146FFF7EA
:1001D000EEFF02F0EFFA00F0FEFA03B4FFF7F2FFD1
:1001E00003BC00F03FFB0000094880470948004776
:1001F000FEE7FEE7FEE7FEE7FEE7FEE7FEE7FEE7D7
:10020000FEE7FEE704480549054A064B7047000033
:10021000E116000831010008880C00208812002037
:10022000880E0020880E00200FB41CB5074B06AACC
:100230007B4469460090059800F02BFA002069463F
:1002400000F03AFA1CBC5DF814FB000085040000C5
:100250002DE9F0410E460446002020622046E16868
:10026000884730B3252805D0D4E901219047206A7A
:10027000401CF2E7E168204600278847050018D0B7
:10028000A5F14100192802D820354FF40067324605
:10029000294620462760FFF785FF40B1012804D09A
:1002A000F61D26F007060836D8E7361DD6E728469D
:1002B000DAE7206ABDE8F0812DE9F0410646002426
:1002C00010687529314616A510D0AFF300800028BC
:1002D00002DA404213A507E031688A0701D512A56A
:1002E00002E0490704D511A5012401E0AFF3008025
:1002F00000210A2206F1240709E0B0FBF2FCB0FB62
:10030000F2F302FB1C00303078541846491C0028D8
:10031000F3D123462A463046BDE8F04100F05AB9F1
:10032000000000002D0000002B0000002000000055
:100330002DE9F04791460F4680460446002614F802
:10034000015B2DB100F03AF90068405DC007F6D1BD
:100350002B2D02D02D2D18D0641E4A46394620463A
:1003600000F0AFF927B13968A14201D1C7F8008088
:100370004FF0020471050BD54042002803DD00F068
:1003800025F90460A007BDE8F08746F48066E4E73D
:100390000028F8DA00F01AF904606FF00040F2E784
:1003A00040EA010310B59B070FD1042A0DD310C8F2
:1003B00008C9121F9C42F8D020BA19BA884201D944
:1003C000012010BD4FF0FF3010BD1AB1D30703D08C
:1003D000521C07E0002010BD10F8013B11F8014B42
:1003E0001B1B07D110F8013B11F8014B1B1B01D15E
:1003F000921EF1D1184610BD10B5431C02E010F852
:10040000011B71B18107FAD14FF0013202C88C1A79
:100410008C4314EAC211F9D0C01A0A0603D0C01ED8
:1004200010BDC01A10BD0A0401D0801E10BD090203
:10043000FCD0401E10BD032A40F2308010F0030CA7
:1004400000F0158011F8013BBCF1020F624498BF27
:1004500011F801CB00F8013B38BF11F8013BA2F1C4
:10046000040298BF00F801CB38BF00F8013B11F03F
:10047000030300F02580083AC0F0088051F8043BDF
:10048000083A51F804CBA0E80810F5E7121D5CBF4C
:1004900051F8043B40F8043BAFF30080D20724BF7F
:1004A00011F8013B11F801CB48BF11F8012B24BF13
:1004B00000F8013B00F801CB48BF00F8012B704762
:1004C00010B5203AC0F00B80B1E81850203AA0E8EF
:1004D0001850B1E81850A0E81850BFF4F5AF5FEA23
:1004E000027C24BFB1E81850A0E8185044BF18C9D6
:1004F00018C0BDE810405FEA827C24BF51F8043B7D
:1005000040F8043B08BF7047D20728BF31F8023BD0
:1005100048BF11F8012B28BF20F8023B48BF00F864
:10052000012B70474FF000020429C0F0128010F038
:10053000030C00F01B80CCF1040CBCF1020F18BFBF
:1005400000F8012BA8BF20F8022BA1EB0C0100F052
:100550000DB85FEAC17C24BF00F8012B00F8012B25
:1005600048BF00F8012B70474FF0000200B513465A
:1005700094469646203922BFA0E80C50A0E80C50C3
:10058000B1F12001BFF4F7AF090728BFA0E80C5074
:1005900048BF0CC05DF804EB890028BF40F8042B6D
:1005A00008BF704748BF20F8022B11F0804F18BFDA
:1005B00000F8012B704770477047704710B500F086
:1005C000D3F8001D10BD00BF793600000048704709
:1005D000240C00202DE9F0470D469946924604462A
:1005E00000F124080168880604D5E06921F01001B3
:1005F000216000E00120A84201DD471B00E0002748
:10060000A1697A1902EB0900081AA0612078C006D6
:1006100002D42046AFF30080002608E0D4E901218F
:100620001AF806009047206A401C761C20624E454E
:10063000F4DB2078C0060AD52046AFF3008006E040
:10064000D4E9012130209047206A401C2062381EE6
:10065000A7F10107F4DC07E0D4E9012118F805004F
:100660009047206A401C2062281EA5F10105F3DC9A
:100670002046AFF300802078000602D50220BDE8B6
:10068000F0870120FBE7000001694A1C026108783D
:10069000704700B58FB0CDE90131002105910549C2
:1006A0007944CDE9031011466846FFF7D1FD0FB03C
:1006B00000BD0000E5FFFFFF0A6802F8010B0A60B9
:1006C00070472DE9F05F824615468B4600270AF1F8
:1006D0000104B9460078302801D09DB113E014F828
:1006E000010B0127782803D0582801D045B10AE032
:1006F0000DB1102D07D1002714F8010B102502E0D1
:10070000082500E00A250026B0460EE005FB08009B
:1007100005FB06F101271FFA80F801EB1046B6F53C
:10072000803F00D3B94614F8010B294600F020F8A9
:100730000028EBDABBF1000F05D00FB1641E00E01A
:100740005446CBF80040B9F1000F06D0FFF73EFF4A
:1007500002210160C81EBDE8F09F48EA0640FAE7A2
:1007600000487047240C002000487047440C0020CB
:100770003A2800D2303820F02002412A01D3A2F1D9
:100780003700884201D34FF0FF3070477546FFF7BE
:10079000E7FFAE4605006946534620F00700854650
:1007A00018B020B5FFF72EFDBDE820404FF0000641
:1007B0004FF000074FF000084FF0000B21F0070149
:1007C000AC46ACE8C009ACE8C009ACE8C009ACE88C
:1007D000C0098D4670470446AFF300802046FFF7FE
:1007E000FCFC00004FF0013C50F8042B51F8043B96
:1007F0009A4221D1A2EB0C03934313EACC1317D1F5
:1008000050F8042B51F8043B9A4215D1A2EB0C038B
:10081000934313EACC130BD150F8042B51F8043B4B
:100820009A4209D1A2EB0C03934313EACC13DBD019
:100830004FF00000704700BFD01A01BAB1FA81F141
:1008400001F0180122FA01F0CB40C1F12001DBB226
:10085000C0B2C01A2CFA01F3D11A914311EAC311A4
:10086000E6D1704701491820ABBEFEE72600020022
:100870007047000010B50021837A012202FA03F1CB
:100880003D4A126842F001023B4B1A603A4A1C3260
:1008900012688A43384B1C331A60027BCAB9364A45
:1008A0000C3212688A43344B0C331A604288C38876
:1008B00042EA0343304A4032847A42F834300288B4
:1008C000838842EA03432C4A4032847A02EBC40212
:1008D0005360027B012A19D1274A0C3212680A435D
:1008E000254B0C331A604288038842EA0343224AAC
:1008F0004032847A42F83430C288838842EA034323
:100900001D4A4032847A02EBC4025360C27A3AB97B
:10091000194A121D12688A43174B1B1D1A6006E004
:10092000154A121D12680A43134B1B1D1A600289D7
:1009300032B9114A143212688A430F4B14331A60C9
:100940000289012A06D10C4A143212680A430A4B62
:1009500014331A60427B012A06D1074A1C321268FE
:100960000A43054B1C331A60034A126822F0010245
:10097000014B1A6010BD0000006600401AB14369C7
:100980000B43436102E043698B434361704730B5D9
:10099000024600200023146824F002041460146846
:1009A00044F00104146000E05B1C546804F001048E
:1009B0001CB94FF6FF74A342F6D1546804F0010449
:1009C0000CB900206CE08C79012C04D1146844F03F
:1009D0008004146003E0146824F080041460CC796F
:1009E000012C04D1146844F04004146003E014683E
:1009F00024F0400414600C7A012C04D1146844F0F3
:100A00002004146003E0146824F0200414604C7A7D
:100A1000012C04D1146844F01004146003E014683D
:100A200024F0100414608C7A012C04D1146844F072
:100A30000804146003E0146824F008041460CC7AFD
:100A4000012C04D1146844F00404146003E0146819
:100A500024F0040414608C78A407CD7844EA05647B
:100A60000D7944EA05444D7944EA05540D886D1E1C
:100A70002C43D461146824F001041460002300E0C6
:100A80005B1C546804F001041CB14FF6FF74A342D0
:100A9000F6D1546804F001040CB1002000E00120FC
:100AA00030BD00002DE9F0418AB004460F461546DE
:100AB0001E46DDF840800D2D03D901200AB0BDE8A7
:100AC000F0810121480600F0C1FC0121092000F05D
:100AD000DDFC01214FF4EA1000F012FC4FF48070AD
:100AE000ADF8240003208DF8260048208DF827005B
:100AF00009A99E4800F079FB4FF40070ADF824007E
:100B000018208DF8270009A9984800F06EFB0122F3
:100B100012219748FFF732FF14208DF804000120BE
:100B20008DF8050000208DF8060001208DF80700E3
:100B300001A800F053FC15208DF8040001208DF869
:100B400005008DF806008DF8070001A800F046FCAE
:100B500000208DF81E0001208DF81F0000208DF868
:100B6000200001208DF8210000208DF822008DF852
:100B700023008DF81A700F2C73D2DFE804F00816EA
:100B800024313E4B586573808D9AA7B4C100012073
:100B90008DF81B0005208DF81C0003208DF81D002A
:100BA0004FF41670ADF81800B8E000208DF81B0067
:100BB00002208DF81C0001208DF81D004FF41670E6
:100BC000ADF81800AAE000208DF81B0009208DF870
:100BD0001C0006208DF81D006420ADF818009DE073
:100BE00000208DF81B0002208DF81C0001208DF8DC
:100BF0001D00F020ADF8180090E000208DF81B00DB
:100C000002208DF81C0001208DF81D009620ADF803
:100C1000180083E000208DF81B0009208DF81C00CF
:100C200006208DF81D002820ADF8180076E0002081
:100C30008DF81B0002208DF81C0001208DF81D008E
:100C40004B20ADF8180069E000208DF81B0009204A
:100C50008DF81C0006208DF81D001420ADF818003A
:100C60005CE05AE000208DF81B0002208DF81C008B
:100C700001208DF81D003020ADF818004EE0002056
:100C80008DF81B0007208DF81C0006208DF81D0034
:100C90000920ADF8180041E000208DF81B0002206B
:100CA0008DF81C0001208DF81D001820ADF81800EB
:100CB00034E000208DF81B0004208DF81C00022079
:100CC0008DF81D000A20ADF8180027E000208DF8EF
:100CD0001B0005208DF81C0004208DF81D00062047
:100CE000ADF818001AE000208DF81B0004208DF8E4
:100CF0001C0002208DF81D000520ADF818000DE045
:100D000000208DF81B0002208DF81C0001208DF8BA
:100D10001D000620ADF8180000E000BF00BF06A9C6
:100D20001348FFF734FEE8B28DF8120000208DF86A
:100D3000130001208DF81400300CADF80800F0B25B
:100D4000ADF80A004FEA1840ADF80C0008F0FF00BB
:100D5000ADF80E000020ADF8100001208DF8150050
:100D600002A8FFF787FD0020A8E60000000C014064
:100D70000064004010B500F5D87303EB01131B6845
:100D800003F004031372137A53B900F5D87303EB1D
:100D900001131B6840F2FF7404EA5353136009E027
:100DA00000F5D87303EB01131B686FF0604404EA8D
:100DB000D303536000F5D87303EB01131B6803F0F2
:100DC0000203537200F5D87303EB01135B6803F061
:100DD0000F03937200F5D87303EB01135B681B0AD2
:100DE000D37400F5D87303EB01139B68D37200F53D
:100DF000D87303EB01139B681C0A147300F5D873B6
:100E000003EB01139B681C0C547300F5D87303EBC0
:100E100001139B681B0E937300F5D87303EB01134A
:100E2000DB68D37300F5D87303EB0113DB681C0A8E
:100E3000147400F5D87303EB0113DB681C0C5474B5
:100E400000F5D87303EB0113DB681B0E937421B913
:100E5000C36843F02003C36003E0036943F0200349
:100E6000036110BD10B502460020936803F0806353
:100E7000B3F1806F00D110E0936803F00063B3F129
:100E8000006F01D1012008E0936803F08053B3F1B3
:100E9000805F01D1022000E00420042874D002F514
:100EA000C07303EB00131B6803F0010402F5C07369
:100EB00003EB00131C600B7A7BB94B7A0C8843EA76
:100EC000445302F5C07404EB00142468234302F574
:100ED000C07404EB0014236010E00B7A4C6843EA02
:100EE000C4034C7A234302F5C07404EB0014246855
:100EF000234302F5C07404EB001423608B7A03F0E3
:100F00000F038B7202F5C07303EB00135B6823F0D1
:100F10000F0402F5C07303EB00135C6002F5C073AD
:100F200003EB00135B688C7A234302F5C07404EB77
:100F3000001463608B7B1C064B7B44EA03440B7BF1
:100F400044EA0323CC7A234302F5C07404EB001473
:100F5000A3608B7C1C064B7C44EA03440B7C44EA74
:100F60000323CC7B234302F5C07404EB0014E3603D
:100F700002F5C07303EB00131B6843F0010402F594
:100F8000C07303EB00131C6010BD000010B50246D7
:100F9000002321B1012907D002290FD109E090686F
:100FA0001D4C00EA04030BE090681C4C00EA0403AB
:100FB00006E090681A4C00EA040301E0002300BF39
:100FC00000BF184C181BA34216D007DC83B16FF08A
:100FD0008060184470B1022818D111E0B0F5007F8C
:100FE00010D0114C204448B1B0F5003F0ED10BE0B9
:100FF00002230DE000230BE0002309E0002307E0BB
:10100000012305E0012303E0012301E0002300BFE9
:1010100000BFD8B210BD00000300000400030008A8
:1010200000000310000100080001FFF72DE9F04166
:1010300086B0054688461646002401950295002094
:101040008DF80C008DF80D008DF80E6000BF06E0E5
:1010500018F804100DF10F000155601C84B2B44261
:10106000F6DB01A90D48FFF7FDFE0746002401E06D
:10107000601C84B239460948FFF788FF012803D075
:1010800040F6FF708442F3DB40F6FF70844203DBDE
:10109000012006B0BDE8F0810020FAE700640040BE
:1010A0000149C860704700000020024030B5044686
:1010B00004254FF4302000F085F80546042D17D1A3
:1010C0000C48006940F002000A4908610846446182
:1010D000006940F0400008614FF4302000F072F8E1
:1010E00005460448006941F6FD7108400149086160
:1010F000284630BD0020024004200B49C96801F099
:10110000010109B101200EE00749C96801F004019D
:1011100009B1022007E00449C96801F0100109B1D2
:10112000032000E0042070470020024003480069CB
:1011300040F0800001490861704700000020024033
:1011400078B506460C46042500200090E80200F021
:1011500039F80546042D24D11348006940F00100F8
:10116000114908613480E80200F02CF80546042D8E
:1011700010D1B01C0090200C00990880E80200F00B
:1011800021F805460848006941F6FE710840064905
:10119000086106E00448006941F6FE710840024912
:1011A0000861284678BD000000200240024803493B
:1011B00048600348486070472301674500200240AB
:1011C000AB89EFCD00B502460423FFF795FF034638
:1011D00003E0FFF791FF0346521E012B01D1002AC5
:1011E000F7D102B90523184600BD2DE9F0410246AA
:1011F00000250026002000230024002791F803C0CA
:101200000CF00F0591F803C00CF0100CBCF1000FAE
:1012100003D091F802C04CEA050591F800C0BCF17A
:10122000000F31D0146800202BE04FF0010C0CFAB5
:1012300000F3B1F800C00CEA03069E4220D18300FF
:101240004FF00F0C0CFA03F7BC4305FA03FC4CEA11
:10125000040491F803C0BCF1280F06D14FF0010C33
:101260000CFA00FCC2F814C00AE091F803C0BCF10B
:10127000480F05D14FF0010C0CFA00FCC2F810C069
:10128000401C0828D1D31460B1F800C0BCF1FF0F96
:1012900034DD546800202EE000F1080C4FF0010806
:1012A00008FA0CF3B1F800C00CEA03069E4221D103
:1012B00083004FF00F0C0CFA03F7BC4305FA03FC54
:1012C0004CEA040491F803C0BCF1280F05D100F1E9
:1012D000080C08FA0CF8C2F8148091F803C0BCF1AD
:1012E000480F07D100F1080C4FF0010808FA0CF87C
:1012F000C2F81080401C0828CED35460BDE8F081AD
:10130000F0B50A46002300240021002500F0004625
:10131000B6F1004F02D11D4EF16901E01B4E71681C
:10132000C0F3034583B200F44016B6F5401F08D160
:1013300021F07061154E766826F07066134F7E605E
:1013400012E000F48016B6F5801F06D1032606FAD7
:1013500005F4A14341F0706106E0460D360103FA41
:1013600006F6B14341F0706122B1460D360103FA31
:1013700006F6314300F00046B6F1004F02D1034EAD
:10138000F16101E0014E7160F0BD0000000001401C
:1013900041617047016170474CF6CC4001490860DB
:1013A00070470000003000404AF6AA20014908605A
:1013B000704700000030004001494860704700005D
:1013C0000030004001498860704700000030004054
:1013D00001490860704700000030004070B50021EE
:1013E00000230F22C47804B3154C246804F4E0648D
:1013F000C4F5E064210AC1F10403CA40447804FA48
:1014000003F184781440214309010E4C0678A1555C
:10141000047804F01F050124AC4005786D11AD007F
:1014200005F1E025C5F8004109E0047804F01F0546
:101430000124AC40044D0678761145F8264070BD75
:101440000CED00E000E400E080E100E029B1064A94
:10145000D2690243044BDA6104E0034AD269824351
:10146000014BDA61704700000010024029B1064AC2
:1014700012690243044B1A6104E0034A1269824371
:10148000014B1A61704700000010024029B1064A62
:1014900092690243044B9A6104E0034A92698243D1
:1014A000014B9A61704700000010024029B1064AC2
:1014B000D2680243044BDA6004E0034AD2688243F4
:1014C000014BDA60704700000010024030B5002187
:1014D0000022002400232D4D6D6805F00C0121B180
:1014E000042905D0082923D105E0294D056022E013
:1014F000274D05601FE0254D6D6805F47012234DE2
:101500006D6805F48034022505EB92421CB9214D2B
:10151000554305600BE01D4D6D6805F400351DB1A8
:101520001C4D5543056002E0194D5543056002E02E
:10153000174D056000BF00BF144D6D6805F0F00148
:101540000909154D6B5C0568DD4045600F4D6D6800
:1015500005F4E061090A104D6B5C4568DD4085606B
:101560000A4D6D6805F46051C90A0B4D6B5C456806
:10157000DD40C560054D6D6805F44041890B074DA0
:101580006B5CC568B5FBF3F5056130BD001002402A
:1015900000127A0000093D00500000206000002089
:1015A00010B501460022002300204A11012A02D171
:1015B000094C236806E0022A02D1074C236A01E0A5
:1015C000054C636A01F01F02012494401C400CB1D9
:1015D000012000E0002010BD001002400149086019
:1015E000704700008004424210B500F001F810BDC1
:1015F0000CB50020019000903348006840F4803022
:101600003149086000BF3048006800F400300090A5
:101610000198401C0190009818B90198B0F5A06F8E
:10162000F1D12948006800F4003010B10120009089
:1016300001E0002000900098012843D12348006871
:1016400040F01000214908600846006820F00300BF
:1016500008600846006840F0020008601A484068C8
:10166000194948600846406848600846406840F4A8
:10167000806048600846406820F47C104860084656
:10168000406840F4E81048600846006840F0807008
:10169000086000BF0C48006800F000700028F9D016
:1016A0000948406820F00300074948600846406840
:1016B00040F00200486000BF0348406800F00C00A2
:1016C0000828F9D10CBD00000010024000200240A3
:1016D00002480068401C014908607047480000202B
:1016E00010B51348006840F0010011490860084631
:1016F0004068104908400E494860084600680E4995
:1017000008400B4908600846006820F48020086003
:101710000846406820F4FE0048604FF41F008860CF
:10172000FFF762FF4FF000600449086010BD000041
:10173000001002400000FFF8FFFFF6FE08ED00E099
:1017400010B540F225510C4800F0F9F890B10A4864
:1017500000F0B0F9C4B2094801680068401C074AAB
:1017600010600748445410460068C82802D3C720B8
:101770001146086010BD0000004C004040000020F1
:101780005C0B002010B540F22551134800F0D7F84B
:1017900000B3114800F08EF9C4B210480068C8B90F
:1017A0000D2C01D00A2C06D10D48006890B1012003
:1017B0000A4908600EE00A4801680068401C084AAF
:1017C00010600848445410460068C82802D3C72057
:1017D0001146086010BD00000038014008000020DC
:1017E000000000204803002010B540F225510C48AD
:1017F00000F0A5F890B10A4800F05CF9C4B20948BD
:1018000001680068401C074A1060074844541046AD
:101810000068C82802D3C7201146086010BD000028
:10182000004400400C0000201004002010B540F2DD
:1018300025510C4800F083F890B10A4800F03AF9BD
:10184000C4B2094801680068401C074A1060074894
:10185000445410460068C82802D3C72011460860C7
:1018600010BD00000048004014000020D8040020F3
:1018700021B1828942F40052828104E082894DF6CE
:10188000FF731A408281704710B504462048844295
:1018900009D101218803FFF709FE00214FF48040A0
:1018A000FFF704FE32E01B48844209D101214804BD
:1018B000FFF7DCFD00214FF40030FFF7D7FD25E0F6
:1018C0001548844209D101218804FFF7CFFD00218A
:1018D0004FF48020FFF7CAFD18E01048844209D178
:1018E0000121C804FFF7C2FD00214FF40020FFF7DB
:1018F000BDFD0BE00A48844208D101210805FFF72D
:10190000B5FD00214FF48010FFF7B0FD10BD0000C1
:10191000003801400044004000480040004C0040B6
:101920000050004002460020B1F5007F00D100BF0A
:1019300013880B400BB1012000E00020704770B508
:101940000246002400230025002040F66A16B1421A
:1019500000D100BFC1F3421501F01F03012606FAB2
:1019600003F3012D02D19689334006E0022D02D106
:10197000168A334001E0968A33400C12012606FA9B
:1019800004F41688344013B10CB1012000E00020AB
:1019900070BDF0B50346002400260025002040F667
:1019A0006A17B94200D100BF1846C1F3421401F0D2
:1019B0001F06012707FA06F5012C01D10C3004E0BF
:1019C000022C01D1103000E014301AB107682F4307
:1019D000076002E00768AF430760F0BD2DE9F047FC
:1019E00086B005460E460024A24600BFA146002749
:1019F000B08900B100BF2F462C8A4CF6FF7004401E
:101A0000F08804432C82AC894EF6F3100440B08871
:101A100031890843718908430443AC81AC8A4FF68D
:101A2000FF400440B0890443AC8201A8FFF74EFD9B
:101A30001F48874202D1DDF810A001E0DDF80CA0BC
:101A4000A88900F4004040B10AEBCA0000EB0A107C
:101A500031684900B0FBF1F807E00AEBCA0000EB7F
:101A60000A1031688900B0FBF1F86420B8FBF0F08F
:101A700004012009642101FB1089A88900F40040B9
:101A800040B1322000EBC900B0FBF1F000F00700DC
:101A9000044308E0322000EB09106421B0FBF1F0B0
:101AA00000F00F0004432C8106B0BDE8F087000071
:101AB0000038014001468888C0F308007047C1F330
:101AC000080282807047000010B586B0002401AA89
:101AD00000212A48FFF74EF900BF09E02848007CA2
:101AE000401C274908740DF10F00005D0855641C67
:101AF000082CF3DB22484078732810D120488078E6
:101B000074280CD11E48C0786F2808D11C48007971
:101B1000702804D11A4800781A4908602BE0184848
:101B20004078752817D1164880786E2813D114484C
:101B3000C07873280FD11248007974280BD110484F
:101B400040796F2807D10E488079702803D1002092
:101B50000C4908600FE00A48007865280BD1084856
:101B600040786E2807D106488078642803D104485D
:101B7000017C01F021FF06B010BD000000640040B0
:101B8000B80A00204C00002070B590B005460E4603
:101B900000240CE0601C1B4951F820004DF8240083
:101BA000601CB5EB800F01D14DF82460641C102C33
:101BB000F0DBFFF7FBFA3420FFF772FA012012493D
:101BC00008701048FFF772FA0F490870084600784D
:101BD000042810D10120087000240AE05DF82410C8
:101BE000621C084B03EB8200FFF7AAFA0649087053
:101BF000641C102CF2DB012003490870FFF796FAF1
:101C000010B070BD00F000081C0000207FB5064633
:101C1000CAA103C9CDE90201CAA103C9CDE90001E6
:101C2000CA48006880B3CA4890F808048DF80100DB
:101C300001208DF8020004208DF80300C3480078CD
:101C40008DF8040001208DF805008021C148FEF7C1
:101C50008BFCC048DDE9001206C000F09FFABE49C7
:101C6000086000BF00F09AFABB490968401AB0F555
:101C70007A7FF7D30020B9490860B949086001208C
:101C8000B349C1F8040457E1FFE7B648007C0028D7
:101C900006DDB2480068042802D10A20AF49086076
:101CA000AE480068C0B9B04800788DF80800002040
:101CB000AE4908740846002101604160A4490888C3
:101CC000082202A9FFF7B2F900F068FAA2490860F9
:101CD0000120A24908602FE1A0480068012858D1DE
:101CE00000F05CFA9C490968401AB042CBD99F4881
:101CF000007C08282ED19D484078022843D19B487B
:101D000000789949096888423DD1984841799848B6
:101D1000954A126820F812109448C1789548924A62
:101D2000126820F812109148017993488E4A12687F
:101D300020F812108D48C07810B98C48007910B383
:101D400000208349C1F8040485480068401C844988
:101D5000086018E0FF218648834A126820F81210B4
:101D60008448814A126820F8121083487E4A12681B
:101D700020F8121000207649C1F804047848006861
:101D8000401C7749086075480068401C734908602A
:101D9000D2E072480068022818D16D48D0F80804D3
:101DA00071490968884208D26C480068401C6B4938
:101DB000086002206C490860BEE06B480068401C67
:101DC00069490860002065490860B5E0634800681B
:101DD000032861D180215F48FEF7C6FB5C48D0F83C
:101DE0000404002845D102205A490870584890F848
:101DF000080448705A480078887008468078800641
:101E0000000EC870022502242CE0594830F8140056
:101E100038B9584830F8140018B9574830F8140049
:101E2000F8B1681E4B4A02F82040514810F81410CF
:101E3000681E012202EB8000464A11544D4810F8FA
:101E40001410681E022202EB8000424A11544A48D4
:101E500010F81410681E032202EB80003D4A115452
:101E60006D1C641C3A48D0F80804801CA042CCD8F1
:101E700008E0374890F808048DF801003548DDE99E
:101E8000001206C035480068401C3449086000F064
:101E900085F9314908604FE030480068042811D1C5
:101EA0002D48006800F000FD41F28831884243D996
:101EB00000202A4908602A49086001202449C1F805
:101EC000040439E0254800680A2810D125490A7C15
:101ED0001F4908882349FFF7A9F820480068401CDB
:101EE0001E49086000F05AF91B49086024E01B48AD
:101EF00000680B2820D11848006800F0D5FCB042DB
:101F00001AD91A48007C082816D1184800786F287A
:101F100008D1164800786B2804D1032117A001F0DE
:101F20004BFD03E0072116A001F046FD04200B49FC
:101F3000086000200B4908747FBD00000202000009
:101F40000000000002000004000000004C0000201F
:101F5000A0050020DC0A0020340000203000002012
:101F60003C000020CA0A002038000020B80A0020E7
:101F7000A4080020A4060020A40700206F6B0D0019
:101F80006661696C65640D00F0B502460E464FF659
:101F9000FF7015467DB100240BE02B7880EA030129
:101FA000CFB2DFF820C03CF8177087EA20206D1C04
:101FB000641CB442F1D34FF6FF7707EA0021001208
:101FC0000843F0BD6C3C0008002008E0FF220549F2
:101FD00021F8102001F5807121F81020401C802884
:101FE000F4DB7047A406002006494868411C19B17B
:101FF0000549C1F8B00003E00521034AC2F8B0105A
:102000007047000000F00008780000200549C8690A
:10201000411C11B1044A108002E00121024A1180E2
:102020007047000000F00008A00500200649086A7B
:10203000411C19B10549C1F8080403E00021034A15
:10204000C2F808147047000000F00008A005002046
:1020500000B5FFF7C9FF00F08FF800F045F800F079
:1020600079F800F051F800F061F8FFF7CFFFFFF7C3
:10207000DDFF00BD10B5A6B0802106A8FEF774FAFA
:102080001448D0F8080413490988134AD2F8D0201C
:10209000114BD3F8CC30CDE90232CDE904100E4813
:1020A000D0F8C8000D490988CDE900100C48D0F8D7
:1020B000BC300C49D0F8B02006A8FEF7B5F806A849
:1020C000FEF79AF90446214606A801F075FC26B0F1
:1020D00010BD0000A0050020AC0900202000002059
:1020E00078000020743E00080549C868411C11B101
:1020F000044A108003E04FF4FA51024A11807047FD
:1021000000F000082000002006494869411C19B170
:102110000549C1F8CC0003E03221034AC2F8CC10D3
:102120007047000000F00008AC09002006498869EB
:10213000411C19B10549C1F8D00003E00449034A24
:10214000C2F8D0107047000000F00008AC09002071
:10215000A862040006490869411C19B10549C1F883
:10216000C80004E040F2DC51024AC2F8C8107047CF
:1021700000F00008AC09002006498868411C19B12C
:102180000549C1F8BC0004E040F21451024AC2F80B
:10219000BC10704700F0000878000020014800687B
:1021A00070470000480000200048704748030020A6
:1021B00004480068012802D10348006870470020E5
:1021C000FCE70000080000200000002000487047E5
:1021D0001004002070B504460D46257006212046E7
:1021E000FFF7D2FE0646300AA071E67108212046AC
:1021F00001F068FC70BDF0B585B004460D4616468A
:1022000014216846FEF7B0F92670280A207165711E
:1022100006212046FFF7B8FE07463812A071E77185
:102220000821204601F04EFC05B0F0BD2DE9F0413B
:1022300000250024002693E254B901F0D9FB0821BF
:10224000FA4801F03FFCFFF7A9FF0646012487E2A8
:10225000012C17D1304600F027FB3228EBD9FFF7CD
:10226000B5FF07460822F149FEF79AF810B1641C41
:10227000002575E2032D02DA6D1C641E70E2641CF9
:1022800000256DE2022C0BD101F0B2FB0821E748DA
:10229000083001F017FCFFF781FF0646641C5FE27F
:1022A000032C18D1304600F0FFFA3228C3D9FFF7CB
:1022B0008DFF07460822DD490831FEF771F810B19D
:1022C000641C00254CE2032D02DA6D1C641E47E2FB
:1022D000641C002544E2042C0CD101F089FBD34896
:1022E000D0F8CC10103000F0A0FCFFF757FF0646E6
:1022F000641C35E2052C18D1304600F0D5FA32289E
:1023000099D9FFF763FF07460822C8491031FEF745
:1023100047F810B1641C002522E2032D02DA6D1C7F
:10232000641E1DE2641C00251AE2062C0CD101F08B
:102330005FFBBE48D0F8CC10183000F076FCFFF7F9
:102340002DFF0646641C0BE2072C18D1304600F026
:10235000ABFA32288DD9FFF739FF07460822B34977
:102360001831FEF71DF810B1641C0025F8E1032DAB
:1023700002DA6D1C641EF3E1641C0025F0E1082CF8
:102380000BD101F035FB0821A848203001F09AFB61
:10239000FFF704FF0646641CE2E1092C18D1304621
:1023A00000F082FA32288DD9FFF710FF0746082285
:1023B0009E492031FDF7F4FF10B1641C0025CFE1E8
:1023C000032D02DA6D1C641ECAE1641C0025C7E1FE
:1023D0000A2C0BD101F00CFB08219448283001F0A5
:1023E00071FBFFF7DBFE0646641CB9E10B2C18D12C
:1023F000304600F059FA32288ED9FFF7E7FE07463B
:1024000008228A492831FDF7CBFF10B1641C002552
:10241000A6E1032D02DA6D1C641EA1E1641C0025F7
:102420009EE10C2C0BD101F0E3FA08217F483030FB
:1024300001F048FBFFF7B2FE0646641C90E10D2C4C
:1024400018D1304600F030FA32288FD9FFF7BEFE9F
:102450000746082275493031FDF7A2FF10B1641C10
:1024600000257DE1032D02DA6D1C641E78E1641CF9
:10247000002575E10E2C0BD101F0BAFA08216B484A
:10248000483001F01FFBFFF789FE0646641C67E138
:102490000F2C18D1304600F007FA32288FD9FFF7F9
:1024A00095FE0746082261494831FDF779FF10B1D2
:1024B000641C002554E1032D02DA6D1C641E4FE1FB
:1024C000641C00254CE1102C0BD101F091FA08217D
:1024D0005648503001F0F6FAFFF760FE0646641CDD
:1024E0003EE1112C18D1304600F0DEF932288FD9A8
:1024F000FFF76CFE074608224C495031FDF750FFAC
:1025000010B1641C00252BE1032D02DA6D1C641E42
:1025100026E1641C002523E1122C0BD101F068FA9E
:1025200008214248583001F0CDFAFFF737FE064641
:10253000641C15E1132C18D1304600F0B5F932288F
:102540008FD9FFF743FE0746082238495831FDF777
:1025500027FF10B1641C002502E1032D02DA6D1C77
:10256000641EFDE0641C0025FAE0142C0BD101F080
:102570003FFA08212D48603001F0A4FAFFF70EFE63
:102580000646641CECE0152C18D1304600F08CF99E
:1025900032288FD9FFF71AFE0746082223496031F7
:1025A000FDF7FEFE10B1641C0025D9E0032D02DA10
:1025B0006D1C641ED4E0641C0025D1E0162C0BD1E8
:1025C00001F016FA08211948703001F07BFAFFF784
:1025D000E5FD0646641CC3E0172C18D1304600F018
:1025E00063F932288FD9FFF7F1FD074608220F491A
:1025F0007031FDF7D5FE10B1641C0025B0E0032D4D
:1026000002DA6D1C641EABE0641C0025A8E0182CE7
:102610000ED101F0EDF908210448683001F052FABA
:10262000FFF7BCFD0646641C9AE00000AC090020E0
:10263000192C17D1304600F037F9322809D9FFF7A5
:10264000C5FD074608224849FDF7AAFE10B1641CE3
:10265000002585E0032D02DA6D1C641E80E0641CF9
:1026600000257DE01A2C0BD101F0C2F908213E486B
:10267000103001F027FAFFF791FD0646641C6FE069
:102680001B2C18D1304600F00FF9322868D9FFF71B
:102690009DFD0746082234491031FDF781FE10B137
:1026A000641C00255CE0032D02DA6D1C641E57E0FB
:1026B000641C002554E01C2C0BD101F099F9002179
:1026C0002948203000F04DF9FFF768FD0646641CEC
:1026D00046E01D2C18D1304600F0E6F832283FD9EC
:1026E000FFF774FD074608221F492D31FDF758FEFC
:1026F00010B1641C002533E0032D02DA6D1C641E4A
:102700002EE0641C00252BE01E2C0BD101F070F98B
:1027100008211548553001F0D5F9FFF73FFD064671
:10272000641C1DE01F2C18D1304600F0BDF8322883
:1027300016D9FFF74BFD074608220B495531FDF727
:102740002FFE10B1641C00250AE0032D02DA6D1C77
:10275000641E05E0641C002502E0202C00D100E08E
:102760006AE500BFBDE8F081140A002008B5012128
:102770001020FEF78BFE4FF4E070ADF80000102043
:102780008DF8030003208DF8020069460848FEF723
:102790002CFD40210648FEF7FBFD80210448FEF792
:1027A000F9FD4FF480710248FEF7F4FD08BD00000A
:1027B0000010014008B562B6264800684FF47A72EE
:1027C000B0FBF2F1481EB0F1807F00D31BE0481E41
:1027D0004FF0E022506150170F22002807DA13074C
:1027E0001D0E1D4B00F00F04241F1D5503E01307A1
:1027F0001C0E1A4B1C5400BF00204FF0E0229061C9
:102800000720106100BF4FF4165000F011FB4FF489
:10281000165001F0FFF84FF4964001F085F900F0F2
:1028200017FAFFF7A3FF00F0B3F8FFF711FCFFF76B
:1028300021FCFFF7C9FB0020034602460146009039
:102840000A20FEF72FF904E000F046FB6420FFF7B2
:10285000DDF9F9E76400002018ED00E000E400E095
:102860000A210EA001F0A8F845F25550FEF7B0FD80
:102870000320FEF7A1FD4FF47A70FEF7A3FDFEF7EB
:1028800093FDFEF789FD0120FEF7A8FE00BF612041
:10289000FEF786FE0028FAD000BFFEE73A726573A5
:1028A00065742E2E2E0D0A0000B50146FFF776FC4A
:1028B000401A00BD08B501210920FEF7E7FD0121FE
:1028C0000B48FEF71DFD4FF48040ADF800001020CE
:1028D0008DF8030001208DF8020069460548FEF7D7
:1028E00084FC4FF480410348FEF752FD08BD000010
:1028F00000023000000C014008B501210920FEF75C
:10290000C5FD01210B48FEF7FBFC4FF40040ADF87C
:10291000000010208DF8030001208DF802006946A8
:102920000548FEF762FC4FF400410348FEF730FD16
:1029300008BD000000023000000C014070B50446E4
:102940000D46280A2071657106212046FFF71CFB01
:102950000646300AA071E6710821204601F03CF9D4
:1029600070BD70B504460D46280E6072280CA0722A
:10297000280AE07125720B212046FFF705FB064669
:10298000300AE07226730D21204601F09BF870BDDD
:1029900000B5B3B066A30FCBCDE93123CDE92F014C
:1029A00067A103C9CDE92D0167A103C9CDE92B01B9
:1029B00067A103C9CDE9290167A103C9CDE92701B1
:1029C00067A103C9CDE92501674903C9CDE9230101
:1029D00066A103C9CDE9210166A103C9CDE91F01A3
:1029E00066A103C9CDE91D0166A103C9CDE91B019B
:1029F00066A103C9CDE9190166A103C9CDE9170193
:102A000066A103C9CDE9150166A103C9CDE913018A
:102A100066A103C9CDE9110166A103C9CDE90F0182
:102A200066A103C9CDE90D0166A103C9CDE90B017A
:102A300066A103C9CDE9090166A103C9CDE9070172
:102A400066A103C9CDE9050166A103C9CDE903016A
:102A500066A103C9CDE901010D222FA96548FDF743
:102A60002FFD64480838DDE92D1206C08838DDE9FD
:102A70002B12C0E91E129530299901602A994160F4
:102A80009538DDE9271206C00838DDE92512C0E9CE
:102A90000212DDE92312C0E90412DDE92112C0E9C6
:102AA0000612DDE91F12C0E90812DDE91D12C0E9B6
:102AB0000A12DDE91B12C0E90C12DDE91912C0E9A6
:102AC0000E12DDE91712C0E91012DDE91512C0E996
:102AD0001212DDE91312C0E91412DDE91112C0E986
:102AE0001612DDE90F12C0E91812DDE90D12C0E976
:102AF0001A12DDE90B12C0E91C129D300999016020
:102B00000A994160083007990160089941600830CE
:102B100005990160069941600830039901600499A4
:102B200041600830019901600299416033B000BDF5
:102B30000110016800020486A00001111B000000C2
:102B400001060001000119CA0106019001F4880C78
:102B5000011001680002C1E8010600020003680BD1
:102B6000010600040000C80B6C3E00080110005074
:102B7000000241D901060090000148270106009497
:102B8000000109E601060096000069E601060080E2
:102B90000000982C010600810001982C0106008499
:102BA0000004C820010600850014982C0106008648
:102BB0000011A82F010600870010382F010601A080
:102BC00000FFC8540106008F000179E1010601A44D
:102BD000000248140103047800010523010601A442
:102BE00000010815010601A40000C9D5010601A7CE
:102BF0000801FFD5340A00202DE9F04104460D46B6
:102C00001646280AA070E570300A20716671062108
:102C10002046FFF7B9F90746380AA071E771082185
:102C2000204600F04FFFBDE8F08170B504460D4628
:102C3000280A2071657106212046FFF7A5F906468E
:102C4000300AA071E6710821204600F03BFF70BDFC
:102C50009FB04EA000681E904DA103C9CDE91C0194
:102C60004DA103C9CDE91A014DA103C9CDE9180150
:102C70004DA103C9CDE916014DA0006815904DA0E6
:102C8000006814904CA103C9CDE912014CA103C9FD
:102C9000CDE910014CA103C9CDE90E014CA103C936
:102CA000CDE90C014CA103C9CDE90A014CA103C92E
:102CB000CDE908014CA103C9CDE906014CA103C926
:102CC000CDE904014CA103C9CDE902014CA103C91E
:102CD000CDE900014C481E9901601C998160BDF846
:102CE0007410818118990161BDF8641081821A996C
:102CF0008161BDF86C10818316990162BDF85C108A
:102D00008184159981621499016312998163BDF8D8
:102D10004C10818710990164BDF84410A0F844104C
:102D2000803000990161BDF80410818204998160AE
:102D3000BDF81410818102990160BDF80C108180EA
:102D400080380A998164BDF82C10A0F84C100699BF
:102D50000167BDF81C10A0F8741008998165BDF8D2
:102D60002410A0F85C100E990165BDF83C10A0F885
:102D700054100C998166BDF83410A0F86C10002036
:102D80002149C1F8C8001FB07047000000062008A4
:102D900001062000000500000106200000010000DF
:102DA00001062000000200000106200105DC0000F1
:102DB0000106200301062004010320030001000096
:102DC00001032004000100000106200000070000AC
:102DD0000106200900030000010321040001000096
:102DE00001032001000100000006200B0005000087
:102DF000000620020002000000062006000200007B
:102E00000006200A000100007800002010B5C8214B
:102E10000448FDF787FB0020034908600349086068
:102E200010BD000048030020000000200800002022
:102E300010B586B00446012144F20500FEF726FBDA
:102E40002348FEF721FD4FF40070ADF81400012077
:102E50008DF8160018208DF8170005A91D48FEF7FB
:102E6000C4F94FF48060ADF8140004208DF8170009
:102E700005A91848FEF7B9F901940020ADF808003B
:102E8000ADF80A00ADF80C00ADF810000C20ADF85C
:102E90000E0001A90E48FEF7A1FD25208DF80000C7
:102EA00003208DF8010004208DF8020001208DF828
:102EB00003006846FEF792FA012240F225510448C9
:102EC000FEF767FD01210248FEF7D2FC06B010BDF7
:102ED00000380140000801402DE9F047A0B0FFF79D
:102EE00067F98246BAF1000F76D0FFF75DF9044624
:102EF0000322FCA12046FDF753FA00286ED10026DC
:102F0000E0780006217940EA0140617940EA012039
:102F1000A17940EA010904E0F01D205C10A9885560
:102F2000761CF01D205C7E28F6D110A98855B9F1D9
:102F3000000F4CDD002740216846FDF715FB09F125
:102F4000010000EBD0714910491CE74A22F8271014
:102F5000104610F827008DF8000001208DF80100C0
:102F6000E0788DF8020020798DF8030060798DF803
:102F70000400A0798DF8050000BF05E010A8C15D30
:102F8000B81D0DF800107F1CB742F7DB40226946E0
:102F9000D648FDF750FAB01DD4490874B11D6846F3
:102FA00000F00AFDB11DCAB2D14908886946FEF792
:102FB0003DF88046B8F1010F04D10721CDA000F003
:102FC000FBFC03E00321CDA000F0F6FC00BF0721CD
:102FD000C8A000F0F1FC35E2EFE3FFE70422C8A14E
:102FE0002046FDF7DDF9D0B9C7A103C9CDE91D0120
:102FF0000A221FA9201DFDF79BF906460A2200217F
:103000001F98001DFDF794F907463A4631461DA862
:10301000FFF7F2FD0521BEA000F0CEFCDBE70922A0
:10302000BDA12046FDF7BCF988B90A221FA904F109
:103030000A00FDF77DF9AE490880084601881C208A
:10304000FEF7A2FD0521B2A000F0B6FCC3E70822FE
:10305000B4A12046FDF7A4F940B90120B449C1F854
:10306000C8000521AAA000F0A7FCB4E70722B1A17F
:103070002046FDF795F940B90020AD49C1F8C800D8
:103080000521A3A000F098FCA5E70522ABA12046EE
:10309000FDF786F940B90821AA4800F013FD052183
:1030A0009BA000F089FC96E70422A7A12046FDF72B
:1030B00077F948B90821A348083000F003FD05213D
:1030C00093A000F079FC86E70822A1A12046FDF735
:1030D00067F970B90A221FA904F10800FDF728F961
:1030E0009849AD39C1F8D000052189A000F064FCF1
:1030F00071E70A2299A12046FDF752F998B90A22F0
:10310000002104F10A00FDF713F98E49AD39C1F829
:10311000C80029B28B483538FFF710FC05217CA088
:1031200000F04AFC57E70B228FA12046FDF738F943
:10313000D8B90A22002104F10B00FDF7F9F8814902
:10314000AD39C1F8CC000846D0F8CC101030FFF7EC
:103150006CFD7C48AD38D0F8CC101830FFF765FD19
:1031600005216BA000F028FCF8E3052281A1204690
:10317000FDF716F9B0B90A221FA9601DFDF7D8F8AE
:103180006B4908700A2200211F98401CFDF7D0F8F7
:10319000054629466648FFF748FD05215CA000F07A
:1031A0000BFCDBE30A2275A12046FDF7F9F898B97C
:1031B0000A22002104F10A00FDF7BAF805465C482E
:1031C000C0F8BC50012229462030FFF714F8052131
:1031D0004FA000F0F1FBC1E30B226BA12046FDF7ED
:1031E000DFF8C8B90A22002104F10B00FDF7A0F8AE
:1031F00005464F48C0F8B050012229462830FEF756
:10320000FAFF012229464A483030FEF7F4FF052133
:103210003FA000F0D1FBA1E306225EA12046FDF70E
:10322000BFF850B9A0793249C1F808040846D0F86F
:1032300008142020FEF7A8FC90E3072257A120469F
:10324000FDF7AEF840B95748FDF7D6F806463146C7
:10325000544800F0B1FB81E30A2253A12046FDF758
:103260009FF810B9FEF706FF78E3042251A120462B
:10327000FDF796F880B92E48D0F8BC100820FEF76C
:1032800083FC2B48D0F8B0100420FEF77DFC05210C
:103290001FA000F091FB61E3102248A12046FDF73A
:1032A0007FF888B90A22002104F11000FDF740F8E8
:1032B00047490880084601880C20FEF765FC042178
:1032C00044A000F079FB49E3062244A12046FDF723
:1032D00067F830B94348C078011D424800F06CFBE4
:1032E0003CE381E077696E0048010020CA0A0020B3
:1032F000A00500206661696C65640D006F6B0D00B0
:10330000616464720000000001060000000000001B
:10331000737563630D0000006465766963655F69BA
:1033200064000000776F726B5F6F666600000000DC
:1033300078000020776F726B5F6F6E00737461723C
:1033400074000000590A002073746F7000000000C0
:10335000706F735F7365743D00000000706F735F82
:1033600073706565643D0000706F735F61647469BC
:103370006D653D0073657469640000006361725F90
:1033800073706565643D00006361725F61647469B8
:103390006D653D00716D61786964000076657273DA
:1033A000696F6E0022000020726561645F666C6167
:1033B00073680000736176650000000075617274C7
:1033C000325F3438355F64656C61793D0000000020
:1033D000200000207375636300000000716368655E
:1033E000636B0000DC0A00200622F5A12046FCF7F2
:1033F000D7FF40BB00201E901F90A0798DF8780069
:1034000008208DF8790020208DF87A0008208DF8AA
:103410007B00E0798DF87D00EB49088808221EA921
:10342000FDF704FE064608211EA800F0C5FA012E8D
:1034300004D10C21E5A000F0BFFA03E00A21E7A0C7
:1034400000F0BAFA8AE20522E7A12046FCF7A8FFBD
:1034500000BB00201E901F908DF8780008208DF88A
:10346000790001208DF87B0000208DF87D00D64981
:10347000088808221EA9FDF7D9FD0646012E04D1B1
:103480000C21D2A000F098FA03E00A21D3A000F0AA
:1034900093FA63E20522D6A12046FCF781FFF8B932
:1034A00000201E901F908DF8780008208DF879007C
:1034B00001208DF87B008DF87D00C3490888082223
:1034C0001EA9FDF7B3FD0646012E04D10C21BFA0B5
:1034D00000F072FA03E00A21C0A000F06DFA3DE2AC
:1034E0000422C5A12046FCF75BFF08BB00201E900C
:1034F0001F9060798DF8780008208DF87900012000
:103500008DF87B0005208DF87D00AF4908880822E2
:103510001EA9FDF78BFD0646012E04D10C21ABA0A0
:1035200000F04AFA03E00A21ACA000F045FA15E2E7
:103530000522B3A12046FCF733FF08BB00201E90F4
:103540001F9060798DF8780008208DF87900502060
:103550008DF87B00A0798DF87D009B4908880822B2
:103560001EA9FDF763FD0646012E04D10C2197A08C
:1035700000F022FA03E00A2198A000F01DFAEDE124
:103580000522A1A12046FCF70BFF68BB00201E907E
:103590001F900A220021601DFCF7CAFE054600208C
:1035A0008DF8780008208DF8790001208DF87A00D8
:1035B00090208DF87B00280A8DF87C00E8B28DF809
:1035C0007D008149088808221EA9FDF72FFD0646C7
:1035D000012E04D10C217DA000F0EEF903E00A21B8
:1035E0007EA000F0E9F9B9E1032289A12046FCF7A9
:1035F000D7FE70BB00201E901F900A220021E01C05
:10360000FCF796FE054600208DF8780008208DF81E
:10361000790001208DF87A0068208DF87B00280E53
:103620008DF87C00280C8DF87D00280A8DF87E002E
:10363000E8B28DF87F006449088808221EA9FDF7CA
:10364000F5FC0646012E05D10C2160A000F0B4F96E
:1036500004E004E00A2161A000F0AEF97EE104225A
:103660006CA12046FCF79CFE68BB00201E901F90BA
:103670000A220021201DFCF75BFE054600208DF884
:10368000780008208DF8790020208DF87A0001203C
:103690008DF87B00280A8DF87C00E8B28DF87D005B
:1036A0004949088808221EA9FDF7C0FC0646012EDC
:1036B00004D10C2145A000F07FF903E00A2147A0C6
:1036C00000F07AF94AE1052254A12046FCF768FE91
:1036D00068BB00201E901F900A220021201DFCF7CD
:1036E00027FE054600208DF8780008208DF8790027
:1036F00069208DF87A006E208DF87B0069208DF8A6
:103700007C0074208DF87D002F49088808221EA9AE
:10371000FDF78CFC0646012E04D10C212BA000F0F5
:103720004BF903E00A212DA000F046F916E105222D
:103730003CA12046FCF734FED8B900201E901F9013
:103740008DF8780008208DF8790000208DF87D0034
:1037500008221EA9FDF76AFC0646012E04D10C21A1
:103760001AA000F029F903E00A211CA000F024F9B6
:10377000F4E005222DA12046FCF712FEF0B900204E
:103780001E901F908DF8780008208DF87900012098
:103790008DF87D000C49088808221EA9FDF746FC1B
:1037A0000646012E04D10C2108A000F005F903E023
:1037B0000A210AA000F000F9D0E0D1E03AE00000D0
:1037C0007173657469640000A005002073656E6400
:1037D000206661696C65640D0000000073656E64AD
:1037E00020737563630D000071736577310000000D
:1037F000717365773200000071736573000000001B
:10380000717365616400000071736573700000007E
:10381000706F7300716373700000000071696E69EE
:103820007400000071636172660000007163617270
:103830006200000005224CA12046FCF7B1FDF8B95A
:1038400000201E901F908DF8780008208DF87900D8
:1038500005208DF87D004649088808221EA9FDF73D
:10386000E5FB0646012E05D10C21AFF2A00000F0C9
:10387000A3F804E00A21AFF29C0000F09DF86DE08F
:1038800006223CA12046FCF78BFD98B90A221FA90D
:10389000A01DFCF74DFD064638490E700A22002196
:1038A0001F98401CFCF744FD074639463348FFF794
:1038B000BCF953E0052232A12046FCF771FD48B95E
:1038C0000821314800F0FEF80521AFF2BC5000F0AD
:1038D00073F843E005222DA12046FCF761FD50B9A5
:1038E000012126481830FEF775FC0521AFF2E050A3
:1038F00000F062F832E0052226A12046FCF750FDD8
:1039000050B901211D481030FEF764FC0521AFF2CB
:10391000006000F051F821E0052220A12046FCF7CC
:103920003FFD50B9012115480830FEF753FC052131
:10393000AFF2246000F040F810E0092219A12046FF
:10394000FCF72EFD10B9FEF771FC07E0052218A167
:103950002046FCF725FD08B9FEF782FFFFF756FA6F
:1039600020B0BDE8F0870000716361727300000051
:10397000A00500207365745F696400007800002072
:10398000636C65616E000000490A00207463617217
:10399000660000007463617262000000746361720B
:1039A00073000000696E6974536572766F000000E1
:1039B000726573657400000070B506460C460025FC
:1039C000002C00DC70BD00250BE0715D0748FEF7A0
:1039D00076F800BF80210548FDF7A4FF0028F9D044
:1039E0006D1CA542F1DB00BFECE700000038014090
:1039F00010B5C8210448FCF795FD00200349086074
:103A00000349086010BD0000100400200C000020D5
:103A10001000002010B586B0044601214804FDF7CF
:103A200015FD01210520FDF731FD2448FDF72CFF90
:103A30000420ADF8140001208DF8160018208DF830
:103A4000170005A91E48FDF7D0FB0820ADF81400AB
:103A500004208DF8170005A91948FDF7C6FB01944D
:103A60000020ADF80800ADF80A00ADF80C00ADF884
:103A700010000C20ADF80E0001A91048FDF7AEFFB4
:103A800026208DF8000003208DF8010002208DF81B
:103A9000020001208DF803006846FDF79FFC01221B
:103AA00040F225510548FDF774FF01210348FDF759
:103AB000DFFEFEF721FF06B010BD0000004400400D
:103AC0000008014070B506460C460025002C00DCBD
:103AD00070BD4FF400411148FDF75CFC4FF47A7063
:103AE00000F0A8F800250BE0715D0D48FDF7E7FF39
:103AF00000BF80210A48FDF715FF0028F9D06D1C92
:103B0000A542F1DB0748008800F094F84FF400412B
:103B10000248FDF73DFC00BFDAE70000000C014061
:103B2000004400402000002010B586B0044601216A
:103B3000C804FDF78BFC01211120FDF7A7FC2448E8
:103B4000FDF7A2FE4FF48060ADF8140001208DF85F
:103B5000160018208DF8170005A91E48FDF745FB33
:103B60004FF40060ADF8140048208DF8170005A947
:103B70001848FDF73AFB01940020ADF80800ADF8B5
:103B80000A00ADF80C00ADF810000C20ADF80E00E6
:103B900001A90F48FDF722FF34208DF80000032013
:103BA0008DF801008DF8020001208DF803006846B1
:103BB000FDF714FC012240F225510548FDF7E9FE0E
:103BC00001210348FDF754FEFEF774FE06B010BD58
:103BD000004C00400010014070B506460C46002520
:103BE000002C00DC70BD642000F024F84FF480410C
:103BF0000E48FDF7CFFB00250BE0715D0C48FDF78B
:103C00005EFF00BF80210A48FDF78CFE0028F9D036
:103C10006D1CA542F1DB40F6C41000F00BF84FF428
:103C200080410248FDF7B4FB00BFDBE7000C014018
:103C3000004C0040002100E0491C8142FCDB704741
:103C400010B500290AD00878002807D00548784424
:103C5000FCF7C8FD002801D0002010BD02487844C0
:103C600010BD0000A60200009E0200000000C1C0BE
:103C700081C1400101C3C003800241C201C6C00628
:103C8000800741C70005C1C581C4400401CCC00CF8
:103C9000800D41CD000FC1CF81CE400E000AC1CAB8
:103CA00081CB400B01C9C009800841C801D8C018A8
:103CB000801941D9001BC1DB81DA401A001EC1DE28
:103CC00081DF401F01DDC01D801C41DC0014C1D418
:103CD00081D5401501D7C017801641D601D2C01238
:103CE000801341D30011C1D181D0401001F0C03008
:103CF000803141F10033C1F381F240320036C1F628
:103D000081F7403701F5C035803441F4003CC1FCF7
:103D100081FD403D01FFC03F803E41FE01FAC03AB7
:103D2000803B41FB0039C1F981F840380028C1E8E7
:103D300081E9402901EBC02B802A41EA01EEC02E27
:103D4000802F41EF002DC1ED81EC402C01E4C02417
:103D5000802541E50027C1E781E640260022C1E237
:103D600081E3402301E1C021802041E001A0C06047
:103D7000806141A10063C1A381A240620066C1A627
:103D800081A7406701A5C065806441A4006CC1ACF7
:103D900081AD406D01AFC06F806E41AE01AAC06AB7
:103DA000806B41AB0069C1A981A840680078C1B8A7
:103DB00081B9407901BBC07B807A41BA01BEC07E27
:103DC000807F41BF007DC1BD81BC407C01B4C07417
:103DD000807541B50077C1B781B640760072C1B237
:103DE00081B3407301B1C071807041B00050C19087
:103DF000819140510193C053805241920196C05627
:103E0000805741970055C19581944054019CC05CF6
:103E1000805D419D005FC19F819E405E005AC19AB6
:103E2000819B405B0199C059805841980188C048E6
:103E300080494189004BC18B818A404A004EC18E26
:103E4000818F404F018DC04D804C418C0044C18416
:103E5000818540450187C047804641860182C04236
:103E6000804341830041C181818040400110005066
:103E7000000204006361725F616474696D653D25D1
:103E8000642C6361725F73706565643D25642C63A7
:103E900061725F7469636B3D25642C706F735F732F
:103EA000706565643D25642C706F735F616474692F
:103EB0006D653D25642C706F735F7365743D25647B
:103EC0002C69643D25642C6D61785F69643D2564CF
:103ED0000D000000044000080000002078000000F1
:103EE0006C0100087C4000087800002010120000DF
:103EF000880100081001000043000000F8FFFFFFE8
:103F000000404040404040404040414141414140EC
:103F100040404040404040404040404040404040A1
:103F20004005020202020202020202020202020230
:103F30000220202020202020202020020202020235
:103F4000020290909090909010101010101010108D
:103F50001010101010101010101010100202020299
:103F600002028888888888880808080808080808DD
:103F700008080808080808080808080802020202D9
:103F800040000000000000000000000000000000F1
:103F90000000000000000000000000000000000021
:103FA0000000000000000000000000000000000011
:103FB0000000000000000000000000000000000001
:103FC00000000000000000000000000000000000F1
:103FD00000000000000000000000000000000000E1
:103FE00000000000000000000000000000000000D1
:103FF00000000000000000000000000000000000C1
:1040000000000000000000000000000000000000B0
:1040100000000000000000000000000000000000A0
:1040200001000000000076657273696F6E207633C0
:104030002E30000000000000000000000200000020
:104040000000000000000000000000000000000070
:10405000000000000000000001020304010203044C
:10406000060708090204060800A24A04000000002E
:0C4070000000000001020304060708091C
:0400000508000131BD
:00000001FF
