:020000040800F2
:10000000E0350020E9010008F1010008F3010008D3
:10001000F5010008F7010008F901000800000000E0
:10002000000000000000000000000000FB010008CC
:10003000FD01000800000000FF0100087D1E00080F
:10004000030200080302000803020008030200087C
:10005000030200080302000803020008030200086C
:1000600003020008030200086111000803020008EF
:10007000030200080302000803020008030200084C
:10008000030200080302000803020008030200083C
:100090005522000803020008030200088D11000821
:1000A000030200080302000803020008030200081C
:1000B000030200080302000803020008030200080C
:1000C00003020008030200080302000803020008FC
:1000D00003020008311F0008751F0008B91F00083F
:1000E00003020008030200080302000803020008DC
:1000F00003020008030200080302000803020008CC
:1001000003020008030200080302000803020008BB
:10011000ED1E0008030200080302000803020008A5
:10012000030200080302000803020008030200089B
:1001300000F002F800F048F80AA090E8000C8244B1
:100140008344AAF10107DA4501D100F03DF8AFF28E
:10015000090EBAE80F0013F0010F18BFFB1A43F0A5
:1001600001031847504F0000704F0000103A24BFA1
:1001700078C878C1FAD8520724BF30C830C144BF0C
:1001800004680C607047000000230024002500264E
:10019000103A28BF78C1FBD8520728BF30C148BFEA
:1001A0000B607047642900F08780002070471FB5FE
:1001B00000F096FA04000020002104F023FE401C09
:1001C00060601FBD10B510BD00F09CFA1146FFF72E
:1001D000EEFF03F02DFA00F0BAFA03B4FFF7F2FFD6
:1001E00003BC00F0FBFA00000948804709480047BB
:1001F000FEE7FEE7FEE7FEE7FEE7FEE7FEE7FEE7D7
:10020000FEE7FEE704480549054A064B7047000033
:100210008D1E000831010008E02F0020E03500208D
:10022000E0310020E03100200FB41CB5074B06AAD6
:100230007B4469460090059800F0E7F90020694684
:1002400000F0F6F91CBC5DF814FB0000FD03000093
:100250002DE9F0410E460446002020622046E16868
:10026000884730B3252805D0D4E901219047206A7A
:10027000401CF2E7E168204600278847050018D0B7
:10028000A5F14100192802D820354FF40067324605
:10029000294620462760FFF785FF40B1012804D09A
:1002A000F61D26F007060836D8E7361DD6E728469D
:1002B000DAE7206ABDE8F0812DE9F0410646002426
:1002C00010687529314616A510D0AFF300800028BC
:1002D00002DA404213A507E031688A0701D512A56A
:1002E00002E0490704D511A5012401E0AFF3008025
:1002F00000210A2206F1240709E0B0FBF2FCB0FB62
:10030000F2F302FB1C00303078541846491C0028D8
:10031000F3D123462A463046BDE8F04100F016B935
:10032000000000002D0000002B0000002000000055
:100330002DE9F04791460F4680460446002614F802
:10034000015B2DB100F0F6F80068405DC007F6D102
:100350002B2D02D02D2D18D0641E4A46394620463A
:1003600000F06BF927B13968A14201D1C7F80080CC
:100370004FF0020471050BD54042002803DD00F068
:10038000E1F80460A007BDE8F08746F48066E4E782
:100390000028F8DA00F0D6F804606FF00040F2E7C9
:1003A00040EA010310B59B070FD1042A0DD310C8F2
:1003B00008C9121F9C42F8D020BA19BA884201D944
:1003C000012010BD4FF0FF3010BD1AB1D30703D08C
:1003D000521C07E0002010BD10F8013B11F8014B42
:1003E0001B1B07D110F8013B11F8014B1B1B01D15E
:1003F000921EF1D1184610BD10B5431C02E010F852
:10040000011B71B18107FAD14FF0013202C88C1A79
:100410008C4314EAC211F9D0C01A0A0603D0C01ED8
:1004200010BDC01A10BD0A0401D0801E10BD090203
:10043000FCD0401E10BD10B5203AC0F00B80B1E8D2
:100440001850203AA0E81850B1E81850A0E8185009
:10045000BFF4F5AF5FEA027C24BFB1E81850A0E812
:10046000185044BF18C918C0BDE810405FEA827C2C
:1004700024BF51F8043B40F8043B08BF7047D20743
:1004800028BF31F8023B48BF11F8012B28BF20F8E4
:10049000023B48BF00F8012B70474FF000020429CF
:1004A000C0F0128010F0030C00F01B80CCF1040CA3
:1004B000BCF1020F18BF00F8012BA8BF20F8022BD7
:1004C000A1EB0C0100F00DB85FEAC17C24BF00F87D
:1004D000012B00F8012B48BF00F8012B70474FF0AB
:1004E000000200B5134694469646203922BFA0E884
:1004F0000C50A0E80C50B1F12001BFF4F7AF090790
:1005000028BFA0E80C5048BF0CC05DF804EB890080
:1005100028BF40F8042B08BF704748BF20F8022BC3
:1005200011F0804F18BF00F8012B704770477047DB
:100530007047000010B500F0D3F8001D10BD00BFDB
:10054000C548000000487047802F00202DE9F04783
:100550000D4699469246044600F124080168880633
:1005600004D5E06921F01001216000E00120A842DB
:1005700001DD471B00E00027A1697A1902EB0900A1
:10058000081AA0612078C00602D42046AFF300808C
:10059000002608E0D4E901211AF806009047206AF5
:1005A000401C761C20624E45F4DB2078C0060AD53C
:1005B0002046AFF3008006E0D4E9012130209047C7
:1005C000206A401C2062381EA7F10107F4DC07E016
:1005D000D4E9012118F805009047206A401C2062E8
:1005E000281EA5F10105F3DC2046AFF3008020783A
:1005F000000602D50220BDE8F0870120FBE70000DD
:1006000001694A1C02610878704700B58FB0CDE9D6
:1006100001310021059105497944CDE903101146C6
:100620006846FFF715FE0FB000BD0000E5FFFFFFB5
:100630000A6802F8010B0A6070472DE9F05F8246F4
:1006400015468B4600270AF10104B9460078302888
:1006500001D09DB113E014F8010B0127782803D0D5
:10066000582801D045B10AE00DB1102D07D100275F
:1006700014F8010B102502E0082500E00A250026E9
:10068000B0460EE005FB080005FB06F101271FFA46
:1006900080F801EB1046B6F5803F00D3B94614F858
:1006A000010B294600F020F80028EBDABBF1000F1F
:1006B00005D00FB1641E00E05446CBF80040B9F1FC
:1006C000000F06D0FFF73EFF02210160C81EBDE803
:1006D000F09F48EA0640FAE700487047802F002064
:1006E00000487047A02F00203A2800D2303820F070
:1006F0002002412A01D3A2F13700884201D34FF0F2
:10070000FF3070477546FFF7E7FFAE4605006946C4
:10071000534620F00700854618B020B5FFF772FD5C
:10072000BDE820404FF000064FF000074FF00008F2
:100730004FF0000B21F00701AC46ACE8C009ACE873
:10074000C009ACE8C009ACE8C0098D467047044652
:10075000AFF300802046FFF740FD00004FF0013C62
:1007600050F8042B51F8043B9A4221D1A2EB0C0320
:10077000934313EACC1317D150F8042B51F8043BE0
:100780009A4215D1A2EB0C03934313EACC130BD17D
:1007900050F8042B51F8043B9A4209D1A2EB0C0308
:1007A000934313EACC13DBD04FF00000704700BF37
:1007B000D01A01BAB1FA81F101F0180122FA01F060
:1007C000CB40C1F12001DBB2C0B2C01A2CFA01F358
:1007D000D11A914311EAC311E6D17047014918209B
:1007E000ABBEFEE726000200704700000020024971
:1007F00048700870704700007C1F002030B5054627
:100800000C46002300F06CF803467F2B01DB002030
:1008100030BD1F2C00DD1F240F484178801C00EBE9
:1008200041100470002308E0E95C0B484278801C0A
:1008300000EB4212581C1154C3B2A342F4DB064829
:100840004078401C0449487008464078802801DB05
:10085000002048700120DBE77C1F002030B50446F3
:10086000002500F03DF805460DB9002030BD1B48BD
:100870000178801C00EB41100578002310E0174838
:100880000178801C00EB4111581C085CE0540021E9
:1008900012480278801C00EB4212581C1154C3B25B
:1008A000AB42ECDB00210D480278801C00EB4210CB
:1008B00001700A480078401C084908700846007812
:1008C000802801DB0020087004480078034949783B
:1008D000884201D1FFF78AFF0120C7E77C1F002073
:1008E00000B500220F480078802803DA0D484078D0
:1008F000802801DBFFF77AFF0A4840780949097828
:10090000884206DB0748407806490978401AC2B297
:1009100006E004484078803002490978401AC2B2A3
:10092000104600BD7C1F002010B50021837A0122F3
:1009300002FA03F13D4A126842F001023B4B1A6091
:100940003A4A1C3212688A43384B1C331A60027BC5
:10095000CAB9364A0C3212688A43344B0C331A60D7
:100960004288C38842EA0343304A4032847A42F8DC
:1009700034300288838842EA03432C4A4032847A26
:1009800002EBC4025360027B012A19D1274A0C32C0
:1009900012680A43254B0C331A604288038842EAE6
:1009A0000343224A4032847A42F83430C288838832
:1009B00042EA03431D4A4032847A02EBC402536088
:1009C000C27A3AB9194A121D12688A43174B1B1D85
:1009D0001A6006E0154A121D12680A43134B1B1DCC
:1009E0001A60028932B9114A143212688A430F4BD5
:1009F00014331A600289012A06D10C4A1432126893
:100A00000A430A4B14331A60427B012A06D1074A73
:100A10001C3212680A43054B1C331A60034A1268E1
:100A200022F00102014B1A6010BD00000066004078
:100A30001AB143690B43436102E043698B4343614D
:100A4000704730B5024600200023146824F00204E9
:100A50001460146844F00104146000E05B1C5468E6
:100A600004F001041CB94FF6FF74A342F6D1546898
:100A700004F001040CB900206CE08C79012C04D145
:100A8000146844F08004146003E0146824F08004C7
:100A90001460CC79012C04D1146844F04004146033
:100AA00003E0146824F0400414600C7A012C04D193
:100AB000146844F02004146003E0146824F0200457
:100AC00014604C7A012C04D1146844F010041460B2
:100AD00003E0146824F0100414608C7A012C04D113
:100AE000146844F00804146003E0146824F0080457
:100AF0001460CC7A012C04D1146844F0040414600E
:100B000003E0146824F0040414608C78A407CD7802
:100B100044EA05640D7944EA05444D7944EA0554F4
:100B20000D886D1E2C43D461146824F001041460F8
:100B3000002300E05B1C546804F001041CB14FF674
:100B4000FF74A342F6D1546804F001040CB10020F4
:100B500000E0012030BD00002DE9F0418AB00446DC
:100B60000F4615461E46DDF840800D2D03D90120A5
:100B70000AB0BDE8F0810121480600F037FE0121EE
:100B8000092000F053FE01214FF4EA1000F028FD87
:100B90004FF48070ADF8240003208DF82600482023
:100BA0008DF8270009A99E4800F08EFC4FF40070D4
:100BB000ADF8240018208DF8270009A9984800F006
:100BC00083FC012212219748FFF732FF14208DF891
:100BD000040001208DF8050000208DF8060001209A
:100BE0008DF8070001A800F0BFFD15208DF8040066
:100BF00001208DF805008DF806008DF8070001A88A
:100C000000F0B2FD00208DF81E0001208DF81F00BD
:100C100000208DF8200001208DF8210000208DF8A3
:100C200022008DF823008DF81A700F2C73D2DFE8A4
:100C300004F0081624313E4B586573808D9AA7B492
:100C4000C10001208DF81B0005208DF81C00032039
:100C50008DF81D004FF41670ADF81800B8E00020B4
:100C60008DF81B0002208DF81C0001208DF81D005E
:100C70004FF41670ADF81800AAE000208DF81B00A4
:100C800009208DF81C0006208DF81D006420ADF8A9
:100C900018009DE000208DF81B0002208DF81C003C
:100CA00001208DF81D00F020ADF8180090E0002024
:100CB0008DF81B0002208DF81C0001208DF81D000E
:100CC0009620ADF8180083E000208DF81B00092065
:100CD0008DF81C0006208DF81D002820ADF81800A6
:100CE00076E000208DF81B0002208DF81C0001200A
:100CF0008DF81D004B20ADF8180069E000208DF83C
:100D00001B0009208DF81C0006208DF81D00142002
:100D1000ADF818005CE05AE000208DF81B000220BE
:100D20008DF81C0001208DF81D003020ADF8180052
:100D30004EE000208DF81B0007208DF81C000620D7
:100D40008DF81D000920ADF8180041E000208DF855
:100D50001B0002208DF81C0001208DF81D001820BA
:100D6000ADF8180034E000208DF81B0004208DF849
:100D70001C0002208DF81D000A20ADF8180027E0A5
:100D800000208DF81B0005208DF81C0004208DF834
:100D90001D000620ADF818001AE000208DF81B0099
:100DA00004208DF81C0002208DF81D000520ADF8F0
:100DB00018000DE000208DF81B0002208DF81C00AB
:100DC00001208DF81D000620ADF8180000E000BFDE
:100DD00000BF06A91348FFF734FEE8B28DF81200F1
:100DE00000208DF8130001208DF81400300CADF8B0
:100DF0000800F0B2ADF80A004FEA1840ADF80C0058
:100E000008F0FF00ADF80E000020ADF81000012042
:100E10008DF8150002A8FFF787FD0020A8E6000066
:100E2000000C01400064004010B500F5D87303EBDE
:100E300001131B6803F004031372137A53B900F50E
:100E4000D87303EB01131B6840F2FF7404EA535399
:100E5000136009E000F5D87303EB01131B686FF012
:100E6000604404EAD303536000F5D87303EB011325
:100E70001B6803F00203537200F5D87303EB0113F0
:100E80005B6803F00F03937200F5D87303EB011353
:100E90005B681B0AD37400F5D87303EB01139B68DE
:100EA000D37200F5D87303EB01139B681C0A14730B
:100EB00000F5D87303EB01139B681C0C547300F509
:100EC000D87303EB01139B681B0E937300F5D87363
:100ED00003EB0113DB68D37300F5D87303EB011345
:100EE000DB681C0A147400F5D87303EB0113DB688C
:100EF0001C0C547400F5D87303EB0113DB681B0E54
:100F0000937421B9C36843F02003C36003E003690D
:100F100043F02003036110BD10B502460020936822
:100F200003F08063B3F1806F00D110E0936803F0A9
:100F30000063B3F1006F01D1012008E0936803F072
:100F40008053B3F1805F01D1022000E00420042827
:100F500074D002F5C07303EB00131B6803F00104A7
:100F600002F5C07303EB00131C600B7A7BB94B7A5C
:100F70000C8843EA445302F5C07404EB001424685F
:100F8000234302F5C07404EB0014236010E00B7AD5
:100F90004C6843EAC4034C7A234302F5C07404EB63
:100FA00000142468234302F5C07404EB001423608A
:100FB0008B7A03F00F038B7202F5C07303EB0013FF
:100FC0005B6823F00F0402F5C07303EB00135C6051
:100FD00002F5C07303EB00135B688C7A234302F5C0
:100FE000C07404EB001463608B7B1C064B7B44EAEB
:100FF00003440B7B44EA0323CC7A234302F5C074F9
:1010000004EB0014A3608B7C1C064B7C44EA034475
:101010000B7C44EA0323CC7B234302F5C07404EB2E
:101020000014E36002F5C07303EB00131B6843F088
:10103000010402F5C07303EB00131C6010BD000037
:1010400010B50246002321B1012907D002290FD192
:1010500009E090681D4C00EA04030BE090681C4C0A
:1010600000EA040306E090681A4C00EA040301E079
:10107000002300BF00BF184C181BA34216D007DC8A
:1010800083B16FF08060184470B1022818D111E06C
:10109000B0F5007F10D0114C204448B1B0F5003FAE
:1010A0000ED10BE002230DE000230BE0002309E04A
:1010B000002307E0012305E0012303E0012301E011
:1010C000002300BF00BFD8B210BD00000300000421
:1010D0000003000800000310000100080001FFF7F2
:1010E0002DE9F04186B00546884616460024019554
:1010F000029500208DF80C008DF80D008DF80E6023
:1011000000BF06E018F804100DF10F000155601C37
:1011100084B2B442F6DB01A90D48FFF7FDFE074695
:10112000002401E0601C84B239460948FFF788FFBB
:10113000012803D040F6FF708442F3DB40F6FF70D5
:10114000844203DB012006B0BDE8F0810020FAE70D
:1011500000640040002001490860704790000020B2
:1011600010B51021074800F083FA012802D1064982
:10117000086003E01021034800F07AFA102000F024
:1011800079F810BD000801409000002010B5202023
:1011900000F076F878B12021114800F069FA0128B2
:1011A00002D11049086003E020210D4800F060FAE8
:1011B000202000F05FF8402000F062F878B1402174
:1011C000074800F055FA012802D10649086003E0FB
:1011D0004021034800F04CFA402000F04BF810BDCD
:1011E00000080140900000200EB50121084600F0E3
:1011F0001DFB0421002000F047F910200190002081
:101200008DF8080008208DF8090001208DF80A00EB
:1012100001A800F049F80521002000F035F9202050
:10122000019001A800F040F80621002000F02CF900
:101230004020019001A800F037F80A208DF8000046
:1012400002208DF8010001208DF802008DF80300C6
:10125000684600F089FA17208DF8000002208DF80A
:1012600001008DF8020001208DF80300684600F0AF
:101270007BFA0EBD0149086070470000140401406C
:10128000014600200022074B1B6803EA0102054BC0
:1012900014331B680B4013B10AB1012000E0002099
:1012A0007047000000040140002123498279002A90
:1012B0003AD00A46126803689A430B461A600A1D20
:1012C000126803689A430B1D1A60027911440A6878
:1012D00003681A430A60184A0832126803689A437E
:1012E000154B08331A601A1D126803689A43124B93
:1012F0000C331A604279102A0ED11A1F1268036843
:101300001A430D4B08331A601A1D126803681A43FA
:10131000094B0C331A600DE00749427911440A6801
:1013200003681A430A6005E0027911440A680368F9
:101330009A430A6070470000000401400149C860F8
:10134000704700000020024030B5044604254FF4E9
:10135000302000F085F80546042D17D10C480069AF
:1013600040F002000A49086108464461006940F003
:10137000400008614FF4302000F072F80546044840
:10138000006941F6FD71084001490861284630BDF9
:101390000020024004200B49C96801F0010109B195
:1013A00001200EE00749C96801F0040109B10220DB
:1013B00007E00449C96801F0100109B1032000E009
:1013C00004207047002002400348006940F080007C
:1013D00001490861704700000020024078B50646C8
:1013E0000C46042500200090E80200F039F805467C
:1013F000042D24D11348006940F00100114908610F
:101400003480E80200F02CF80546042D10D1B01C01
:101410000090200C00990880E80200F021F80546B1
:101420000848006941F6FE7108400649086106E077
:101430000448006941F6FE710840024908612846E7
:1014400078BD00000020024002480349486003487C
:10145000486070472301674500200240AB89EFCD0B
:1014600000B502460423FFF795FF034603E0FFF7AC
:1014700091FF0346521E012B01D1002AF7D102B978
:101480000523184600BD000030B500228B071C0F55
:101490000F2303FA04F20B4B8C1053F824309343C0
:1014A000084C8D1044F8253023468C1053F8243016
:1014B0008C07240F00FA04F42343024C8D1044F8E7
:1014C000253030BD080001402DE9F04102460025DD
:1014D0000026002000230024002791F803C00CF010
:1014E0000F0591F803C00CF0100CBCF1000F03D0F5
:1014F00091F802C04CEA050591F800C0BCF1000F5C
:1015000031D0146800202BE04FF0010C0CFA00F3EE
:10151000B1F800C00CEA03069E4220D183004FF0D0
:101520000F0C0CFA03F7BC4305FA03FC4CEA040465
:1015300091F803C0BCF1280F06D14FF0010C0CFA52
:1015400000FCC2F814C00AE091F803C0BCF1480FD7
:1015500005D14FF0010C0CFA00FCC2F810C0401C81
:101560000828D1D31460B1F800C0BCF1FF0F34DDFE
:10157000546800202EE000F1080C4FF0010808FA32
:101580000CF3B1F800C00CEA03069E4221D183009F
:101590004FF00F0C0CFA03F7BC4305FA03FC4CEABE
:1015A000040491F803C0BCF1280F05D100F1080C28
:1015B00008FA0CF8C2F8148091F803C0BCF1480F87
:1015C00007D100F1080C4FF0010808FA0CF8C2F836
:1015D0001080401C0828CED35460BDE8F081000084
:1015E000F0B50A46002300240021002500F0004643
:1015F000B6F1004F02D11D4EF16901E01B4E71683A
:10160000C0F3034583B200F44016B6F5401F08D17D
:1016100021F07061154E766826F07066134F7E607B
:1016200012E000F48016B6F5801F06D1032606FAF4
:1016300005F4A14341F0706106E0460D360103FA5E
:1016400006F6B14341F0706122B1460D360103FA4E
:1016500006F6314300F00046B6F1004F02D1034ECA
:10166000F16101E0014E7160F0BD00000000014039
:101670000246002093680B400BB1012000E00020DF
:101680007047416170470161704710B5002400BF89
:1016900003E0204600F004F8641C802CF9DB10BD48
:1016A00010B50446002004EB440101EBC4010E4ACE
:1016B00022F8210004EB440101EBC40102EB81019B
:1016C00081F8260004EB440101EBC40102EB810127
:1016D000888404EB440101EBC40102EB8101881C06
:1016E0002021FEF7DAFE10BD8401002010B5102184
:1016F0000A48FFF7BDFF01280BD020210748FFF75C
:10170000B7FF012805D040210448FFF7B1FF0128A9
:1017100002D101200249086010BD0000000801400C
:10172000900000204CF6CC40014908607047000052
:10173000003000404AF6AA200149086070470000C6
:101740000030004001494860704700000030004010
:10175000014988607047000000300040014908607E
:10176000704700000030004070B5002100230F22B8
:10177000C47804B3154C246804F4E064C4F5E06450
:10178000210AC1F10403CA40447804FA03F18478C1
:101790001440214309010E4C0678A155047804F049
:1017A0001F050124AC4005786D11AD0005F1E02561
:1017B000C5F8004109E0047804F01F050124AC409D
:1017C000044D0678761145F8264070BD0CED00E01A
:1017D00000E400E080E100E002490143024A1160B8
:1017E000704700000000FA050CED00E029B1064A40
:1017F000D2690243044BDA6104E0034AD2698243AE
:10180000014BDA61704700000010024029B1064A1E
:1018100012690243044B1A6104E0034A12698243CD
:10182000014B1A61704700000010024029B1064ABE
:1018300092690243044B9A6104E0034A926982432D
:10184000014B9A61704700000010024029B1064A1E
:10185000D2680243044BDA6004E0034AD268824350
:10186000014BDA60704700000010024030B50021E3
:101870000022002400232D4D6D6805F00C0121B1DC
:10188000042905D0082923D105E0294D056022E06F
:10189000274D05601FE0254D6D6805F47012234D3E
:1018A0006D6805F48034022505EB92421CB9214D88
:1018B000554305600BE01D4D6D6805F400351DB105
:1018C0001C4D5543056002E0194D5543056002E08B
:1018D000174D056000BF00BF144D6D6805F0F001A5
:1018E0000909154D6B5C0568DD4045600F4D6D685D
:1018F00005F4E061090A104D6B5C4568DD408560C8
:101900000A4D6D6805F46051C90A0B4D6B5C456862
:10191000DD40C560054D6D6805F44041890B074DFC
:101920006B5CC568B5FBF3F5056130BD0010024086
:1019300000127A0000093D0094000020A40000205D
:1019400010B501460022002300204A11012A02D1CD
:10195000094C236806E0022A02D1074C236A01E001
:10196000054C636A01F01F02012494401C400CB135
:10197000012000E0002010BD001002400149086075
:101980007047000080044242014800687047000030
:101990009000002070B50446A148006800B970BDF1
:1019A000A048006801281FD1FFF7EEFF01281AD1D7
:1019B000FFF7D0FB00209C4908609C48D0F81C032E
:1019C000000B9B4908609948B0F81C03C0F30B005A
:1019D0009849086001F066FA9749086091480068E4
:1019E000401C9049086018E18E48006802280ED11A
:1019F0009148006801F0D6FE8C49D1F81413884252
:101A0000F1D988480068401C8649086005E185488E
:101A1000006803281CD103F0BBF88548006820B992
:101A20000121864801F05AFA08E08148006801283F
:101A300004D101218148083001F050FA01F032FA56
:101A40007D49086077480068401C76490860E4E0FA
:101A500074480068042875D17748006801F0A2FE38
:101A6000A042C0D97248006880BB01F033FA054635
:101A700008227249FEF794FC60B901F013FA6E492E
:101A8000086000206849086066480068401C654995
:101A90000860C2E064480068401C6349086008466A
:101AA000006803280CDD01F0FDF96349086000209F
:101AB0005D4908605B480068401C5A490860ACE01A
:101AC00058480068401E57490860A6E0FFE758489C
:101AD0000068012832D101F0FDF905460822574976
:101AE0000831FEF75DFC60B901F0DCF9524908608D
:101AF00000204D4908604B480068401C4949086077
:101B00008BE049480068401C474908600846006867
:101B100003280CDD01F0C6F947490860002042495E
:101B2000086040480068401C3E49086075E03D4838
:101B30000068401E3B4908606FE003E0012039491E
:101B400008606AE03748006805280DD13A48006807
:101B500001F028FE3749096888425ED9314800689B
:101B6000401C3049086058E02E480068062810D113
:101B700003F00EF801213148083801F0AFF901F007
:101B800091F92D49086027480068401C25490860E4
:101B900043E024480068072833D12748006801F053
:101BA00001FEA04239D901F095F9054608222349E2
:101BB0000839FEF7F5FB40B900201B4908601948B9
:101BC0000068401C1749086027E017480068401C5F
:101BD000154908600846006803280CDD01F062F929
:101BE000154908600020104908600E480068401C34
:101BF0000C49086011E00B480068401E0949086064
:101C00000BE008480068082807D1FFF7A3FAFFF7A0
:101C1000BBFE10B901200349086000BFBFE6000009
:101C20001800002024000020280000208417002035
:101C300030000020340000202C000020CC000020C8
:101C400010B500F001F810BD0CB500200190009017
:101C50003348006840F480303149086000BF3048A4
:101C6000006800F4003000900198401C019000983A
:101C700018B90198B0F5A06FF1D12948006800F4B7
:101C8000003010B10120009001E000200090009889
:101C9000012843D12348006840F010002149086022
:101CA0000846006820F0030008600846006840F01D
:101CB000020008601A4840681949486008464068B0
:101CC00048600846406840F48060486008464068C4
:101CD00020F47C1048600846406840F4E8104860F2
:101CE0000846006840F08070086000BF0C4800683B
:101CF00000F000700028F9D00948406820F0030087
:101D0000074948600846406840F00200486000BF4C
:101D10000348406800F00C000828F9D10CBD000011
:101D2000001002400020024010B52748006898B11A
:101D30002648D0F81803264908600846006810B9FC
:101D400000F074F805E022480068012801D100F095
:101D500043F800201C490860FFF716FE012802D056
:101D60001B48006818B901F09DF81A490860174827
:101D7000D0F82403B0B11748006801F013FD1349EF
:101D8000D1F8241301EB4102C2EBC111B0EBC10F3A
:101D900008D900F04BF8FF200D49086001F082F8E7
:101DA0000C4908600A480068FF280CD1FFF7ECFDD9
:101DB000012808D100F010F801200549086001F061
:101DC00071F80449086010BD20000020841700202D
:101DD000180000201C0000207CB50020009001901D
:101DE00001F060F805460F480122D0F8B810203005
:101DF00001F085F800208DF8000008208DF8010022
:101E000000208DF8050008226946FFF769F90446AD
:101E1000FFF73BFC01200449086001F073FCFFF769
:101E200099F97CBDBC000020140000201CB50020E6
:101E3000009001908DF8000008208DF80100052029
:101E40008DF805000A49088808226946FFF748F915
:101E50000446FFF71AFC00200649086001210648E5
:101E600001F03CF8002001F04DFCFFF773F91CBDB8
:101E70008417002014000020C400002002480068DD
:101E8000401C0149086070478C00002010B51348C1
:101E9000006840F001001149086008464068104998
:101EA00008400E494860084600680E4908400B4942
:101EB00008600846006820F48020086008464068F2
:101EC00020F4FE0048604FF41F008860FFF7B8FE62
:101ED0004FF000600449086010BD0000001002408F
:101EE0000000FFF8FFFFF6FE08ED00E010B540F23D
:101EF00025510C4800F0E9F890B10A4800F0A0F92B
:101F0000C4B2094801680068401C074A10600748CD
:101F1000445410460068C82802D3C7201146086000
:101F200010BD0000004C004080000020B41E0020C6
:101F300010B540F225510C4800F0C7F890B10A489E
:101F400000F07EF9C4B2094801680068401C074AE5
:101F500010600748445410460068C82802D3BE20C9
:101F60001146086010BD00000038014058000020F4
:101F70005C1C002010B540F225510C4800F0A5F87B
:101F800090B10A4800F05CF9C4B2094801680068E1
:101F9000401C074A10600748445410460068C8288F
:101FA00002D3C7201146086010BD00000044004065
:101FB00070000020241D002010B540F225510C486F
:101FC00000F083F890B10A4800F03AF9C4B2094829
:101FD00001680068401C074A1060074844541046D6
:101FE0000068C82802D3C7201146086010BD000051
:101FF0000048004078000020EC1D002021B18289BB
:1020000042F40052828104E082894DF6FF731A4047
:102010008281704710B504462048844209D10121CD
:102020008803FFF713FC00214FF48040FFF70EFCFC
:1020300032E01B48844209D101214804FFF7E6FB46
:1020400000214FF40030FFF7E1FB25E01548844202
:1020500009D101218804FFF7D9FB00214FF480202A
:10206000FFF7D4FB18E01048844209D10121C804CD
:10207000FFF7CCFB00214FF40020FFF7C7FB0BE07C
:102080000A48844208D101210805FFF7BFFB00215F
:102090004FF48010FFF7BAFB10BD0000003801407C
:1020A0000044004000480040004C00400050004008
:1020B00002460020B1F5007F00D100BF13880B401D
:1020C0000BB1012000E00020704770B502460024EB
:1020D00000230025002040F66A16B14200D100BF5F
:1020E000C1F3421501F01F03012606FA03F3012D87
:1020F00002D19689334006E0022D02D1168A334080
:1021000001E0968A33400C12012606FA04F4168880
:10211000344013B10CB1012000E0002070BDF0B5D7
:102120000346002400260025002040F66A17B94225
:1021300000D100BF1846C1F3421401F01F06012769
:1021400007FA06F5012C01D10C3004E0022C01D174
:10215000103000E014301AB107682F43076002E026
:102160000768AF430760F0BD2DE9F04786B005462C
:102170000E460024A24600BFA1460027B08900B148
:1021800000BF2F462C8A4CF6FF700440F0880443B1
:102190002C82AC894EF6F3100440B0883189084394
:1021A000718908430443AC81AC8A4FF6FF40044078
:1021B000B0890443AC8201A8FFF758FB1F4887424F
:1021C00002D1DDF810A001E0DDF80CA0A88900F430
:1021D000004040B10AEBCA0000EB0A103168490028
:1021E000B0FBF1F807E00AEBCA0000EB0A10316817
:1021F0008900B0FBF1F86420B8FBF0F0040120097D
:10220000642101FB1089A88900F4004040B132200C
:1022100000EBC900B0FBF1F000F00700044308E058
:10222000322000EB09106421B0FBF1F000F00F0048
:1022300004432C8106B0BDE8F0870000003801405F
:1022400001468888C0F308007047C1F30802828005
:102250007047000000B585B06A4600211D48FEF7B2
:10226000E3FD9DF80C00732810D19DF80D00742833
:102270000CD19DF80E006F2808D19DF80F00702832
:1022800004D115480078154908601AE09DF80C0043
:10229000752816D19DF80D006E2812D19DF80E00FC
:1022A00073280ED19DF80F0074280AD19DF81000F4
:1022B0006F2806D19DF81100702802D1002007492F
:1022C00008609DF80A100DF10B00FEF797FA05B0B3
:1022D00000BD000000640040B81B00205400002036
:1022E00070B590B005460E4600240CE0601C1B49FA
:1022F00051F820004DF82400601CB5EB800F01D18F
:102300004DF82460641C102CF0DBFFF79DF834209E
:10231000FFF714F80120124908701048FFF714F86D
:102320000F49087008460078042810D10120087071
:1023300000240AE05DF82410621C084B03EB8200C5
:10234000FFF74CF806490870641C102CF2DB0120E2
:1023500003490870FFF738F810B070BD00F00008AE
:10236000880000207CB50546F8A103C9CDE900012D
:10237000F8480068002844D0F74890F820038DF80A
:10238000010001208DF8020004208DF80300F148BF
:1023900000788DF8040001208DF805008021EF48B9
:1023A000FEF79DF8ED48DDE9001206C00020EC497B
:1023B000086008E0EA480068FFF772F9E84800683A
:1023C000401CE7490860E64800688028F2DB0020EE
:1023D000E449086000F066FDE349086000BF00F0D2
:1023E00061FDE1490968401AB0F57A7FF7D3002012
:1023F000DE490860DE4908600120D749C1F80C03B6
:1024000072E3DA480068D0B9DA480078DA4908702F
:10241000022048700020D949087408460021016054
:102420004160CD4908880822D349FEF759FE00F0E3
:1024300039FDCD4908600120CC49086054E3CB4800
:10244000006801285ED100F02DFDC7490968401AD7
:10245000A842D5D9C948FEF701FA012832D1C748A8
:102460004078022848D1C5480078C24909688842A6
:1024700042D1C2484179C248BE4A126820F81210BF
:10248000BE48C178B4480C30BA4A126820F812101D
:10249000BA480179BB48B74A126820F81210B74809
:1024A000C07828B9B548007900F00200022823D18D
:1024B0000020A949C1F80C03AD480068401CAC4994
:1024C000086019E0FF21AE48AA4A126820F81210ED
:1024D000A0F50070A74A126820F81210A948A54A72
:1024E000126820F8121000209B49C1F80C03A04884
:1024F0000068401C9E4908609C480068401C9B493D
:102500000860F1E29948006802282BD19248D0F87F
:10251000200398490968884208D294480068401C02
:102520009249086002209349086007E091480068DA
:10253000401C9049086000208C4908608948006868
:102540000028DED000208D49087408460021016073
:102550004160FEF74BF902208649086064208349F8
:102560000860C1E28148006803287DD180217B4852
:10257000FDF7B5FF7848D0F80C03002860D10220A1
:1025800076490870744890F82003487078480078BD
:102590008870084680788006000EC87002240220E9
:1025A0006F49086043E076486D49096830F81100CA
:1025B00078B969480C306A49096830F8110040B9A7
:1025C00070486749096810F8110000F002000228FD
:1025D00028D163480178601E604A02F820106848DC
:1025E0005F49096810F81110601E012202EB80009B
:1025F0005A4A115458480C305949096810F81110BA
:10260000601E022202EB8000544A11545D48544976
:10261000096810F81110601E032202EB80004F4A77
:102620001154641C4E480068401C4D4908604A48DB
:10263000D0F82003801C4A4909688842B3D808E0D2
:10264000454890F820038DF801004448DDE9001268
:1026500006C046480068401C4449086000F022FC5F
:102660004149086040E2FFE740480068042827D15C
:102670003D48006801F096F841F28831884208D957
:1026800000203A4908603A49086001203249C1F8FF
:102690000C033448006880B10020354908600120EF
:1026A0002D49C1F80C030020344908740846002164
:1026B0000160416064202D490860FEF797F813E23D
:1026C0002A480068642840D12C48FEF7C7F8012842
:1026D00005D126480068401C2449086004E22148CE
:1026E000006818B9002021490860FDE11C48006815
:1026F00080287FDA1A48006800EB400101EBC00037
:10270000214931F8200000286EDD1548006800EBF3
:10271000400101EBC0001C4901EB8000808C0128C6
:102720003ADD0F49096801EB410202EBC101164A8B
:1027300002EB8101886A01F035F80749496888424F
:1027400024D9672009490860CEE157E0020000045F
:10275000000000005400002084170020DC1B002033
:1027600048000020140000203C0000203800002019
:1027700044000020400000204C000020B81B002036
:10278000901900209018002084010020D74800688C
:10279000401CD6490860A7E1D448006800EB40011E
:1027A00001EBC000D24901EB8000808C012886D16A
:1027B000CE49096801EB410202EBC101CC4A02EBB0
:1027C0008101886A00F0EEFFCA498968884205D90C
:1027D0006720C949086087E10CE005E0C34800684C
:1027E000401CC24908607FE1C0480068401CBF49E6
:1027F000086079E10020BD49086075E1BE480068C5
:1028000065287CD1BD48407801289DD1BC48002175
:10281000016041600020B5490860F6E0B3480068F7
:1028200000EB400101EBC000B14901EB8000818C5D
:10283000B2480078401E81426FD1B0480078AB4961
:10284000096801EB410202EBC101A94A02EB8101D7
:102850008884AA484079A549096801EB410202EB46
:10286000C101A34A02EB810181F8260000F01AFBA6
:102870009E49096801EB410202EBC1019C4A02EB4F
:10288000810188629948006800EB400101EBC000BB
:10289000114631F820109548006800EB400202EB29
:1028A000C000934A02EB8000808C401EB1EB400FC9
:1028B00034D18E48006800EB400101EBC0001146A6
:1028C00001EB800090F8260000F01000102803D1E2
:1028D0006820894908609DE087480068401C864957
:1028E000086000F0DFFA874908608048006800EB64
:1028F000400101EBC0007E4901EB800000E0BAE03E
:1029000090F824007E4908700820487000208870E4
:102910000120C870002048717CE071E073480068B5
:1029200000EB400101EBC000714931F82010491C57
:102930006E48006800EB400202EBC0006C4A02EBFC
:102940008000808C401EB1EB400F30D1674800689A
:1029500000EB400101EBC000114601EB800090F854
:10296000260000F02000202803D16820624908607A
:1029700050E061480068401C5F49086000F092FA2E
:10298000604908605948006800EB400101EBC00055
:10299000574901EB800090F824005949087008203D
:1029A0004870002088700120C870487132E04F489C
:1029B000006800EB400101EBC0004D4901EB8000D5
:1029C000818C4C48D0F82003401C814212D14748EA
:1029D000006800EB400101EBC000454931F82010D0
:1029E0004448D0F82003B1EB400F03D96820424996
:1029F00008600FE040480068401E3F49086009E059
:102A00003A480068401C3949086038480068802806
:102A1000FFF604AF00BF35480068802802D164206B
:102A2000354908603548C07840B93448007900F02D
:102A30000200022802D031484079A0B12D4890F818
:102A4000200331494870012088700420C8702B4849
:102A5000007808712948407948712848C078887101
:102A600026480079C87100202449087408460021CE
:102A70000160416038E020480068662816D121488E
:102A8000006800F08FFE1B49D1F8101388422BD943
:102A90001849088808221A49FEF722FB68201649BF
:102AA000086000F0FFF9174908601DE0124800684F
:102AB000672805D110480068401C0F49086013E0E2
:102AC0000D48006868280FD108480068FEF7E8FD47
:102AD0000E480068012804D90C480068401E0B49C4
:102AE00008606420044908607CBD000048000020A4
:102AF000840100208417002038000020B81B00202B
:102B00004C0000203C000020DC1B002014000020B2
:102B1000F0B502460E464FF6FF7015467DB1002413
:102B20000BE02B7880EA0301CFB2DFF820C03CF83D
:102B3000177087EA20206D1C641CB442F1D34FF655
:102B4000FF7707EA002100120843F0BD384E000865
:102B5000002008E0FF22054921F8102001F58071CE
:102B600021F81020401C8028F4DB704790170020CB
:102B70000649C86A411C19B10549C1F81C0304E0A3
:102B800041F2F411024AC2F81C13704700F0000829
:102B9000841700200649486B411C19B10549C1F84A
:102BA000140303E00021034AC2F814137047000025
:102BB00000F00008841700200649086B411C19B179
:102BC0000549C1F8240303E00021034AC2F8241395
:102BD0007047000000F00008841700200649886B49
:102BE000411C19B10549C1F8100303E00021034A53
:102BF000C2F810137047000000F00008841700208E
:102C00000549C869411C11B1044A108002E0012144
:102C1000024A11807047000000F00008841700206D
:102C20000649086A411C19B10549C1F8200303E0AF
:102C30000021034AC2F820137047000000F000088A
:102C4000841700200549486A411C11B104494860B5
:102C500003E040F2DC51024A5160704700F0000886
:102C6000841700200549886A411C11B10449886015
:102C700003E041F28831024A9160704700F0000899
:102C80008417002000B500F01BF800F0F9F800F000
:102C9000AFF800F0E3F800F0BBF800F0CBF8FFF776
:102CA000AFFFFFF7BDFFFFF7CDFFFFF7DBFFFFF73C
:102CB00083FFFFF75DFFFFF76DFFFFF78FFF00BD9D
:102CC00006494868411C19B10549C1F8180303E0D9
:102CD0000021034AC2F818137047000000F00008F2
:102CE0008417002010B5C8B04FF4807108A8FDF714
:102CF000F6FB2B4880682A494968294AD2F82023E4
:102D0000274B1B88CDE90432CDE906102548D0F8C1
:102D1000D0002449D1F8CC10224AD2F8C820224B46
:102D20001B88CDE90032CDE902102048D0F8B83038
:102D30001B481F49D0F8182308A8FDF775FA08A802
:102D4000FDF75AFB0446214608A801F005FF4FF4A1
:102D5000807108A8FDF7C3FB1148D0F81003104993
:102D6000D1F814130E4AD2F82423CDE900210290A1
:102D70000B48B0F81C03C0F30B030948D0F81C0340
:102D8000020B0CA108A8FDF74FFA08A8FDF734FBC9
:102D90000446214608A801F0DFFE48B010BD00003F
:102DA00084170020AC1A002000000020BC00002086
:102DB00038500008636172315F6469723D25642C8C
:102DC000636172315F52756E74696D653D25642C67
:102DD000536C65657054696D653D25642C7169722D
:102DE00064743D25642C71776964743D256400002A
:102DF0000549C868411C11B1044A108003E044F63B
:102E00002061024A1180704700F000080000002095
:102E100006494869411C19B10549C1F8CC0003E0D5
:102E20003221034AC2F8CC107047000000F00008BD
:102E3000AC1A002006498869411C19B10549C1F83E
:102E4000D00003E00449034AC2F8D01070470000E4
:102E500000F00008AC1A0020A862040006490869C6
:102E6000411C19B10549C1F8C80004E040F2DC5129
:102E7000024AC2F8C810704700F00008AC1A0020DF
:102E800006498868411C19B10549C1F8B80004E039
:102E900040F21451024AC2F8B810704700F000081E
:102EA000BC00002001480068704700008C00002032
:102EB000004870475C1C002004480068012802D1CB
:102EC0000348006870470020FCE700006000002015
:102ED0005800002000487047241D002070B50446AB
:102EE0000D46257006212046FFF712FE0646300AE1
:102EF000A071E6710821204601F0B4FE70BDF0B566
:102F000085B004460D46164614216846FDF7E7FADB
:102F10002670280A2071657106212046FFF7F8FD0A
:102F200007463812A071E7710821204601F09AFE89
:102F300005B0F0BD2DE9F041002400250022114626
:102F40006148FFF7DCFFFFF7ADFF064600BFFFF764
:102F5000A9FF801BB0F5FA6FF9D3B0E05CB901F0BE
:102F600017FE012158486838FFF7B8FFFFF79AFFAE
:102F700006460124A3E0012C18D1FFF793FF801B24
:102F80001E28EAD9FFF7A6FF074608224E496839EE
:102F9000FDF706FA10B90025022490E0032D02DAAD
:102FA0006D1C00248BE00025022488E0022C0ED149
:102FB00001F0EEFD0324444870380122D0F8B81027
:102FC0002030FFF79CFFFFF76DFF064677E0032CEC
:102FD00018D1FFF767FF801B1E2870D9FFF77AFF13
:102FE0000746082238495039FDF7DAF910B90025AB
:102FF000042464E0032D02DA6D1C02245FE0002546
:1030000004245CE0042C0CD101F0C2FD0122052156
:103010002D484838FFF773FF0524FFF743FF0646A6
:103020004DE0052C18D1FFF73DFF801B1E2846D927
:10303000FFF750FF0746082223494839FDF7B0F94A
:1030400010B9002506243AE0032D02DA6D1C042491
:1030500035E00025062432E0062C0CD101F098FD65
:103060000122052118484038FFF749FF0724FFF7E0
:1030700019FF064623E0072C18D1FFF713FF801B2A
:103080001E281CD9FFF726FF074608220E494039A3
:10309000FDF786F910B90025642410E0032D02DA4B
:1030A0006D1C06240BE00025642408E0642C06D186
:1030B00000F076FE01F06CFD01F004FE00E04DE74B
:1030C00000BFBDE8F08100002C0100202DE9F04197
:1030D00000250024002693E254B901F059FD08218F
:1030E000FA4801F0BFFDFFF7DDFE0646012487E246
:1030F000012C17D1304600F055FB3228EBD9FFF7F1
:10310000E9FE07460822F149FDF74AF910B1641CAF
:10311000002575E2032D02DA6D1C641E70E2641C4A
:1031200000256DE2022C0BD101F032FD0821E748A9
:10313000083001F097FDFFF7B5FE0646641C5FE21C
:10314000032C18D1304600F02DFB3228C3D9FFF7ED
:10315000C1FE07460822DD490831FDF721F910B10B
:10316000641C00254CE2032D02DA6D1C641E47E24C
:10317000641C002544E2042C0CD101F009FDD34865
:10318000D0F8CC10103000F0CEFCFFF78BFE0646D6
:10319000641C35E2052C18D1304600F003FB3228C0
:1031A00099D9FFF797FE07460822C8491031FDF765
:1031B000F7F810B1641C002522E2032D02DA6D1C21
:1031C000641E1DE2641C00251AE2062C0CD101F0DD
:1031D000DFFCBE48D0F8CC10183000F0A4FCFFF79C
:1031E00061FE0646641C0BE2072C18D1304600F045
:1031F000D9FA32288DD9FFF76DFE07460822B34968
:103200001831FDF7CDF810B1641C0025F8E1032D4D
:1032100002DA6D1C641EF3E1641C0025F0E1082C49
:103220000BD101F0B5FC0821A848203001F01AFDAF
:10323000FFF738FE0646641CE2E1092C18D130463F
:1032400000F0B0FA32288DD9FFF744FE0746082275
:103250009E492031FDF7A4F810B1641C0025CFE190
:10326000032D02DA6D1C641ECAE1641C0025C7E14F
:103270000A2C0BD101F08CFC08219448283001F075
:10328000F1FCFFF70FFE0646641CB9E10B2C18D1C8
:10329000304600F087FA32288ED9FFF71BFE07462A
:1032A00008228A492831FDF77BF810B1641C0025FB
:1032B000A6E1032D02DA6D1C641EA1E1641C002549
:1032C0009EE10C2C0BD101F063FC08217F483030CB
:1032D00001F0C8FCFFF7E6FD0646641C90E10D2CEA
:1032E00018D1304600F05EFA32288FD9FFF7F2FD90
:1032F0000746082275493031FDF752F810B1641CB9
:1033000000257DE1032D02DA6D1C641E78E1641C4A
:10331000002575E10E2C0BD101F03AFC08216B4819
:10332000483001F09FFCFFF7BDFD0646641C67E1D5
:103330000F2C18D1304600F035FA32288FD9FFF71C
:10334000C9FD0746082261494831FDF729F810B147
:10335000641C002554E1032D02DA6D1C641E4FE14C
:10336000641C00254CE1102C0BD101F011FC08214C
:103370005648503001F076FCFFF794FD0646641C79
:103380003EE1112C18D1304600F00CFA32288FD9CA
:10339000FFF7A0FD074608224C495031FDF700F821
:1033A00010B1641C00252BE1032D02DA6D1C641E94
:1033B00026E1641C002523E1122C0BD101F0E8FB6F
:1033C00008214248583001F04DFCFFF76BFD0646DE
:1033D000641C15E1132C18D1304600F0E3F93228B3
:1033E0008FD9FFF777FD0746082238495831FCF797
:1033F000D7FF10B1641C002502E1032D02DA6D1C19
:10340000641EFDE0641C0025FAE0142C0BD101F0D1
:10341000BFFB08212D48603001F024FCFFF742FD7E
:103420000646641CECE0152C18D1304600F0BAF9C1
:1034300032288FD9FFF74EFD074608222349603115
:10344000FCF7AEFF10B1641C0025D9E0032D02DAB1
:103450006D1C641ED4E0641C0025D1E0162C0BD139
:1034600001F096FB08211948703001F0FBFBFFF7D3
:1034700019FD0646641CC3E0172C18D1304600F035
:1034800091F932288FD9FFF725FD074608220F4909
:103490007031FCF785FF10B1641C0025B0E0032DEE
:1034A00002DA6D1C641EABE0641C0025A8E0182C39
:1034B0000ED101F06DFB08210448683001F0D2FB09
:1034C000FFF7F0FC0646641C9AE00000AC1A0020EE
:1034D000192C17D1304600F065F9322809D9FFF7C9
:1034E000F9FC074608224849FCF75AFF10B1641C52
:1034F000002585E0032D02DA6D1C641E80E0641C4B
:1035000000257DE01A2C0BD101F042FB08213E483A
:10351000103001F0A7FBFFF7C5FC0646641C6FE006
:103520001B2C18D1304600F03DF9322868D9FFF73E
:10353000D1FC0746082234491031FCF731FF10B1A5
:10354000641C00255CE0032D02DA6D1C641E57E04C
:10355000641C002554E01C2C0BD101F019FB002148
:103560002948203000F07BF9FFF79CFC0646641CDC
:1035700046E01D2C18D1304600F014F932283FD90E
:10358000FFF7A8FC074608221F492D31FCF708FF6A
:1035900010B1641C002533E0032D02DA6D1C641E9B
:1035A0002EE0641C00252BE01E2C0BD101F0F0FA5C
:1035B00008211548553001F055FBFFF773FC06460E
:1035C000641C1DE01F2C18D1304600F0EBF83228A7
:1035D00016D9FFF77FFC074608220B495531FCF747
:1035E000DFFE10B1641C00250AE0032D02DA6D1C19
:1035F000641E05E0641C002502E0202C00D100E0E0
:103600006AE500BFBDE8F081141B002008B5012168
:103610000420FEF70BF97020ADF8000048208DF86B
:10362000030069460148FDF74FFF08BD000801404F
:1036300008B54FF4A060FEF7CFF862B62E480068D8
:103640004FF47A72B0FBF2F1481EB0F1807F00D3E4
:103650001BE0481E4FF0E022506150170F22002857
:1036600007DA13071D0E254B00F00F04241F1D550C
:1036700003E013071C0E224B1C5400BF00204FF028
:10368000E02290610720106100BF4FF4165000F057
:1036900099FB4FF4165001F08DFA4FF4964001F06B
:1036A00023FBFFF7B3FFFFF7EDFAFDF79DFDFDF7F5
:1036B000ECFF00F04BFA00F037F800F0E7F8FFF706
:1036C00047FAFFF737FC0020034602460146009008
:1036D0000A20FDF741FA0EE0FEF708F8052000F099
:1036E0000FFB00F0C3FBFEF71FFB6420FEF73AFE62
:1036F0003220FEF74FF9EFE7A800002018ED00E0B8
:1037000000E400E010B50446012C04D1082105486E
:10371000FDF7B9FF04E01CB908210248FDF7B1FF2D
:1037200010BD0000000C014008B501210820FEF783
:103730007DF80820ADF8000010208DF8030001206E
:103740008DF8020069460448FDF7BEFE08210248D4
:10375000FDF797FF08BD0000000C01400A210EA0F4
:1037600001F0FAF945F25550FDF7F8FF0320FDF797
:10377000E9FF4FF47A70FDF7EBFFFDF7DBFFFDF794
:10378000D1FF0120FEF7FAF800BF6120FEF7D8F85C
:103790000028FAD000BFFEE73A72657365742E2EDA
:1037A0002E0D0A0000B50146FFF77CFB401A00BD54
:1037B00008B501210920FEF739F801210B48FDF772
:1037C0000FFF4FF48040ADF8000010208DF803008B
:1037D00001208DF8020069460548FDF775FE4FF49B
:1037E00080410348FDF74DFF08BD00000002300096
:1037F000000C014008B501210920FEF717F801214E
:103800000B48FDF7EDFE4FF40040ADF8000010202E
:103810008DF8030001208DF8020069460548FDF788
:1038200053FE4FF400410348FDF72BFF08BD000095
:1038300000023000000C014070B504460D46280A15
:103840002071657106212046FFF762F90646300AAD
:10385000A071E6710821204601F0A0FA70BD70B594
:1038600004460D46280E6072280CA072280AE071EA
:1038700025720B212046FFF74BF90646300AE0720D
:1038800026730D21204601F0EDF970BD00B5B3B0EF
:1038900066A30FCBCDE93123CDE92F0167A103C981
:1038A000CDE92D0167A103C9CDE92B0167A103C9AA
:1038B000CDE9290167A103C9CDE9270167A103C9A2
:1038C000CDE92501674903C9CDE9230166A103C9F3
:1038D000CDE9210166A103C9CDE91F0166A103C994
:1038E000CDE91D0166A103C9CDE91B0166A103C98C
:1038F000CDE9190166A103C9CDE9170166A103C984
:10390000CDE9150166A103C9CDE9130166A103C97B
:10391000CDE9110166A103C9CDE90F0166A103C973
:10392000CDE90D0166A103C9CDE90B0166A103C96B
:10393000CDE9090166A103C9CDE9070166A103C963
:10394000CDE9050166A103C9CDE9030166A103C95B
:10395000CDE901010D222FA96548FCF76CFD6448F3
:103960000838DDE92D1206C08838DDE92B12C0E9E0
:103970001E129530299901602A9941609538DDE938
:10398000271206C00838DDE92512C0E90212DDE978
:103990002312C0E90412DDE92112C0E90612DDE9B3
:1039A0001F12C0E90812DDE91D12C0E90A12DDE9A3
:1039B0001B12C0E90C12DDE91912C0E90E12DDE993
:1039C0001712C0E91012DDE91512C0E91212DDE983
:1039D0001312C0E91412DDE91112C0E91612DDE973
:1039E0000F12C0E91812DDE90D12C0E91A12DDE963
:1039F0000B12C0E91C129D30099901600A994160BF
:103A00000830079901600899416008300599016004
:103A100006994160083003990160049941600830BB
:103A2000019901600299416033B000BD0110016845
:103A300000020486A00001111B0000000106000125
:103A4000000119CA0106019001F4880C01100168F7
:103A50000002C1E8010600020003680B0106000431
:103A60000000C80B304E000801100050000241D980
:103A7000010600900001482701060094000109E6B4
:103A800001060096000069E6010600800000982CFF
:103A9000010600810001982C010600840004C82062
:103AA000010600850014982C010600860011A82F3D
:103AB000010600870010382F010601A000FFC8543E
:103AC0000106008F000179E1010601A400024814FB
:103AD0000103047800010523010601A40001081573
:103AE000010601A40000C9D5010601A70801FFD500
:103AF000341B00202DE9F04104460D461646280AE5
:103B0000A070E570300A2071667106212046FEF72C
:103B1000FFFF0746380AA071E7710821204601F02F
:103B2000A1F8BDE8F08170B504460D46280A207161
:103B3000657106212046FEF7EBFF0646300AA071AC
:103B4000E6710821204601F08DF870BD9FB04CA0B1
:103B500000681E904BA003C8CDE91C014BA103C90E
:103B6000CDE91A014BA103C9CDE918014BA003C847
:103B7000CDE916014BA0006815904BA00068149089
:103B80004AA103C9CDE912014AA103C9CDE9100137
:103B90004AA103C9CDE90E014AA103C9CDE90C012F
:103BA0004AA103C9CDE90A014AA103C9CDE9080127
:103BB0004AA103C9CDE906014AA103C9CDE904011F
:103BC0004AA103C9CDE902014AA103C9CDE9000117
:103BD0004A481E9901601C998160BDF8741081816A
:103BE00018990161BDF8641081821A998161BDF84C
:103BF0006C10818316990162BDF85C10818415995F
:103C000081621499016312998163BDF84C10818718
:103C100010990164BDF84410A0F844108030009958
:103C20000161BDF80410818204998160BDF814100F
:103C3000818102990160BDF80C10818080380A9959
:103C40008164BDF82C10A0F84C1006990167BDF8EE
:103C50001C10A0F8741008998165BDF82410A0F814
:103C60005C100E990165BDF83C10A0F854100C9939
:103C70008166BDF83410A0F86C101FB070470000CA
:103C800000062008010620000005000001062000B3
:103C900000010000010620000002000001062001D2
:103CA00005DC0000010620030106200401032003B7
:103CB00000010000010320040001000001062000B3
:103CC0000007000001062009000300000103210491
:103CD0000001000001032001000100000006200B8C
:103CE0000005000000062002000200000006200679
:103CF000000200000006200A00010000BC000020B5
:103D000010B504462148006888B921480068002899
:103D10003BD0FFF7C7F81F4908601D4800681E49DF
:103D200008601A480068401C184908602DE01748D0
:103D3000006801281FD116480068174909688842A1
:103D400007D01348006814490860FFF7ABF8114921
:103D5000086010480068FFF725FDA04215D9012032
:103D60000E49086009480068401C084908600020A6
:103D70000949086009E005480068022805D107489C
:103D8000006810B900200149086010BD64000020DF
:103D900058000020680000206C0000206000002017
:103DA00010B5C8210448FCF778FB002003490860DF
:103DB0000349086010BD00005C1C00205800002072
:103DC0006000002010B586B00446012144F20500D1
:103DD000FDF72CFD2348FEF71DF94FF40070ADF8F8
:103DE000140001208DF8160018208DF8170005A981
:103DF0001D48FDF769FB4FF48060ADF81400042006
:103E00008DF8170005A91848FDF75EFB0194002006
:103E1000ADF80800ADF80A00ADF80C00ADF81000E0
:103E20000C20ADF80E0001A90E48FEF79DF92520E3
:103E30008DF8000003208DF8010001208DF80200AC
:103E40008DF803006846FDF78FFC012240F22551F2
:103E50000448FEF764F901210248FEF7CFF806B0E6
:103E600010BD000000380140000801402DE9FE436C
:103E7000FFF722F88046B8F1000F76D0FFF718F868
:103E800004460322FEA12046FCF78AFA00284BD103
:103E9000E0780006217940EA0140617940EA01209A
:103EA000A17940EA0107002F3DDDF6480068D0B354
:103EB000002600BF2AE006EB460000EBC600F249F0
:103EC00031F8200008BB06EB460101EBC601EE4AC3
:103ED00022F82170012006EB460101EBC60102EB3E
:103EE00081018884032006EB460101EBC60102EB49
:103EF00081014884FEF7D6FF06EB460101EBC601BF
:103F0000E14A02EB8101886202E0761C802ED2DB5E
:103F100000BFDC480068401CDA4908600221DBA0D1
:103F200000F01AFE00BFB5E20422D9A12046FCF73A
:103F300037FAD8B9D8A103C9CDE900010A2202A9EC
:103F4000201DFCF7F5F906460A2200210298001D03
:103F5000FCF7EEF907463A4631466846FFF7CAFDD8
:103F60000321CFA000F0F8FDDDE7F3E30922CDA1A6
:103F70002046FCF715FA88B90A2202A904F10A00C2
:103F8000FCF7D6F9CA490880084601881C20FEF7CC
:103F9000A7F90321C2A000F0DFFDC4E70522C5A1F7
:103FA0002046FCF7FDF940B90821C44800F05AFE4C
:103FB0000321BBA000F0D0FDB5E70422C0A120463C
:103FC000FCF7EEF948B90821BC48083000F04AFE79
:103FD0000321B3A000F0C0FDA5E70822BAA1204646
:103FE000FCF7DEF970B90A2202A904F10800FCF717
:103FF0009FF9B249AD39C1F8D0000321A8A000F063
:10400000ABFD90E70A22B3A12046FCF7C9F998B9A5
:104010000A22002104F10A00FCF78AF9A749AD3908
:10402000C1F8C80029B2A5483538FFF705FC0321BF
:104030009BA000F091FD76E70B22A9A12046FCF79A
:10404000AFF9D8B90A22002104F10B00FCF770F98E
:104050009A49AD39C1F8CC000846D0F8CC101030E0
:10406000FFF761FD9548AD38D0F8CC101830FFF758
:104070005AFD03218AA000F06FFD54E705229BA1A1
:104080002046FCF78DF9B0B90A2202A9601DFCF7A1
:104090004FF9984908700A2200210298401CFCF749
:1040A00047F9054629469348FFF73DFD03217CA0CB
:1040B00000F052FD37E70A228FA12046FCF770F985
:1040C000C8B90A22002104F10A00FCF731F90546BB
:1040D0008848C0F8B850012229462030FEF70FFF6B
:1040E0008448D0F8B8100820FEF7FAF803216CA035
:1040F00000F032FD17E7062282A12046FCF750F9B6
:1041000070B9A0796A49C1F820030846D0F8201395
:104110002020FEF7E5F8032161A000F01DFD02E775
:1041200007227AA12046FCF73BF940B97948FCF711
:1041300063F906463146774800F00EFDF3E60A22A1
:1041400075A12046FCF72CF910B9FEF7CBFDEAE685
:10415000092274A12046FCF723F988B90A2200211C
:1041600004F10900FCF7E4F8714908800846018869
:104170000C20FEF7B5F8032149A000F0EDFCD2E6D3
:1041800006226CA12046FCF70BF950B96B48007869
:104190006B4908700846C078011D694800F0DCFCD6
:1041A000C1E6062267A12046FCF7FAF820BB0020F2
:1041B00001900290A0798DF8040008208DF8050088
:1041C00020208DF8060008208DF80700E0798DF892
:1041D000090037490888082201A9FCF781FF064633
:1041E000012E04D10C2159A000F0B6FC03E00321FC
:1041F0002BA000F0B1FC96E6052258A12046FCF762
:10420000CFF830BB0020019002908DF80400082008
:104210008DF8050069208DF806006E208DF80700E6
:1042200069208DF8080074208DF80900204908885D
:10423000082201A9FCF754FF0646012E04D10C21E7
:1042400042A000F089FC03E0032115A000F084FCEB
:1042500069E6052243A12046FCF7A2F870B90020C8
:10426000019002908DF8040008208DF805000120CF
:104270008DF8070000208DF8090077E08BE0000042
:1042800077696E0014000020840100206F6B00002D
:10429000616464720000000001060000000000007C
:1042A0006F6B0D006465766963655F69640000008B
:1042B000841700207374617274000000591B002081
:1042C00073746F7000000000706F735F7365743DEE
:1042D00000000000706F735F73706565643D0000DF
:1042E000706F735F616474696D653D0073657469B7
:1042F00064000000BC0000206361725F737065653C
:10430000643D0000716D61786964000076657273C8
:10431000696F6E0002000020726561645F666C6107
:10432000736800006361725F7469636B3D00000035
:104330000000002071636865636B000018000020B6
:10434000DC1B0020717365746964000073656E6422
:10435000206661696C65640D0000000071696E691A
:10436000740000007173657731000000FA49088815
:10437000082201A9FCF7B4FE0646012E05D10C2146
:10438000AFF2380000F0E8FB04E00321AFF2F000E8
:1043900000F0E2FB87E30522F0A12046FCF700F8DD
:1043A00008BB0020019002908DF8040008208DF8D1
:1043B000050001208DF807008DF80900E6490888FE
:1043C000082201A9FCF78CFE0646012E05D10C211E
:1043D000AFF2880000F0C0FB04E00321AFF2401010
:1043E00000F0BAFB5FE30722DEA12046FBF7D8FF0F
:1043F00028BB0020019002908DF8040008208DF861
:10440000050000208DF8060001208DF8070005202A
:104410008DF80900D0490888082201A9FCF760FE40
:104420000646012E05D10C21AFF2E00000F094FB0E
:1044300004E00321AFF2981000F08EFB33E3072273
:10444000CAA12046FBF7ACFF28BB002001900290D8
:104450008DF8040008208DF8050000208DF8060076
:1044600001208DF8070003208DF80900BA4908885B
:10447000082201A9FCF734FE0646012E05D10C21C5
:10448000AFF2381000F068FB04E00321AFF2F01047
:1044900000F062FB07E30522B6A12046FBF780FF90
:1044A00018BB00200190029060798DF8040008206C
:1044B0008DF8050050208DF80700A0798DF80900CF
:1044C000A5490888082201A9FCF70AFE0646012E24
:1044D00005D10C21AFF28C1000F03EFB04E003216B
:1044E000AFF2442000F038FBDDE20522A3A1204614
:1044F000FBF756FF78BB002001900290A07961790C
:1045000040EA012500208DF8040008208DF8050000
:1045100001208DF8060090208DF80700280A8DF8FC
:104520000800E8B28DF809008B490888082201A923
:10453000FCF7D6FD06469348C0F8C850D0F8C8101E
:104540001020FDF7CDFE012E06D10C21AFF2042084
:1045500000F002FB05E005E00321AFF2BC2000F013
:10456000FBFAA0E2032288A12046FBF719FF78BBE3
:104570000020019002900A220021E01CFBF7D8FEE7
:10458000054600208DF8040008208DF80500012064
:104590008DF8060068208DF80700280E8DF80800B9
:1045A000280C8DF80900280A8DF80A00E8B28DF869
:1045B0000B0069490888082201A9FCF791FD06460D
:1045C000012E06D10C21AFF27C2000F0C5FA05E0E7
:1045D00005E00321AFF2383000F0BEFA63E20522B5
:1045E0006AA12046FBF7DCFEB8B9A079617940EA00
:1045F00001256848C0F8B850012229462030FEF74E
:104600007EFC6448D0F8B8100820FDF769FE03214D
:10461000AFF2743000F0A0FA45E204225EA1204619
:10462000FBF7BEFE68BB0020019002906079217903
:1046300040EA012500208DF8040008208DF80500CF
:1046400020208DF8060001208DF80700280A8DF83B
:104650000800E8B28DF809003F490888082201A93E
:10466000FCF73EFD0646012E05D10C21AFF22430A9
:1046700000F072FA04E00321AFF2DC3000F06CFAD3
:1046800011E20522AFF22C312046FBF789FE40BB38
:104690000020019002908DF8040008208DF805009C
:1046A00069208DF806006E208DF8070069208DF8CE
:1046B000080074208DF8090027490888082201A9FC
:1046C000FCF70EFD0646012E05D10C21AFF2843019
:1046D00000F042FA04E00321AFF23C4000F03CFA63
:1046E000E1E104222EA12046FBF75AFE48B9012140
:1046F0000420FDF7F5FD0321AFF25C4000F02CFA39
:10470000D1E1072228A12046FBF74AFE48B9002143
:104710000420FDF7E5FD0321AFF27C4000F01CFA18
:10472000C1E1052222A12046FBF73AFE98B9A07903
:10473000617940EA01200849C1F814030846D0F81D
:1047400014133420FDF7CCFD0321AFF2AC4000F090
:1047500003FAA8E1A9E12FE08417002071736577BF
:104760003200000071736573746F7000717365734C
:104770007461720071736561640000007173657328
:1047800070000000AC1A0020706F730071736373C7
:1047900070000000BC000020716373700000000016
:1047A000717365746F6E0000717365746F66660077
:1047B00071697264740000000522BDA12046FBF7F8
:1047C000EFFD90B9A079617940EA0120BA49C1F8BA
:1047D00010030846D0F810133820FDF781FD03219F
:1047E000AFF2445000F0B8F95DE10522B3A12046D4
:1047F000FBF7D6FD50B9FDF7EFFA0120B14908608B
:104800000321AFF2645000F0A7F94CE10522AEA1FC
:104810002046FBF7C5FD78BB0020019002908DF883
:10482000040008208DF8050001208DF80900A24938
:104830000888082201A9FCF753FC0646012E05D181
:104840000C21AFF2F84000F087F904E00321AFF249
:10485000B05000F081F9FCF718FF01209C49086076
:104860000220984908600120FEF74CFF0321AFF2B7
:10487000D05000F071F916E1FFE7052295A120461E
:10488000FBF78EFD50B9FDF7D1FA00208D49086085
:104890000321AFF2F45000F05FF904E106228FA18A
:1048A0002046FBF77DFD40B90120FEF72BFF0321D9
:1048B000AFF2146000F050F9F5E0062289A120461D
:1048C000FBF76EFD40B90020FEF71CFF0321AFF29D
:1048D000306000F041F9E6E0052284A12046FBF7B4
:1048E0005FFD90B9A079617940EA01207249C1F871
:1048F0001C030846D0F81C132C20FDF7F1FC032103
:10490000AFF2646000F028F9CDE0042279A12046DE
:10491000FBF746FD90B9A079617940EA012066492C
:10492000C1F824030846D0F824133020FDF7D8FC42
:104930000321AFF2946000F00FF9B4E006226FA1FA
:104940002046FBF72DFD98B90A2202A9A01DFBF70E
:10495000EFFC06466B490E700A2200210298401CAB
:10496000FBF7E6FC074639466648FFF7DCF89AE0B5
:10497000052265A12046FBF713FD48B908216448CC
:1049800000F070F90321AFF2E86000F0E5F88AE08A
:10499000052260A12046FBF703FD80B9A07961796B
:1049A00040EA012044494860084641682420FDF758
:1049B00097FC0321AFF2187000F0CEF873E00522E7
:1049C00056A12046FBF7ECFC80B9A079617940EA5A
:1049D000012039498860084681682820FDF780FC5D
:1049E0000321AFF2447000F0B7F85CE005224DA15E
:1049F0002046FBF7D5FC50B9012142481830FEF79C
:104A00006DFA0321AFF2687000F0A6F84BE00522C2
:104A100046A12046FBF7C4FC50B9012139481030AB
:104A2000FEF75CFA0321AFF2887000F095F83AE0E7
:104A3000052240A12046FBF7B3FC50B901213148C3
:104A40000830FEF74BFA0321AFF2AC7000F084F8A7
:104A500029E0092239A12046FBF7A2FC10B9FEF794
:104A600035FB20E0052238A12046FBF799FCD0B9A0
:104A700037A103C9CDE901010F490888082201A91E
:104A8000FCF72EFB0646012E05D10C21AFF2447037
:104A900000F062F804E00321AFF2FC7000F05CF873
:104AA000FEF75CFE00BFFFF77BF9BDE8FE83000068
:104AB000717769647400000084170020716361726B
:104AC000660000001800002071636172620000003F
:104AD00014000020716361727300000071636172E1
:104AE000326600007163617232730000716361723B
:104AF0003100000071736C70000000007365745F1A
:104B000069640000BC000020636C65616E000000F9
:104B1000491B00207174696D650000006674696D41
:104B20006500000074636172660000007463617266
:104B3000620000007463617273000000696E697442
:104B4000536572766F000000726573657400000033
:104B5000000872657365740070B506460C46002542
:104B6000002C00DC70BD00250BE0715D0748FDF7EF
:104B70006CFB00BF80210548FDF79AFA0028F9D0A8
:104B80006D1CA542F1DB00BFECE7000000380140DE
:104B900010B5C8210448FBF780FC002003490860D9
:104BA0000349086010BD0000241D00207000002093
:104BB0007400002010B586B0044601214804FCF7BB
:104BC00015FE01210520FCF731FE2448FDF722FAED
:104BD0000420ADF8140001208DF8160018208DF87F
:104BE000170005A91E48FCF76FFC0820ADF814005B
:104BF00004208DF8170005A91948FCF765FC0194FD
:104C00000020ADF80800ADF80A00ADF80C00ADF8D2
:104C100010000C20ADF80E0001A91048FDF7A4FA11
:104C200026208DF8000003208DF8010002208DF869
:104C3000020001208DF803006846FCF795FD012273
:104C400040F225510548FDF76AFA01210348FDF7B6
:104C5000D5F9FEF7CFFD06B010BD000000440040BE
:104C60000008014070B506460C460025002C00DC0B
:104C700070BD4FF400411048FCF705FD642000F0C2
:104C8000BBF800250BE0715D0C48FDF7DEFA00BFB4
:104C900080210A48FDF70CFA0028F9D06D1CA542C6
:104CA000F1DB0748008800F0A7F84FF40041024804
:104CB000FCF7E7FC00BFDBE7000C014000440040CC
:104CC0000000002010B5C8210448FBF7E6FB0020D7
:104CD000034908600349086010BD0000B41E0020AD
:104CE000800000208400002010B586B00446012119
:104CF000C804FCF77BFD01211120FCF797FD254836
:104D0000FDF788F94FF48060ADF8140001208DF8AC
:104D1000160018208DF8170005A91F48FCF7D4FBD2
:104D20004FF40060ADF8140048208DF8170005A975
:104D30001948FCF7C9FB01940020ADF80800ADF854
:104D40000A00ADF80C00ADF810000C20ADF80E0014
:104D500001A91048FDF708FA34208DF8000003205F
:104D60008DF8010004208DF8020001208DF8030069
:104D70006846FCF7F9FC012240F225510548FDF791
:104D8000CEF901210348FDF739F9FEF711FD06B010
:104D900010BD0000004C00400010014070B50646F8
:104DA0000C460025002C00DC70BD642000F024F8C7
:104DB0004FF480410E48FCF766FC00250BE0715D66
:104DC0000C48FDF742FA00BF80210A48FDF770F950
:104DD0000028F9D06D1CA542F1DB40F6C41000F0AC
:104DE0000BF84FF480410248FCF74BFC00BFDBE7B7
:104DF000000C0140004C0040002100E0491C8142B1
:104E0000FCDB704710B500290AD00878002807D0CD
:104E100005487844FBF7A2FC002801D0002010BD13
:104E20000248784410BD0000C2020000BA0200002F
:104E300001100050000204000000C1C081C1400107
:104E400001C3C003800241C201C6C006800741C73A
:104E50000005C1C581C4400401CCC00C800D41CD0A
:104E6000000FC1CF81CE400E000AC1CA81CB400BDA
:104E700001C9C009800841C801D8C018801941D9AA
:104E8000001BC1DB81DA401A001EC1DE81DF401F3A
:104E900001DDC01D801C41DC0014C1D481D540154A
:104EA00001D7C017801641D601D2C012801341D35A
:104EB0000011C1D181D0401001F0C030803141F1EA
:104EC0000033C1F381F240320036C1F681F740373A
:104ED00001F5C035803441F4003CC1FC81FD403D0A
:104EE00001FFC03F803E41FE01FAC03A803B41FBDA
:104EF0000039C1F981F840380028C1E881E940292A
:104F000001EBC02B802A41EA01EEC02E802F41EF39
:104F1000002DC1ED81EC402C01E4C024802541E549
:104F20000027C1E781E640260022C1E281E3402359
:104F300001E1C021802041E001A0C060806141A169
:104F40000063C1A381A240620066C1A681A7406739
:104F500001A5C065806441A4006CC1AC81AD406D09
:104F600001AFC06F806E41AE01AAC06A806B41ABD9
:104F70000069C1A981A840680078C1B881B94079A9
:104F800001BBC07B807A41BA01BEC07E807F41BF39
:104F9000007DC1BD81BC407C01B4C074807541B549
:104FA0000077C1B781B640760072C1B281B3407359
:104FB00001B1C071807041B00050C19081914051E9
:104FC0000193C053805241920196C0568057419739
:104FD0000055C19581944054019CC05C805D419D09
:104FE000005FC19F819E405E005AC19A819B405BD9
:104FF0000199C059805841980188C0488049418929
:10500000004BC18B818A404A004EC18E818F404F38
:10501000018DC04D804C418C0044C1848185404548
:105020000187C047804641860182C0428043418358
:105030000041C18181804040717365746F6E3D2570
:10504000642C6361725F73706565643D25642C63D5
:1050500061725F7469636B3D25642C706F735F735D
:10506000706565643D25642C706F735F616474695D
:105070006D653D25642C706F735F7365743D2564A9
:105080002C69643D25642C6D61785F69643D2564FD
:105090002C54696D654F75743D25642C6669727377
:1050A00074506F7374696F6E54696D654F75743D9C
:1050B00025640D00E451000800000020BC00000041
:1050C0006C010008A0520008BC000020243500003C
:1050D000880100081001000043000000F8FFFFFFF6
:1050E00000404040404040404040414141414140FB
:1050F00040404040404040404040404040404040B0
:10510000400502020202020202020202020202023E
:105110000220202020202020202020020202020243
:10512000020290909090909010101010101010109B
:1051300010101010101010101010101002020202A7
:1051400002028888888888880808080808080808EB
:1051500008080808080808080808080802020202E7
:1051600040000000000000000000000000000000FF
:10517000000000000000000000000000000000002F
:10518000000000000000000000000000000000001F
:10519000000000000000000000000000000000000F
:1051A00000000000000000000000000000000000FF
:1051B00000000000000000000000000000000000EF
:1051C00000000000000000000000000000000000DF
:1051D00000000000000000000000000000000000CF
:1051E00000000000000076657273696F6E207630F3
:1051F0002E332E30000000000000000000000000F0
:10520000000000000100000001000000000000009C
:10521000000000000000000000000000000000008E
:10522000000000000200000000000000000000007C
:10523000020200000000000000000000000000006A
:10524000000000000000000000000000000000005E
:10525000000000000000000000000000000000004E
:10526000000000000000000000000000010000003D
:105270000000000000000000000000000102030424
:1052800001020304060708090204060800A24A04F2
:1052900000000000000000000102030406070809E6
:0400000508000131BD
:00000001FF
