:020000040800F2
:10000000E8310020DD010008E5010008E7010008F3
:10001000E9010008EB010008ED0100080000000004
:10002000000000000000000000000000EF010008D8
:10003000F101000800000000F3010008E91D0008BC
:10004000F7010008F7010008F7010008F7010008B0
:10005000F7010008F7010008F7010008F7010008A0
:10006000F7010008F7010008F7010008F701000890
:10007000F7010008F7010008F7010008F701000880
:10008000F7010008F7010008F7010008F701000870
:10009000E1210008F7010008F7010008F701000856
:1000A000F7010008F7010008F7010008F701000850
:1000B000F7010008F7010008F7010008F701000840
:1000C000F7010008F7010008F7010008F701000830
:1000D000F70100089D1E0008011F0008451F0008C9
:1000E000F7010008F7010008F7010008F701000810
:1000F000F7010008F7010008F7010008F701000800
:10010000F7010008F7010008F7010008F7010008EF
:10011000591E0008F7010008F7010008F701000860
:10012000F7010008F7010008F7010008F7010008CF
:1001300000F002F800F042F80AA090E8000C8244B7
:100140008344AAF10107DA4501D100F037F8AFF294
:10015000090EBAE80F0013F0010F18BFFB1A43F0A5
:10016000010318476C3D00008C3D0000103A24BF8D
:1001700078C878C1FAD8520724BF30C830C144BF0C
:1001800004680C607047000000230024002500264E
:10019000103A28BF78C1FBD8520728BF30C148BFEA
:1001A0000B607047642900F0AB80732900F0358242
:1001B000002070471FB51FBD10B510BD00F036FA06
:1001C0001146FFF7F7FF03F031F800F054FA03B4DB
:1001D000FFF7F2FF03BC00F057FA00000948804720
:1001E00009480047FEE7FEE7FEE7FEE7FEE7FEE719
:1001F000FEE7FEE7FEE7FEE704480549054A064B31
:1002000070470000F91D000831010008E82B0020AC
:10021000E8310020E82D0020E82D00200FB41CB5A7
:10022000074B06AA7B4469460090059800F0CBF97D
:100230000020694600F0DAF91CBC5DF814FB0000F0
:10024000C50300002DE9F0410E460446002020625F
:100250002046E168884730B3252805D0D4E901213C
:100260009047206A401CF2E7E16820460027884753
:10027000050018D0A5F14100192802D820354FF407
:1002800000673246294620462760FFF78BFF40B1C2
:10029000012804D0F61D26F007060836D8E7361DDB
:1002A000D6E72846DAE7206ABDE8F08170B50C464B
:1002B0000546012A05D02878800600D5EA69002382
:1002C00002E0012305E05B1C934202D2E05C0028BF
:1002D000F9D1A869E618C01AA861286A18442862EA
:1002E0002846AFF3008004E0D5E9012114F8010BA2
:1002F0009047B442F8D32846AFF3008070BD0000A9
:100300002DE9F0410646002410687529314616A5EE
:1003100010D0AFF30080002802DA404213A507E0B6
:1003200031688A0701D512A502E0490704D511A555
:10033000012401E0AFF3008000210A2206F1240726
:1003400009E0B0FBF2FCB0FBF2F302FB1C00303022
:1003500078541846491C0028F3D123462A463046D3
:10036000BDE8F04100F0D1B8000000002D00000011
:100370002B0000002000000040EA010310B59B079D
:100380000FD1042A0DD310C808C9121F9C42F8D0FF
:1003900020BA19BA884201D9012010BD4FF0FF30B0
:1003A00010BD1AB1D30703D0521C07E0002010BDC6
:1003B00010F8013B11F8014B1B1B07D110F8013B52
:1003C00011F8014B1B1B01D1921EF1D1184610BD33
:1003D00010B5431C02E010F8011B71B18107FAD17E
:1003E0004FF0013202C88C1A8C4314EAC211F9D0C2
:1003F000C01A0A0603D0C01E10BDC01A10BD0A04E0
:1004000001D0801E10BD0902FCD0401E10BD10B5E9
:10041000203AC0F00B80B1E81850203AA0E81850FC
:10042000B1E81850A0E81850BFF4F5AF5FEA027CBD
:1004300024BFB1E81850A0E8185044BF18C918C02C
:10044000BDE810405FEA827C24BF51F8043B40F8CD
:10045000043B08BF7047D20728BF31F8023B48BFB2
:1004600011F8012B28BF20F8023B48BF00F8012BF0
:1004700070474FF000020429C0F0128010F0030C06
:1004800000F01B80CCF1040CBCF1020F18BF00F887
:10049000012BA8BF20F8022BA1EB0C0100F00DB836
:1004A0005FEAC17C24BF00F8012B00F8012B48BF94
:1004B00000F8012B70474FF0000200B51346944638
:1004C0009646203922BFA0E80C50A0E80C50B1F1AC
:1004D0002001BFF4F7AF090728BFA0E80C5048BFC0
:1004E0000CC05DF804EB890028BF40F8042B08BF5E
:1004F000704748BF20F8022B11F0804F18BF00F85A
:10050000012B70477047704770472DE9F0470D4643
:1005100099469246044600F124080168880604D5ED
:10052000E06921F01001216000E00120A84201DD16
:10053000471B00E00027A1697A1902EB0900081A9D
:10054000A0612078C00602D42046AFF300800026C8
:1005500008E0D4E901211AF806009047206A401CFF
:10056000761C20624E45F4DB2078C0060AD5204672
:10057000AFF3008006E0D4E9012130209047206AE3
:10058000401C2062381EA7F10107F4DC07E0D4E923
:10059000012118F805009047206A401C2062281E9F
:1005A000A5F10105F3DC2046AFF3008020780006BA
:1005B00002D50220BDE8F0870120FBE701694A1C53
:1005C00002610878704700B58FB0CDE90131002194
:1005D000059105497944CDE9031011466846FFF7B6
:1005E00031FE0FB000BD0000E5FFFFFF0A6802F812
:1005F000010B0A60704710B5436913B1AFF3008077
:1006000001E0FFF753FE012010BD127800F1240134
:100610000A7000224A700122EDE711684FF0FF32A4
:10062000E9E7000000487047842B00207546FFF77B
:10063000F9FFAE4605006946534620F0070085469F
:1006400018B020B5FFF7D8FDBDE820404FF00006F8
:100650004FF000074FF000084FF0000B21F00701AA
:10066000AC46ACE8C009ACE8C009ACE8C009ACE8ED
:10067000C0098D46704710B50446AFF30080204690
:10068000BDE81040FFF7A3BD01491820ABBEFEE74F
:10069000260002007047000010B50021837A012275
:1006A00002FA03F13D4A126842F001023B4B1A6024
:1006B0003A4A1C3212688A43384B1C331A60027B58
:1006C000CAB9364A0C3212688A43344B0C331A606A
:1006D0004288C38842EA0343304A4032847A42F86F
:1006E00034300288838842EA03432C4A4032847AB9
:1006F00002EBC4025360027B012A19D1274A0C3253
:1007000012680A43254B0C331A604288038842EA78
:100710000343224A4032847A42F83430C2888388C4
:1007200042EA03431D4A4032847A02EBC40253601A
:10073000C27A3AB9194A121D12688A43174B1B1D17
:100740001A6006E0154A121D12680A43134B1B1D5E
:100750001A60028932B9114A143212688A430F4B67
:1007600014331A600289012A06D10C4A1432126825
:100770000A430A4B14331A60427B012A06D1074A06
:100780001C3212680A43054B1C331A60034A126874
:1007900022F00102014B1A6010BD0000006600400B
:1007A0001AB143690B43436102E043698B434361E0
:1007B000704730B5024600200023146824F002047C
:1007C0001460146844F00104146000E05B1C546879
:1007D00004F001041CB94FF6FF74A342F6D154682B
:1007E00004F001040CB900206CE08C79012C04D1D8
:1007F000146844F08004146003E0146824F080045A
:100800001460CC79012C04D1146844F040041460C5
:1008100003E0146824F0400414600C7A012C04D125
:10082000146844F02004146003E0146824F02004E9
:1008300014604C7A012C04D1146844F01004146044
:1008400003E0146824F0100414608C7A012C04D1A5
:10085000146844F00804146003E0146824F00804E9
:100860001460CC7A012C04D1146844F004041460A0
:1008700003E0146824F0040414608C78A407CD7895
:1008800044EA05640D7944EA05444D7944EA055487
:100890000D886D1E2C43D461146824F0010414608B
:1008A000002300E05B1C546804F001041CB14FF607
:1008B000FF74A342F6D1546804F001040CB1002087
:1008C00000E0012030BD00002DE9F0418AB004466F
:1008D0000F4615461E46DDF840800D2D03D9012038
:1008E0000AB0BDE8F0810121480600F047FF012170
:1008F000092000F063FF01214FF4EA1000F02AFE06
:100900004FF48070ADF8240003208DF826004820B5
:100910008DF8270009A99E4800F091FD4FF4007062
:10092000ADF8240018208DF8270009A9984800F098
:1009300086FD012212219748FFF732FF14208DF81F
:10094000040001208DF8050000208DF8060001202C
:100950008DF8070001A800F0D9FE15208DF80400DD
:1009600001208DF8050000208DF8060001208DF88B
:10097000070001A800F0CAFE00208DF81E008DF8C7
:100980001F008DF8200001208DF8210000208DF837
:1009900022008DF823008DF81A700F2C73D2DFE837
:1009A00004F0081624313E4B586573808D9AA7B425
:1009B000C10001208DF81B0005208DF81C000320CC
:1009C0008DF81D004FF41670ADF81800B8E0002047
:1009D0008DF81B0002208DF81C0001208DF81D00F1
:1009E0004FF41670ADF81800AAE000208DF81B0037
:1009F00009208DF81C0006208DF81D006420ADF83C
:100A000018009DE000208DF81B0002208DF81C00CE
:100A100001208DF81D00F020ADF8180090E00020B6
:100A20008DF81B0002208DF81C0001208DF81D00A0
:100A30009620ADF8180083E000208DF81B000920F7
:100A40008DF81C0006208DF81D002820ADF8180038
:100A500076E000208DF81B0002208DF81C0001209C
:100A60008DF81D004B20ADF8180069E000208DF8CE
:100A70001B0009208DF81C0006208DF81D00142095
:100A8000ADF818005CE05AE000208DF81B00022051
:100A90008DF81C0001208DF81D003020ADF81800E5
:100AA0004EE000208DF81B0007208DF81C0006206A
:100AB0008DF81D000920ADF8180041E000208DF8E8
:100AC0001B0002208DF81C0001208DF81D0018204D
:100AD000ADF8180034E000208DF81B0004208DF8DC
:100AE0001C0002208DF81D000A20ADF8180027E038
:100AF00000208DF81B0005208DF81C0004208DF8C7
:100B00001D000620ADF818001AE000208DF81B002B
:100B100004208DF81C0002208DF81D000520ADF882
:100B200018000DE000208DF81B0002208DF81C003D
:100B300001208DF81D000620ADF8180000E000BF70
:100B400000BF06A91348FFF734FEE8B28DF8120083
:100B500000208DF8130001208DF81400300CADF842
:100B60000800F0B2ADF80A004FEA1840ADF80C00EA
:100B700008F0FF00ADF80E000020ADF810000120D5
:100B80008DF8150002A8FFF787FD0020A8E60000F9
:100B9000000C01400064004010B500F5D87303EB71
:100BA00001131B6803F004031372137A53B900F5A1
:100BB000D87303EB01131B6840F2FF7404EA53532C
:100BC000136009E000F5D87303EB01131B686FF0A5
:100BD000604404EAD303536000F5D87303EB0113B8
:100BE0001B6803F00203537200F5D87303EB011383
:100BF0005B6803F00F03937200F5D87303EB0113E6
:100C00005B681B0AD37400F5D87303EB01139B6870
:100C1000D37200F5D87303EB01139B681C0A14739D
:100C200000F5D87303EB01139B681C0C547300F59B
:100C3000D87303EB01139B681B0E937300F5D873F5
:100C400003EB0113DB68D37300F5D87303EB0113D7
:100C5000DB681C0A147400F5D87303EB0113DB681E
:100C60001C0C547400F5D87303EB0113DB681B0EE6
:100C7000937421B9C36843F02003C36003E00369A0
:100C800043F02003036110BD10B5024600209368B5
:100C900003F08063B3F1806F00D110E0936803F03C
:100CA0000063B3F1006F01D1012008E0936803F005
:100CB0008053B3F1805F01D1022000E004200428BA
:100CC00074D002F5C07303EB00131B6803F001043A
:100CD00002F5C07303EB00131C600B7A7BB94B7AEF
:100CE0000C8843EA445302F5C07404EB00142468F2
:100CF000234302F5C07404EB0014236010E00B7A68
:100D00004C6843EAC4034C7A234302F5C07404EBF5
:100D100000142468234302F5C07404EB001423601C
:100D20008B7A03F00F038B7202F5C07303EB001391
:100D30005B6823F00F0402F5C07303EB00135C60E3
:100D400002F5C07303EB00135B688C7A234302F552
:100D5000C07404EB001463608B7B1C064B7B44EA7D
:100D600003440B7B44EA0323CC7A234302F5C0748B
:100D700004EB0014A3608B7C1C064B7C44EA034408
:100D80000B7C44EA0323CC7B234302F5C07404EBC1
:100D90000014E36002F5C07303EB00131B6843F01B
:100DA000010402F5C07303EB00131C6010BD0000CA
:100DB00010B50246002321B1012907D002290FD125
:100DC00009E090681D4C00EA04030BE090681C4C9D
:100DD00000EA040306E090681A4C00EA040301E00C
:100DE000002300BF00BF184C181BA34216D007DC1D
:100DF00083B16FF08060184470B1022818D111E0FF
:100E0000B0F5007F10D0114C204448B1B0F5003F40
:100E10000ED10BE002230DE000230BE0002309E0DC
:100E2000002307E0012305E0012303E0012301E0A3
:100E3000002300BF00BFD8B210BD000003000004B3
:100E40000003000800000310000100080001FFF784
:100E50002DE9F04186B005460F46904600240195E5
:100E6000029500208DF80C008DF80D008DF80E8095
:100E700000BF05E0395D0DF10F000155601C84B223
:100E8000082CF7DB01A90E48FFF7FEFE06460024FA
:100E900001E0601C84B231460948FFF789FF012850
:100EA00003D040F6FF708442F3DB40F6FF708442CB
:100EB00003DB012006B0BDE8F0810020FAE7000066
:100EC000006400402DE9F041002400250022114675
:100ED000694801F09EFE01F065FD064600BF01F085
:100EE00061FD801BB0F5FA6FF9D3C1E05CB902F087
:100EF0008DFD01216048683801F07AFE01F052FD55
:100F000006460124B4E0012C18D101F04BFD801BF2
:100F10001E28EAD901F04CFD0746082256496839D7
:100F2000FFF72AFA10B900250224A1E0032D02DA06
:100F30006D1C00249CE00025022499E0022C0ED1B7
:100F400002F064FD03244C4870380122D0F8BC1034
:100F5000203001F05EFE01F025FD064688E0032CFE
:100F600018D101F01FFD801B1E28BED901F020FD05
:100F70000746082240495039FFF7FEF910B900250D
:100F8000042475E0032D02DA6D1C022470E00025B4
:100F900004246DE0042C0ED102F038FD3648703880
:100FA0000122D0F8B010283001F033FE052401F002
:100FB000F9FC06465CE0052C18D101F0F3FC801B1F
:100FC0001E2855D901F0F4FC074608222A49483961
:100FD000FFF7D2F910B90025062449E0032D02DA03
:100FE0006D1C042444E00025062441E0062C0ED1AB
:100FF00002F00CFD204870380122D0F8B0103030DB
:1010000001F007FE072401F0CDFC064630E0072C76
:1010100018D101F0C7FC801B1E2829D901F0C8FC9B
:101020000746082214494039FFF7A6F910B90025F0
:1010300064241DE0032D02DA6D1C062418E000254F
:10104000642415E0642C13D100200B497039C1F8D9
:10105000C80006200949C1F8D40007497039C1F811
:10106000CC0002F051FC02F0D1FC02F087FD00E060
:101070003CE700BFBDE8F08104010020C828002043
:1010800070B501F095FC04469548D0F8CC000328D3
:101090000AD106209249C1F8CC000A209149086083
:1010A0000020914908601AE08D48D0F8CC00022851
:1010B0000AD106208A49C1F8CC0028208949086055
:1010C0000020894908600AE08548D0F8CC0004284F
:1010D00005D11420834908600020834908608148B5
:1010E000006838B901F05EFC8049086001207D4944
:1010F0000860F4E07B48006801280AD17B4800685A
:1011000002F060F9B0F57A7FF3D91E2075490860C6
:10111000E5E0744800680A280ED102F077FC01214E
:101120006F48103001F064FD01F03CFC6F4908602D
:101130000B206C490860D2E06A4800680B2823D174
:101140006A48006802F03EF93228D2D901F030FC3A
:101150000546082262491031FFF70EF918B9002040
:1011600060490860BBE060480068022808DA5E4811
:101170000068401C5C4908600A205A490860AEE0DB
:10118000002058490860AAE05648006814280ED18B
:1011900002F03CFC01215248083001F029FD01F029
:1011A00001FC5249086015204E49086097E04D48FF
:1011B0000068152823D14D48006802F003F9322851
:1011C00097D901F0F5FB0546082245490831FFF79C
:1011D000D3F818B900204349086080E0424800680D
:1011E000022808DA40480068401C3F490860142083
:1011F0003C49086073E000203A4908606FE03948D4
:1012000000681E280ED102F001FC0121344848304C
:1012100001F0EEFC01F0C6FB344908601F203149A3
:1012200008605CE02F4800681F281ED12F48006826
:1012300002F0C8F8322852D901F0BAFB0546022262
:1012400027494831FFF798F838B900202549086048
:1012500020792749A1F8060141E0FF202449A1F89F
:10126000060100201F49086039E01E480068282850
:101270000ED102F0CBFB01211948183001F0B8FC67
:1012800001F090FB1949086029201649086026E002
:1012900014480068292822D11448006802F092F806
:1012A00032281CD901F084FB054608220C4918316C
:1012B000FFF762F818B900200A4908600FE00A48F1
:1012C0000068022808DA08480068401C06490860DF
:1012D00028200449086002E000200249086070BD2F
:1012E00094000020540000205800002050000020EE
:1012F000BC2700200149C860704700000020024060
:1013000030B5044604254FF4302000F085F805463A
:10131000042D17D10C48006940F002000A49086109
:1013200008464461006940F0400008614FF43020F5
:1013300000F072F805460448006941F6FD71084066
:1013400001490861284630BD0020024004200B49B5
:10135000C96801F0010109B101200EE00749C9681F
:1013600001F0040109B1022007E00449C96801F055
:10137000100109B1032000E0042070470020024062
:101380000348006940F0800001490861704700008F
:101390000020024078B506460C4604250020009047
:1013A000E80200F039F80546042D24D113480069FD
:1013B00040F00100114908613480E80200F02CF887
:1013C0000546042D10D1B01C0090200C0099088017
:1013D000E80200F021F805460848006941F6FE7170
:1013E00008400649086106E00448006941F6FE71BC
:1013F000084002490861284678BD000000200240EC
:101400000248034948600348486070472301674524
:1014100000200240AB89EFCD00B502460423FFF760
:1014200095FF034603E0FFF791FF0346521E012B91
:1014300001D1002AF7D102B90523184600BD2DE9D4
:10144000F04102460025002600200023002400274A
:1014500091F803C00CF00F0591F803C00CF0100CCC
:10146000BCF1000F03D091F802C04CEA050591F8D9
:1014700000C0BCF1000F31D0146800202BE04FF009
:10148000010C0CFA00F3B1F800C00CEA03069E420E
:1014900020D183004FF00F0C0CFA03F7BC4305FA80
:1014A00003FC4CEA040491F803C0BCF1280F06D1F8
:1014B0004FF0010C0CFA00FCC2F814C00AE091F8DD
:1014C00003C0BCF1480F05D14FF0010C0CFA00FC31
:1014D000C2F810C0401C0828D1D31460B1F800C075
:1014E000BCF1FF0F34DD546800202EE000F1080C41
:1014F0004FF0010808FA0CF3B1F800C00CEA03063B
:101500009E4221D183004FF00F0C0CFA03F7BC432D
:1015100005FA03FC4CEA040491F803C0BCF1280F5F
:1015200005D100F1080C08FA0CF8C2F8148091F803
:1015300003C0BCF1480F07D100F1080C4FF00108BF
:1015400008FA0CF8C2F81080401C0828CED354606A
:10155000BDE8F081F0B50A460023002400210025F3
:1015600000F00046B6F1004F02D11D4EF16901E0D6
:101570001B4E7168C0F3034583B200F44016B6F504
:10158000401F08D121F07061154E766826F0706614
:10159000134F7E6012E000F48016B6F5801F06D16E
:1015A000032606FA05F4A14341F0706106E0460DFA
:1015B000360103FA06F6B14341F0706122B1460DDF
:1015C000360103FA06F6314300F00046B6F1004F4B
:1015D00002D1034EF16101E0014E7160F0BD0000E7
:1015E000000001400246002093680B400BB101202F
:1015F00000E00020704741617047016170470000C2
:1016000010B53E48006850BB01213D48FFF7EAFF96
:1016100038B901F0C7F93B49086001203749086033
:1016200007E0394890F80A0100F0EF003649A1F8C8
:101630000A0102213248FFF7D5FF38B901F0B2F9AB
:10164000304908600A202D49086055E02E4890F87E
:101650000A0100F0DF002C49A1F80A014CE02748FC
:101660000068012812D12748006801F0ABFE0A2863
:1016700042D901212248FFF7B5FF18B902201F49BE
:10168000086039E000201D49086035E01B4800680B
:1016900002280BD11C48B0F90A0140F010001A4989
:1016A000A1F80A0100201549086025E013480068E8
:1016B0000A2812D11348006801F084FE0A281BD9B9
:1016C00002210F48FFF78EFF18B90B200B49086065
:1016D00012E00020094908600EE0084800680B2865
:1016E0000AD10948B0F90A0140F020000649A1F8E2
:1016F0000A0100200149086010BD000064000020BC
:10170000000C014068000020BC27002070B50021BB
:1017100000230F22C47804B3154C246804F4E06459
:10172000C4F5E064210AC1F10403CA40447804FA14
:1017300003F184781440214309010E4C0678A15529
:10174000047804F01F050124AC4005786D11AD004C
:1017500005F1E025C5F8004109E0047804F01F0513
:101760000124AC40044D0678761145F8264070BD42
:101770000CED00E000E400E080E100E029B1064A61
:10178000D2690243044BDA6104E0034AD26982431E
:10179000014BDA61704700000010024029B1064A8F
:1017A00012690243044B1A6104E0034A126982433E
:1017B000014B1A61704700000010024029B1064A2F
:1017C00092690243044B9A6104E0034A926982439E
:1017D000014B9A61704700000010024029B1064A8F
:1017E000D2680243044BDA6004E0034AD2688243C1
:1017F000014BDA60704700000010024030B5002154
:101800000022002400232D4D6D6805F00C0121B14C
:10181000042905D0082923D105E0294D056022E0DF
:10182000274D05601FE0254D6D6805F47012234DAE
:101830006D6805F48034022505EB92421CB9214DF8
:10184000554305600BE01D4D6D6805F400351DB175
:101850001C4D5543056002E0194D5543056002E0FB
:10186000174D056000BF00BF144D6D6805F0F00115
:101870000909154D6B5C0568DD4045600F4D6D68CD
:1018800005F4E061090A104D6B5C4568DD40856038
:101890000A4D6D6805F46051C90A0B4D6B5C4568D3
:1018A000DD40C560054D6D6805F44041890B074D6D
:1018B0006B5CC568B5FBF3F5056130BD00100240F7
:1018C00000127A0000093D006C0000207C0000201E
:1018D00070B501F06DF80446A748D0F8D40050B9AF
:1018E0000A20A64908600020A54908600620A249F0
:1018F000C1F8D4001EE0A048D0F8D40001280AD1D5
:1019000014209E49086000209D49086006209A49DD
:10191000C1F8D4000EE09848D0F8D400042809D1CA
:101920001E209649086000209549086006209249CB
:10193000C1F8D4009148006838B901F033F89149F2
:10194000086001208D49086015E18C480068012875
:101950000AD18C48006801F035FDB0F57A7FF3D9E3
:1019600028208649086006E1844800680A2811D1C9
:1019700002F004F98048D0F8D010883001F06CFDF6
:1019800001F010F87F4908607C480068401C7B49E2
:101990000860F0E0794800680B282AD1794800688F
:1019A00001F010FD1E28CFD973488830FEF710FDD6
:1019B000054601F001F806462A466F498831FEF7D0
:1019C000DBFC18B900206D490860D4E06C48006861
:1019D00002280ADA6A480068401C694908606748BA
:1019E0000068401E65490860C5E000206349086042
:1019F000C1E062480068142813D102F0BFF85E48C5
:101A0000D0F8D00041425C48883001F025FD00F05C
:101A1000C9FF5C49086059480068401C5749086084
:101A2000A9E05648006815282AD15648006801F0F8
:101A3000C9FC1E2888D950488830FEF7C9FC0546E5
:101A400000F0BAFF06462A464B498831FEF794FC5F
:101A500018B90020494908608DE04948006802280B
:101A60000ADA47480068401C454908604348006856
:101A7000401E424908607EE00020404908607AE04C
:101A80003E4800681E2810D102F078F808213A4834
:101A9000B53002F0E3F800F085FF3A4908603748B6
:101AA0000068401C3549086065E0344800681F281C
:101AB0002AD13448006801F085FC1E285BD92E48E5
:101AC000B530FEF785FC054600F076FF06462A464F
:101AD0002949B531FEF750FC18B9002027490860A4
:101AE00049E0274800680A280ADA25480068401CAF
:101AF0002349086021480068401E204908603AE0F8
:101B000000201E49086036E01C480068282810D1D3
:101B100002F034F808211848A53002F09FF800F0D0
:101B200041FF1849086015480068401C13490860C7
:101B300021E01248006829281DD11248006801F0F0
:101B400041FC1E2817D900F037FF054602220A493A
:101B5000A531FEF711FC38B9E1780B48A0F808115F
:101B600000200649086006E0FF210748A0F8081198
:101B700000200249086070BDC828002048000020ED
:101B80004C00002044000020BC27002010B500F0CD
:101B900001F810BD0CB5002001900090334800689A
:101BA00040F480303149086000BF3048006800F4DC
:101BB000003000900198401C0190009818B90198DD
:101BC000B0F5A06FF1D12948006800F4003010B1E1
:101BD0000120009001E0002000900098012843D1EE
:101BE0002348006840F0100021490860084600685A
:101BF00020F0030008600846006840F0020008601A
:101C00001A484068194948600846406848600846D4
:101C1000406840F4806048600846406820F47C10CA
:101C200048600846406840F4E8104860084600688C
:101C300040F08070086000BF0C48006800F0007041
:101C40000028F9D00948406820F00300074948609F
:101C50000846406840F00200486000BF0348406802
:101C600000F00C000828F9D10CBD00000010024063
:101C7000002002401CB500200090019056480068EA
:101C800068B940215548FFF7ADFC002806D100F0A7
:101C900089FE5349086001204F4908609BE04E4887
:101CA0000068012812D14E48006801F08BFB0A2819
:101CB000F4D940214948FFF795FC18B9022046495C
:101CC000086088E000204449086084E042480068D9
:101CD000022826D1434800788DF8000073208DF843
:101CE000010074208DF802006F208DF80300702031
:101CF0008DF80400082269460020FFF7A9F800F0DB
:101D000051FE374908603748B0F90A0140F0010038
:101D10003449A1F80A0130480068401C2E49086087
:101D200059E02D48006803281BD140212B48FFF7BC
:101D300059FC012809D100F035FE294908602648E0
:101D40000068401C2449086045E02548006801F00F
:101D500039FB64283FD920480068401E1E490860AE
:101D600039E01D480068042835D11D48006801F09D
:101D700029FB0A282FD940211848FFF733FC0128F6
:101D800026D1002014490860164800788DF800001C
:101D900075208DF801006E208DF8020073208DF8FB
:101DA000030074208DF804006F208DF8050070206A
:101DB0008DF80600082269460020FFF749F8094817
:101DC00090F80A0100F0FE000649A1F80A0102E0BD
:101DD0000320014908601CBD5C0000200010014088
:101DE00060000020BC27002002480068401C014918
:101DF000086070473800002010B51348006840F0B4
:101E000001001149086008464068104908400E4921
:101E10004860084600680E4908400B4908600846BB
:101E2000006820F4802008600846406820F4FE0026
:101E300048604FF41F008860FFF7A8FE4FF0006075
:101E40000449086010BD0000001002400000FFF8C7
:101E5000FFFFF6FE08ED00E010B540F225510C48FA
:101E600000F0F9F890B10A4800F0B0F9C4B209489E
:101E700001680068401C074A106007484454104637
:101E80000068C82802D3C7201146086010BD0000B2
:101E9000004C004030000020A029002010B540F286
:101EA0002551134800F0D7F800B3114800F08EF91F
:101EB000C4B210480068C8B90D2C01D00A2C06D154
:101EC0000D48006890B101200A4908600EE00A48F8
:101ED00001680068401C084A1060084844541046D5
:101EE0000068C82802D3C7201146086010BD000052
:101EF0000038014008000020000000206425002078
:101F000010B540F225510C4800F0A5F890B10A48F0
:101F100000F05CF9C4B2094801680068401C074A37
:101F200010600748445410460068C82802D3C720F0
:101F30001146086010BD0000004400400C00002065
:101F40002C26002010B540F225510C4800F083F8F3
:101F500090B10A4800F03AF9C4B209480168006833
:101F6000401C074A10600748445410460068C828BF
:101F700002D3C7201146086010BD00000048004091
:101F800014000020F426002021B1828942F400527E
:101F9000828104E082894DF6FF731A408281704786
:101FA00010B504462048844209D101218803FFF777
:101FB00015FC00214FF48040FFF710FC32E01B4875
:101FC000844209D101214804FFF7E8FB00214FF4C6
:101FD0000030FFF7E3FB25E01548844209D10121D9
:101FE0008804FFF7DBFB00214FF48020FFF7D6FBCE
:101FF00018E01048844209D10121C804FFF7CEFB44
:1020000000214FF40020FFF7C9FB0BE00A4884428F
:1020100008D101210805FFF7C1FB00214FF4801012
:10202000FFF7BCFB10BD0000003801400044004039
:1020300000480040004C0040005000400246002094
:10204000B1F5007F00D100BF13880B400BB1012018
:1020500000E00020704770B50246002400230025F0
:10206000002040F66A16B14200D100BFC1F342150C
:1020700001F01F03012606FA03F3012D02D1968910
:10208000334006E0022D02D1168A334001E0968AE1
:1020900033400C12012606FA04F41688344013B1BA
:1020A0000CB1012000E0002070BDF0B50346002413
:1020B00000260025002040F66A17B94200D100BF73
:1020C0001846C1F3421401F01F06012707FA06F56E
:1020D000012C01D10C3004E0022C01D1103000E0C1
:1020E00014301AB107682F43076002E00768AF4356
:1020F0000760F0BD2DE9F04786B005460E46002486
:10210000A24600BFA1460027B08900B100BF2F46FC
:102110002C8A4CF6FF700440F08804432C82AC8972
:102120004EF6F3100440B0883189084371890843A2
:102130000443AC81AC8A4FF6FF400440B0890443AD
:10214000AC8201A8FFF75AFB1F48874202D1DDF895
:1021500010A001E0DDF80CA0A88900F4004040B117
:102160000AEBCA0000EB0A1031684900B0FBF1F835
:1021700007E00AEBCA0000EB0A1031688900B0FBE7
:10218000F1F86420B8FBF0F004012009642101FBA0
:102190001089A88900F4004040B1322000EBC9004A
:1021A000B0FBF1F000F00700044308E0322000EB40
:1021B00009106421B0FBF1F000F00F0004432C8102
:1021C00006B0BDE8F087000000380140014688886D
:1021D000C0F308007047C1F3080282807047000016
:1021E00010B586B0002401AA00212448FEF7D4FCD3
:1021F000234909880198884204D00198012801D90F
:1022000006B010BD002409E00DF10F00005D1D496E
:1022100008550846007C401C0874641C082CF3DB3D
:102220000821184801F01AFD16484078732822D179
:102230001448807874281ED11248C0786F281AD1AB
:1022400010480079702816D104200F49C1F8D40035
:102250000E49C1F8CC00002400BF06E0002004EBCA
:10226000C4010B4A22F83100641C802CF6DB0020EC
:102270000349488000E000BF00BFC1E700640040A0
:10228000BC270020682A0020C828002094000020D5
:102290006401002070B590B005460E4600240CE0A5
:1022A000601C1B4951F820004DF82400601CB5EB60
:1022B000800F01D14DF82460641C102CF0DBFFF777
:1022C0009FF83420FFF716F80120124908701048D3
:1022D000FFF716F80F49087008460078042810D157
:1022E0000120087000240AE05DF82410621C084BED
:1022F00003EB8200FFF74EF806490870641C102CAF
:10230000F2DB012003490870FFF73AF810B070BD06
:1023100000F000081C0000202DE9FF4100270020EC
:1023200000900190FE48007C08287CD1FC48407851
:10233000062879D006DC012809D0022875D00328A8
:1023400074D1B1E0082872D01028F9D143E2F548E1
:102350000088F3490978884205DAF2484088401C31
:10236000F049488076E0EF480088ED4909788842D6
:1023700070D16F208DF800006B208DF80100E949C5
:10238000088808226946FEF763FD00245EE004EB3E
:10239000C400E54931F83000002856D1E048807883
:1023A000000650B9DE48C0780004DD49097940EAEA
:1023B0000120DB494979084308B1012000E00020F1
:1023C00004EBC401D84A22F83100D648408804EB17
:1023D000C40102EBC1014880652004EBC40102EB9B
:1023E000C10108716E2104EBC40002EBC000417111
:1023F000642104EBC40002EBC000817100261EE0E2
:10240000C749F01D0A5C04EBC400C74901EBC000DA
:10241000001DF11C425404EBC400C34901EBC00091
:10242000406C401C04E0F5E17FE014E0EDE1BDE02C
:1024300004EBC401BC4A02EBC1014864761CB848F5
:10244000007C801FB042DBDC02E0641C802C9EDB41
:1024500000BF00BFDAE1B3480088B149097888427B
:1024600021D1B04800788DF8000002208DF80100DD
:1024700003208DF80200AB4890F806018DF80300A8
:10248000A84890F808018DF80400A64890F80A01C1
:102490008DF805000120A349A1F80401088808224D
:1024A0006946FEF7D5FCB1E19E4800889C49097851
:1024B000884239D19A488078012818D18DF80800CF
:1024C00003208DF809009648C0788DF80A009448DA
:1024D00000798DF80B00924880799149497940EA5A
:1024E00001250222294602A801F002F91CE08C48CD
:1024F0008078022818D101208DF8080003208DF87B
:1025000009008748C0788DF80A00854800798DF861
:102510000B00834880798249497940EA01250422E9
:10252000294602A801F0E4F870E17E4800887C4961
:102530000978884239D17A488078012818D18DF8F5
:10254000080006208DF809007548C0788DF80A004B
:10255000734800798DF80B0071488079704949798A
:1025600040EA01250222294602A801F0C1F81CE038
:102570006B488078022818D101208DF808000620C9
:102580008DF809006648C0788DF80A006448007923
:102590008DF80B00624880796149497940EA01254C
:1025A0000422294602A801F0A3F82FE15D48008823
:1025B0005B490978884203D059480078002816D131
:1025C0005748007857490988884211D15448807883
:1025D0002028F4D15248C0780828F0D150484079DA
:1025E00050490880084601881C20FFF753FEF1E09F
:1025F0004B488078E0B94A48C078C8B94848407923
:1026000020B902204949C1F8CC00E3E044484079B0
:10261000012804D103204549C1F8CC00DAE0404844
:1026200040790528E3D104204049C1F8CC00D1E02D
:102630003B488078E0B93A48C078012818D138483A
:10264000407920B900203A49C1F8D400C2E03448AA
:102650004079012803D13649C1F8D400BAE03048A6
:1026600040790528C3D104203149C1F8D400B1E034
:102670002B48807820281AD12948C078012816D103
:10268000274840792649097940EA01202749C1F8BD
:10269000BC0008460222D0F8BC10203001F028F817
:1026A0002248D0F8BC100820FFF7F4FD92E01C4847
:1026B000807801281AD11A48C078902816D1184875
:1026C00040791749097940EA01201949C1F8C80041
:1026D00008460422D0F8C810783001F009F81448F0
:1026E000D0F8C8101020FFF7D5FD73E00C488078B3
:1026F00001282DD10A48C078682829D108480079D6
:1027000000060749497940EA01400549897940EACC
:1027100001200349C97908430549C1F8D00009E0FF
:10272000682A0020BC2700206401002094000020BB
:10273000C828002008460422D0F8D01036A000F0A7
:1027400001FE3648D0F8D0101820FFF7A3FD41E075
:102750003348807850BB3248C078502826D1304862
:1027600040792F49097940EA01202C49C1F8CC0071
:1027700008460422D0F8CC10103000F0B9FF00F069
:1027800011F9074600BF00F00DF9C01B6428FAD309
:1027900022480422D0F8CC10183000F0A9FF1F48BE
:1027A000D0F8CC101420FFF775FD13E01C4880789A
:1027B00069280FD11A48C0786E280BD118480079C3
:1027C000692807D116484079742803D100F03CFAF3
:1027D000FEF778FB1AE0134800881149097888420F
:1027E00012D10F488078012805D10D48C178C01C4E
:1027F00001F076F908E00A488078022804D10848F8
:10280000C178C01C01F02AFA00E000BF00BF002020
:1028100003490874BDE8FF81706F7300C828002069
:10282000682A0020BC270020F0B502460E464FF66D
:10283000FF7015467DB100240BE02B7880EA030180
:10284000CFB2DFF820C03CF8177087EA20206D1C5B
:10285000641CB442F1D34FF6FF7707EA002100125F
:102860000843F0BDC83C0008FF200649A1F8060156
:10287000FF210448A0F8081100200249A1F8040132
:1028800070470000BC27002006494868411C19B168
:102890000549C1F8B00003E00521034AC2F8B010B1
:1028A0007047000000F00008940000200549C86946
:1028B000411C11B1044A108002E00221024A118039
:1028C0007047000000F00008BC27002000B5FFF7AB
:1028D000DBFF00F055F800F00BF800F03FF800F0D7
:1028E00017F800F027F8FFF7E1FF00BD7047000080
:1028F0000549C868411C11B1044A108003E046F242
:10290000A811024A1180704700F000081E00002044
:1029100006494869411C19B10549C1F8CC0003E0DA
:102920003221034AC2F8CC107047000000F00008C2
:10293000C828002006498869411C19B10549C1F819
:10294000D00003E00449034AC2F8D01070470000E9
:1029500000F00008C828002018E4030006490869B0
:10296000411C19B10549C1F8C80004E040F2DC512E
:10297000024AC2F8C810704700F00008C8280020BA
:1029800006498868411C19B10549C1F8BC0004E03A
:1029900040F21451024AC2F8BC10704700F000081F
:1029A00094000020014800687047000038000020B3
:1029B000004870472C26002000487047A0290020BE
:1029C00070B505468348006858BB10218248FEF761
:1029D00009FE01281DD020217F48FEF703FE0128B3
:1029E00017D040217C48FEF7FDFD012811D0802141
:1029F0007948FEF7F7FD01280BD010217748FEF744
:102A0000F1FD012805D020217448FEF7EBFD0128D7
:102A100006D1FFF7C7FF7249086001206D490860C1
:102A2000D7E06C48006801287AD16D48006800F052
:102A3000C9FCA842F4D910216748FEF7D3FD01284C
:102A40001DD020216448FEF7CDFD012817D040217C
:102A50006148FEF7C7FD012811D080215E48FEF7CE
:102A6000C1FD01280BD010215C48FEF7BBFD0128F9
:102A700005D020215948FEF7B5FD012859D1594804
:102A80004088002805DD57484088401E5549488049
:102A90004FE000244BE004EBC400534931F8300010
:102AA000E8B304EBC40011F8300000F00100D0B12D
:102AB0004C4890F80A0100F0100070BB00204B4910
:102AC000C1F8D40004EBC403474E06EBC30393F8EC
:102AD000442004EBC40306EBC303191D414B1888C3
:102AE000FEF7B6F919E03F4890F80A0100F020001F
:102AF00098B901203D49C1F8D40004EBC4033A4E13
:102B000006EBC30393F8442004EBC40306EBC303B2
:102B1000191D344B1888FEF79BF9002001E005E0F1
:102B20000FE004EBC401304A22F83100641C802C11
:102B3000B1DB022027490860FFF734FF284908600D
:102B400047E02448006802283CD110212248FEF7C3
:102B500049FDC0B120212048FEF744FD98B1402135
:102B60001D48FEF73FFD70B180211B48FEF73AFD7E
:102B700048B110211948FEF735FD20B12021174832
:102B8000FEF730FD58B9174890F80A0100F0FD0033
:102B90001449A1F80A0100200E49086019E0104804
:102BA000006800F00FFCB0F57A7F12D903200949C4
:102BB00008600C48B0F90A0140F002000949A1F888
:102BC0000A0106E003480068032802D100200149F9
:102BD000086070BD3C00002000080140001001406A
:102BE00040000020BC27002064010020C8280020ED
:102BF00070B504460D46257006212046FFF714FEE9
:102C00000646300AA071E6710821204600F068FFF0
:102C100070BDF0B585B004460D46164614216846D1
:102C2000FDF749FC2670280A2071657106212046AF
:102C3000FFF7FAFD07463812A071E7710821204618
:102C400000F04EFF05B0F0BD2DE9F0410025002455
:102C50000026A8E254B900F091FF0821FB4800F0DB
:102C6000FDFFFFF79FFE064601249CE2012C17D1D1
:102C7000304600F0A7FB3228EBD9FFF79DFE074650
:102C80000822F249FDF778FB10B1641C00258AE2A6
:102C9000032D02DA6D1C641E85E2641C002582E2AD
:102CA000022C0BD100F06AFF0821E848083000F040
:102CB000D5FFFFF777FE0646641C74E2032C18D19B
:102CC000304600F07FFB3228C3D9FFF775FE074678
:102CD0000822DE490831FDF74FFB10B1641C0025C6
:102CE00061E2032D02DA6D1C641E5CE2641C0025A7
:102CF00059E2042C0DD100F041FFD4480422D0F851
:102D0000CC10103000F0F4FCFFF74CFE0646641CBB
:102D100049E2052C18D1304600F054FB322898D9EE
:102D2000FFF74AFE07460822C8491031FDF724FB89
:102D300010B1641C002536E2032D02DA6D1C641EFE
:102D400031E2641C00252EE2062C0DD100F016FFA6
:102D5000BE480422D0F8CC10183000F0C9FCFFF7B0
:102D600021FE0646641C1EE2072C18D1304600F0F6
:102D700029FB32288BD9FFF71FFE07460822B349EB
:102D80001831FDF7F9FA10B1641C00250BE2032D90
:102D900002DA6D1C641E06E2641C002503E2082CA6
:102DA0000BD100F0EBFE0821A848203000F056FFC0
:102DB000FFF7F8FD0646641CF5E1092C18D13046F2
:102DC00000F000FB32288BD9FFF7F6FD07460822FA
:102DD0009E492031FDF7D0FA10B1641C0025E2E1D4
:102DE000032D02DA6D1C641EDDE1641C0025DAE1AE
:102DF0000A2C0BD100F0C2FE08219448283000F0C4
:102E00002DFFFFF7CFFD0646641CCCE10B2C18D13B
:102E1000304600F0D7FA32288DD9FFF7CDFD0746AE
:102E200008228A492831FDF7A7FA10B1641C002551
:102E3000B9E1032D02DA6D1C641EB4E1641C0025A7
:102E4000B1E10C2C0BD100F099FE08217F48303005
:102E500000F004FFFFF7A6FD0646641CA3E10D2C5D
:102E600018D1304600F0AEFA32288FD9FFF7A4FD12
:102E70000746082275493031FDF77EFA10B1641C0F
:102E8000002590E1032D02DA6D1C641E8BE1641CA9
:102E9000002588E10E2C0BD100F070FE08216B4854
:102EA000483000F0DBFEFFF77DFD0646641C7AE14A
:102EB0000F2C18D1304600F085FA32288FD9FFF751
:102EC0007BFD0746082261494831FDF755FA10B1EC
:102ED000641C002567E1032D02DA6D1C641E62E1AB
:102EE000641C00255FE1102C0BD100F047FE082187
:102EF0005648503000F0B2FEFFF754FD0646641C01
:102F000051E1112C18D1304600F05CFA32288FD9EB
:102F1000FFF752FD074608224C495031FDF72CFAC5
:102F200010B1641C00253EE1032D02DA6D1C641E05
:102F300039E1641C002536E1122C0BD100F01EFE95
:102F400008214248583000F089FEFFF72BFD064665
:102F5000641C28E1132C18D1304600F033FA3228D3
:102F60008FD9FFF729FD0746082238495831FDF768
:102F700003FA10B1641C002515E1032D02DA6D1C63
:102F8000641E10E1641C00250DE1142C0BD100F02F
:102F9000F5FD08212D48603000F060FEFFF702FDCE
:102FA0000646641CFFE0152C18D1304600F00AFAE2
:102FB00032288FD9FFF700FD0746082223496031E8
:102FC000FDF7DAF910B1641C0025ECE0032D02DAFC
:102FD0006D1C641EE7E0641C0025E4E0162C0BD198
:102FE00000F0CCFD08211948703000F037FEFFF7E3
:102FF000D9FC0646641CD6E0172C18D1304600F0E8
:10300000E1F932288FD9FFF7D7FC074608220F498C
:103010007031FDF7B1F910B1641C0025C3E0032D38
:1030200002DA6D1C641EBEE0641C0025BBE0182C97
:103030000ED100F0A3FD08210448683000F00EFE18
:10304000FFF7B0FC0646641CADE00000C828002075
:10305000192C17D1304600F0B5F9322809D9FFF7FD
:10306000ABFC074608225249FDF786F910B1641CF3
:10307000002598E0032D02DA6D1C641E93E0641CA9
:10308000002590E01A2C1ED100F078FD48486838E1
:10309000B0F8C800010A4648683880F87C1090F8FB
:1030A000C81080F87D100422D0F8C810783000F0E5
:1030B0001FFB08213E48103000F0D0FDFFF772FCE6
:1030C0000646641C6FE01B2C18D1304600F07AF9DC
:1030D000322868D9FFF770FC0746082234491031BE
:1030E000FDF74AF910B1641C00255CE0032D02DAFB
:1030F0006D1C641E57E0641C002554E01C2C0BD191
:1031000000F03CFD00212A48203000F0A5F9FFF72F
:1031100049FC0646641C46E01D2C18D1304600F0E0
:1031200051F932283FD9FFF747FC074608222049CA
:103130002D31FDF721F910B1641C002533E0032D7A
:1031400002DA6D1C641E2EE0641C00252BE01E2C90
:103150000BD100F013FD08211548553000F07EFD1D
:10316000FFF720FC0646641C1DE01F2C18D13046DA
:1031700000F028F9322816D9FFF71EFC074608226E
:103180000B495531FDF7F8F810B1641C00250AE031
:10319000032D02DA6D1C641E05E0641C002502E0AC
:1031A000202C00D100E055E500BFBDE8F081000013
:1031B0003029002008B501210420FEF7FFFAF02095
:1031C000ADF8000048208DF8030001208DF80200C2
:1031D00069461348FEF733F901211120FEF7EEFA94
:1031E0007020ADF8000048208DF8030001208DF814
:1031F000020069460B48FEF722F901210820FEF77C
:10320000DDFA0320ADF8000048208DF8030001200E
:103210008DF8020069460448FEF711F908BD000068
:103220000008014000100140000C014008B562B6E2
:103230002E4800684FF47A72B0FBF2F1481EB0F1EC
:10324000807F00D31BE0481E4FF0E02250615017F2
:103250000F22002804DB13071C0E254B1C5406E02C
:1032600013071D0E234B00F00F04241F1D5500BF34
:1032700000204FF0E02290610720106100BF4FF462
:10328000165000F053FB4FF4165000F0D1FB4FF4F2
:10329000964000F085FC00F059FAFFF78BFFFDF730
:1032A00011FE00F0F1F800F029F8FFF70FFBFFF72F
:1032B0001DFBFFF7D9FA00200346024601460090A5
:1032C0000A20FDF701FB00200B4908740CE0FFF712
:1032D00023F8FEF7FDFAFDF7D3FE1E20FFF770FB83
:1032E000FEF7C8FCFEF78CF9F1E700008000002033
:1032F00000E400E018ED00E0682A002000210E4AFA
:10330000518000EBC0020D4B03EBC202518006213D
:103310000B4AC2F8D41000200BE0002100EBC002E1
:10332000064B23F8321000EBC00203EBC2025164DB
:10333000401C8028F1DB7047BC270020640100207E
:10334000C8280020F0B589B005460E461446202155
:1033500001A8FDF7B0F833462A4618A101A8FCF7EA
:103360005DFF012C08D101A8FDF732F80746394668
:1033700001A800F02FFB1FE0022C08D101A8FDF7E7
:1033800027F80746394601A800F0AAFB14E0032CF1
:1033900008D101A8FDF71CF80746394601A800F03E
:1033A000D1FB09E0042C07D101A8FDF711F807466D
:1033B000394601A800F052FC09B0F0BD25733D2547
:1033C000640D000000B50146FFF7ECFA401A00BD9D
:1033D00008B501210920FEF7F1F901210B48FEF79C
:1033E000B9F84FF48040ADF8000010208DF80300CC
:1033F00001208DF8020069460548FEF720F84FF4D9
:1034000080410348FEF7F7F808BD000000023000D5
:10341000000C014008B501210920FEF7CFF9012178
:103420000B48FEF797F84FF40040ADF8000010206D
:103430008DF8030001208DF8020069460548FDF76C
:10344000FEFF4FF400410348FEF7D5F808BD000029
:1034500000023000000C014070B504460D46280EF5
:103460006072280CA072280AE07125720B21204698
:10347000FFF7DAF90646300AE07226730D2120467E
:1034800000F0ECFB70BD000000B5B3B066A30FCB3D
:10349000CDE93123CDE92F0167A103C9CDE92D0184
:1034A00067A103C9CDE92B0167A103C9CDE92901B2
:1034B00067A103C9CDE9270167A103C9CDE92501AA
:1034C000674903C9CDE9230166A103C9CDE92101FB
:1034D00066A103C9CDE91F0166A103C9CDE91D019C
:1034E00066A103C9CDE91B0166A103C9CDE9190194
:1034F00066A103C9CDE9170166A103C9CDE915018C
:1035000066A103C9CDE9130166A103C9CDE9110183
:1035100066A103C9CDE90F0166A103C9CDE90D017B
:1035200066A103C9CDE90B0166A103C9CDE9090173
:1035300066A103C9CDE9070166A103C9CDE905016B
:1035400066A103C9CDE9030166A103C9CDE9010163
:103550000D222FA96548FCF75AFF64480838DDE9B9
:103560002D1206C08838DDE92B12C0E91E129530F5
:10357000299901602A9941609538DDE9271206C032
:103580000838DDE92512C0E90212DDE92312C0E99D
:103590000412DDE92112C0E90612DDE91F12C0E9BB
:1035A0000812DDE91D12C0E90A12DDE91B12C0E9AB
:1035B0000C12DDE91912C0E90E12DDE91712C0E99B
:1035C0001012DDE91512C0E91212DDE91312C0E98B
:1035D0001412DDE91112C0E91612DDE90F12C0E97B
:1035E0001812DDE90D12C0E91A12DDE90B12C0E96B
:1035F0001C129D30099901600A99416008300799B1
:1036000001600899416008300599016006994160A0
:103610000830039901600499416008300199016004
:103620000299416033B000BD0110016800020486B8
:10363000A00001111B00000001060001000119CAD1
:103640000106019001F4880C011001680002C1E834
:10365000010600020003680B010600040000C80B0D
:10366000C83E000801100050000241D90106009038
:103670000001482701060094000109E601060096B2
:10368000000069E6010600800000982C0106008118
:103690000001982C010600840004C8200106008562
:1036A0000014982C010600860011A82F010600873F
:1036B0000010382F010601A000FFC8540106008F3A
:1036C000000179E1010601A4000248140103047815
:1036D00000010523010601A400010815010601A44B
:1036E0000000C9D5010601A70801FFD55029002017
:1036F0002DE9F04104460E461546300A20716671E8
:1037000006212046FFF790F80746380AA071E771B6
:10371000012D04D10821204600F05CF913E0022DB0
:1037200004D10821204600F0DBF90CE0032D04D180
:103730000821204600F006FA05E0042D03D10821F7
:10374000204600F08BFABDE8F08100009FB04EA04B
:1037500000681E904DA103C9CDE91C014DA103C90C
:10376000CDE91A014DA103C9CDE918014DA103C945
:10377000CDE916014DA0006815904DA00068149089
:103780004CA103C9CDE912014CA103C9CDE9100137
:103790004CA103C9CDE90E014CA103C9CDE90C012F
:1037A0004CA103C9CDE90A014CA103C9CDE9080127
:1037B0004CA103C9CDE906014CA103C9CDE904011F
:1037C0004CA103C9CDE902014CA103C9CDE9000117
:1037D0004C481E9901601C998160BDF8741081816C
:1037E00018990161BDF8641081821A998161BDF850
:1037F0006C10818316990162BDF85C108184159963
:1038000081621499016312998163BDF84C1081871C
:1038100010990164BDF84410A0F84410803000995C
:103820000161BDF80410818204998160BDF8141013
:10383000818102990160BDF80C10818080380A995D
:103840008164BDF82C10A0F84C1006990167BDF8F2
:103850001C10A0F8741008998165BDF82410A0F818
:103860005C100E990165BDF83C10A0F854100C993D
:103870008166BDF83410A0F86C1000202149C1F811
:10388000C8001FB070470000000620080106200095
:1038900000050000010620000001000001062000D4
:1038A000000200000106200105DC000001062003E3
:1038B000010620040103200300010000010320048D
:1038C0000001000001062000000700000106200999
:1038D0000003000001032104000100000103200196
:1038E000000100000006200B000500000006200279
:1038F0000002000000062006000200000006200A68
:10390000000100009400002010B5C8210448FCF715
:10391000B0FD0020034908600349086010BD0000A5
:1039200064250020000000200800002010B586B0AB
:103930000446012144F20500FDF740FF2348FEF74D
:103940002FFB4FF40070ADF8140001208DF8160025
:1039500018208DF8170005A91D48FDF770FD4FF4DC
:103960008060ADF8140004208DF8170005A91848F0
:10397000FDF765FD01940020ADF80800ADF80A00E0
:10398000ADF80C00ADF810000C20ADF80E0001A948
:103990000E48FEF7AFFB25208DF8000003208DF8C0
:1039A000010004208DF8020001208DF80300684614
:1039B000FDF7ACFE012240F225510448FEF775FBED
:1039C00001210248FEF7E0FA06B010BD00380140C0
:1039D0000008014070B506460C460025002C00DCAE
:1039E00070BD00250BE0715D0748FEF7F4FB00BFDA
:1039F00080210548FEF722FB0028F9D06D1CA54266
:103A0000F1DB00BFECE700000038014010B5C82131
:103A10000448FCF72EFD00200349086003490860B4
:103A200010BD00002C2600200C00002010000020FB
:103A300010B586B0044601214804FDF79FFE012120
:103A40000520FDF7BBFE2448FEF7AAFA0420ADF8D6
:103A5000140001208DF8160018208DF8170005A914
:103A60001E48FDF7ECFC0820ADF8140004208DF88A
:103A7000170005A91948FDF7E2FC01940020ADF8F4
:103A80000800ADF80A00ADF80C00ADF810000C20ED
:103A9000ADF80E0001A91048FEF72CFB26208DF88A
:103AA000000003208DF8010002208DF802000120A3
:103AB0008DF803006846FDF729FE012240F22551EA
:103AC0000548FEF7F2FA01210348FEF75DFAFFF719
:103AD000A1FC06B010BD00000044004000080140F9
:103AE00070B506460C460025002C00DC70BD4FF476
:103AF00000411148FDF781FD4FF47A7000F0DEF8C7
:103B000000250BE0715D0D48FEF765FB00BF8021CD
:103B10000A48FEF793FA0028F9D06D1CA542F1DBA4
:103B20000748008800F0CAF84FF400410248FDF74A
:103B300062FD00BFDAE70000000C014000440040D5
:103B40001E00002070B506460C460025002C00DC47
:103B500070BD00250BE0715D0748FEF73CFB00BF20
:103B600080210548FEF76AFA0028F9D06D1CA542AD
:103B7000F1DB00BFECE700000048004010B5C821B1
:103B80000448FCF776FC00200349086003490860FC
:103B900010BD0000A02900203000002034000020CB
:103BA00010B586B004460121C804FDF7E7FD0121E8
:103BB0001120FDF703FE2748FEF7F2F94FF480606D
:103BC000ADF8140001208DF8160018208DF81700AC
:103BD00005A92148FDF733FC4FF40060ADF814004F
:103BE00048208DF8170005A91B48FDF728FC019413
:103BF0004FF48050ADF808000020ADF80A004FF4F3
:103C00008060ADF80C000020ADF810000C20ADF87D
:103C10000E0001A90F48FEF76DFA34208DF8000060
:103C200003208DF801008DF8020001208DF80300BB
:103C30006846FDF76BFD012240F225510548FEF76D
:103C400034FA01210348FEF79FF9FFF7C1FB06B0E4
:103C500010BD0000004C00400010014070B5064649
:103C60000C460025002C00DC70BD4FF4804111484B
:103C7000FDF7C3FC4FF47A7000F020F800250BE04C
:103C8000715D0D48FEF7A7FA00BF80210A48FEF7D4
:103C9000D5F90028F9D06D1CA542F1DB42F2107075
:103CA00000F00CF84FF480410248FDF7A4FC00BF7F
:103CB000DAE70000000C0140004C0040002100E069
:103CC000491C8142FCDB70470000C1C081C140013A
:103CD00001C3C003800241C201C6C006800741C7BC
:103CE0000005C1C581C4400401CCC00C800D41CD8C
:103CF000000FC1CF81CE400E000AC1CA81CB400B5C
:103D000001C9C009800841C801D8C018801941D92B
:103D1000001BC1DB81DA401A001EC1DE81DF401FBB
:103D200001DDC01D801C41DC0014C1D481D54015CB
:103D300001D7C017801641D601D2C012801341D3DB
:103D40000011C1D181D0401001F0C030803141F16B
:103D50000033C1F381F240320036C1F681F74037BB
:103D600001F5C035803441F4003CC1FC81FD403D8B
:103D700001FFC03F803E41FE01FAC03A803B41FB5B
:103D80000039C1F981F840380028C1E881E94029AB
:103D900001EBC02B802A41EA01EEC02E802F41EFBB
:103DA000002DC1ED81EC402C01E4C024802541E5CB
:103DB0000027C1E781E640260022C1E281E34023DB
:103DC00001E1C021802041E001A0C060806141A1EB
:103DD0000063C1A381A240620066C1A681A74067BB
:103DE00001A5C065806441A4006CC1AC81AD406D8B
:103DF00001AFC06F806E41AE01AAC06A806B41AB5B
:103E00000069C1A981A840680078C1B881B940792A
:103E100001BBC07B807A41BA01BEC07E807F41BFBA
:103E2000007DC1BD81BC407C01B4C074807541B5CA
:103E30000077C1B781B640760072C1B281B34073DA
:103E400001B1C071807041B00050C190819140516A
:103E50000193C053805241920196C05680574197BA
:103E60000055C19581944054019CC05C805D419D8A
:103E7000005FC19F819E405E005AC19A819B405B5A
:103E80000199C059805841980188C04880494189AA
:103E9000004BC18B818A404A004EC18E818F404FBA
:103EA000018DC04D804C418C0044C18481854045CA
:103EB0000187C047804641860182C04280434183DA
:103EC0000041C18181804040011000500002040087
:103ED000F03E000800000020940000006C01000883
:103EE000843F00089400002054310000880100083D
:103EF00000000000000000000000000000000000C2
:103F000000000000000000000000000001000000B0
:103F100076657273696F6E2076332E312E31000014
:103F20000000000000000000000000000000000091
:103F30000000000000000000000000000000000081
:103F40000000000000000000000000000000000071
:103F50000000000000000000000000000000000061
:103F6000010203040102030406070809020406080B
:103F700000A24A0400000000000000000102030447
:043F8000060708091F
:0400000508000131BD
:00000001FF
