:020000040800F2
:1000000000320020E9010008F1010008F3010008B6
:10001000F5010008F7010008F901000800000000E0
:10002000000000000000000000000000FB010008CC
:10003000FD01000800000000FF010008A92A0008D7
:10004000030200080302000803020008030200087C
:10005000030200080302000803020008030200086C
:10006000030200080302000803020008030200085C
:10007000030200080302000803020008030200084C
:10008000030200080302000803020008030200083C
:10009000A12E000803020008030200080302000862
:1000A000030200080302000803020008030200081C
:1000B000030200080302000803020008030200080C
:1000C00003020008030200080302000803020008FC
:1000D000030200085D2B0008C12B0008052C000856
:1000E00003020008030200080302000803020008DC
:1000F00003020008030200080302000803020008CC
:1001000003020008030200080302000803020008BB
:10011000192B00080302000803020008030200086C
:10012000030200080302000803020008030200089B
:1001300000F002F800F048F80AA090E8000C8244B1
:100140008344AAF10107DA4501D100F03DF8AFF28E
:10015000090EBAE80F0013F0010F18BFFB1A43F0A5
:10016000010318474454000064540000103A24BFAF
:1001700078C878C1FAD8520724BF30C830C144BF0C
:1001800004680C607047000000230024002500264E
:10019000103A28BF78C1FBD8520728BF30C148BFEA
:1001A0000B607047642900F08780002070471FB5FE
:1001B00000F096FA04000020002105F0ADF8401C84
:1001C00060601FBD10B510BD00F09CFA1146FFF72E
:1001D000EEFF03F0D9FE00F0BAFA03B4FFF7F2FF26
:1001E00003BC00F0FBFA00000948804709480047BB
:1001F000FEE7FEE7FEE7FEE7FEE7FEE7FEE7FEE7D7
:10020000FEE7FEE704480549054A064B7047000033
:10021000B92A000831010008002C0020003200201B
:10022000002E0020002E00200FB41CB5074B06AA9C
:100230007B4469460090059800F0E7F90020694684
:1002400000F0F6F91CBC5DF814FB0000FD03000093
:100250002DE9F0410E460446002020622046E16868
:10026000884730B3252805D0D4E901219047206A7A
:10027000401CF2E7E168204600278847050018D0B7
:10028000A5F14100192802D820354FF40067324605
:10029000294620462760FFF785FF40B1012804D09A
:1002A000F61D26F007060836D8E7361DD6E728469D
:1002B000DAE7206ABDE8F0812DE9F0410646002426
:1002C00010687529314616A510D0AFF300800028BC
:1002D00002DA404213A507E031688A0701D512A56A
:1002E00002E0490704D511A5012401E0AFF3008025
:1002F00000210A2206F1240709E0B0FBF2FCB0FB62
:10030000F2F302FB1C00303078541846491C0028D8
:10031000F3D123462A463046BDE8F04100F016B935
:10032000000000002D0000002B0000002000000055
:100330002DE9F04791460F4680460446002614F802
:10034000015B2DB100F0F6F80068405DC007F6D102
:100350002B2D02D02D2D18D0641E4A46394620463A
:1003600000F06BF927B13968A14201D1C7F80080CC
:100370004FF0020471050BD54042002803DD00F068
:10038000E1F80460A007BDE8F08746F48066E4E782
:100390000028F8DA00F0D6F804606FF00040F2E7C9
:1003A00040EA010310B59B070FD1042A0DD310C8F2
:1003B00008C9121F9C42F8D020BA19BA884201D944
:1003C000012010BD4FF0FF3010BD1AB1D30703D08C
:1003D000521C07E0002010BD10F8013B11F8014B42
:1003E0001B1B07D110F8013B11F8014B1B1B01D15E
:1003F000921EF1D1184610BD10B5431C02E010F852
:10040000011B71B18107FAD14FF0013202C88C1A79
:100410008C4314EAC211F9D0C01A0A0603D0C01ED8
:1004200010BDC01A10BD0A0401D0801E10BD090203
:10043000FCD0401E10BD10B5203AC0F00B80B1E8D2
:100440001850203AA0E81850B1E81850A0E8185009
:10045000BFF4F5AF5FEA027C24BFB1E81850A0E812
:10046000185044BF18C918C0BDE810405FEA827C2C
:1004700024BF51F8043B40F8043B08BF7047D20743
:1004800028BF31F8023B48BF11F8012B28BF20F8E4
:10049000023B48BF00F8012B70474FF000020429CF
:1004A000C0F0128010F0030C00F01B80CCF1040CA3
:1004B000BCF1020F18BF00F8012BA8BF20F8022BD7
:1004C000A1EB0C0100F00DB85FEAC17C24BF00F87D
:1004D000012B00F8012B48BF00F8012B70474FF0AB
:1004E000000200B5134694469646203922BFA0E884
:1004F0000C50A0E80C50B1F12001BFF4F7AF090790
:1005000028BFA0E80C5048BF0CC05DF804EB890080
:1005100028BF40F8042B08BF704748BF20F8022BC3
:1005200011F0804F18BF00F8012B704770477047DB
:100530007047000010B500F0D3F8001D10BD00BFDB
:10054000D94D0000004870479C2B00202DE9F04752
:100550000D4699469246044600F124080168880633
:1005600004D5E06921F01001216000E00120A842DB
:1005700001DD471B00E00027A1697A1902EB0900A1
:10058000081AA0612078C00602D42046AFF300808C
:10059000002608E0D4E901211AF806009047206AF5
:1005A000401C761C20624E45F4DB2078C0060AD53C
:1005B0002046AFF3008006E0D4E9012130209047C7
:1005C000206A401C2062381EA7F10107F4DC07E016
:1005D000D4E9012118F805009047206A401C2062E8
:1005E000281EA5F10105F3DC2046AFF3008020783A
:1005F000000602D50220BDE8F0870120FBE70000DD
:1006000001694A1C02610878704700B58FB0CDE9D6
:1006100001310021059105497944CDE903101146C6
:100620006846FFF715FE0FB000BD0000E5FFFFFFB5
:100630000A6802F8010B0A6070472DE9F05F8246F4
:1006400015468B4600270AF10104B9460078302888
:1006500001D09DB113E014F8010B0127782803D0D5
:10066000582801D045B10AE00DB1102D07D100275F
:1006700014F8010B102502E0082500E00A250026E9
:10068000B0460EE005FB080005FB06F101271FFA46
:1006900080F801EB1046B6F5803F00D3B94614F858
:1006A000010B294600F020F80028EBDABBF1000F1F
:1006B00005D00FB1641E00E05446CBF80040B9F1FC
:1006C000000F06D0FFF73EFF02210160C81EBDE803
:1006D000F09F48EA0640FAE7004870479C2B00204C
:1006E00000487047BC2B00203A2800D2303820F058
:1006F0002002412A01D3A2F13700884201D34FF0F2
:10070000FF3070477546FFF7E7FFAE4605006946C4
:10071000534620F00700854618B020B5FFF772FD5C
:10072000BDE820404FF000064FF000074FF00008F2
:100730004FF0000B21F00701AC46ACE8C009ACE873
:10074000C009ACE8C009ACE8C0098D467047044652
:10075000AFF300802046FFF740FD00004FF0013C62
:1007600050F8042B51F8043B9A4221D1A2EB0C0320
:10077000934313EACC1317D150F8042B51F8043BE0
:100780009A4215D1A2EB0C03934313EACC130BD17D
:1007900050F8042B51F8043B9A4209D1A2EB0C0308
:1007A000934313EACC13DBD04FF00000704700BF37
:1007B000D01A01BAB1FA81F101F0180122FA01F060
:1007C000CB40C1F12001DBB2C0B2C01A2CFA01F358
:1007D000D11A914311EAC311E6D17047014918209B
:1007E000ABBEFEE7260002007047000010B50021F6
:1007F000837A012202FA03F13D4A126842F00102B3
:100800003B4B1A603A4A1C3212688A43384B1C33FD
:100810001A60027BCAB9364A0C3212688A43344BDA
:100820000C331A604288C38842EA0343304A40329C
:10083000847A42F834300288838842EA03432C4A9F
:100840004032847A02EBC4025360027B012A19D140
:10085000274A0C3212680A43254B0C331A6042882F
:10086000038842EA0343224A4032847A42F8343011
:10087000C288838842EA03431D4A4032847A02EBED
:10088000C4025360C27A3AB9194A121D12688A43E7
:10089000174B1B1D1A6006E0154A121D12680A4309
:1008A000134B1B1D1A60028932B9114A14321268A7
:1008B0008A430F4B14331A600289012A06D10C4A6D
:1008C000143212680A430A4B14331A60427B012A1D
:1008D00006D1074A1C3212680A43054B1C331A60C2
:1008E000034A126822F00102014B1A6010BD000099
:1008F000006600401AB143690B43436102E043695B
:100900008B434361704730B50246002000231468D2
:1009100024F002041460146844F00104146000E040
:100920005B1C546804F001041CB94FF6FF74A34229
:10093000F6D1546804F001040CB900206CE08C7905
:10094000012C04D1146844F08004146003E014689E
:1009500024F080041460CC79012C04D1146844F094
:100960004004146003E0146824F0400414600C7A1E
:10097000012C04D1146844F02004146003E01468CE
:1009800024F0200414604C7A012C04D1146844F043
:100990001004146003E0146824F0100414608C7ACE
:1009A000012C04D1146844F00804146003E01468B6
:1009B00024F008041460CC7A012C04D1146844F0AB
:1009C0000404146003E0146824F0040414608C78B8
:1009D000A407CD7844EA05640D7944EA05444D79CD
:1009E00044EA05540D886D1E2C43D461146824F02C
:1009F00001041460002300E05B1C546804F001044F
:100A00001CB14FF6FF74A342F6D1546804F0010400
:100A10000CB1002000E0012030BD00002DE9F041C4
:100A20008AB004460F4615461E46DDF840800D2D5F
:100A300003D901200AB0BDE8F0810121480601F088
:100A4000EBF80121092001F007F901214FF4EA1028
:100A500000F0ACFF4FF48070ADF8240003208DF857
:100A6000260048208DF8270009A99E4800F013FFB2
:100A70004FF40070ADF8240018208DF8270009A964
:100A8000984800F008FF012212219748FFF732FF33
:100A900014208DF8040001208DF8050000208DF849
:100AA000060001208DF8070001A801F07DF815204F
:100AB0008DF8040001208DF8050000208DF8060057
:100AC00001208DF8070001A801F06EF800208DF8D4
:100AD0001E008DF81F008DF8200001208DF82100E8
:100AE00000208DF822008DF823008DF81A700F2C4D
:100AF00073D2DFE804F0081624313E4B586573804A
:100B00008D9AA7B4C10001208DF81B0005208DF837
:100B10001C0003208DF81D004FF41670ADF818006E
:100B2000B8E000208DF81B0002208DF81C00012089
:100B30008DF81D004FF41670ADF81800AAE00020E3
:100B40008DF81B0009208DF81C0006208DF81D0073
:100B50006420ADF818009DE000208DF81B000220F5
:100B60008DF81C0001208DF81D00F020ADF8180054
:100B700090E000208DF81B0002208DF81C00012061
:100B80008DF81D009620ADF8180083E000208DF848
:100B90001B0009208DF81C0006208DF81D00282060
:100BA000ADF8180076E000208DF81B0002208DF8CB
:100BB0001C0001208DF81D004B20ADF8180069E0E5
:100BC00000208DF81B0009208DF81C0006208DF8F0
:100BD0001D001420ADF818005CE05AE000208DF8EC
:100BE0001B0002208DF81C0001208DF81D00302014
:100BF000ADF818004EE000208DF81B0007208DF89E
:100C00001C0006208DF81D000920ADF8180041E0F9
:100C100000208DF81B0002208DF81C0001208DF8AB
:100C20001D001820ADF8180034E000208DF81B00DE
:100C300004208DF81C0002208DF81D000A20ADF85C
:100C4000180027E000208DF81B0005208DF81C00FF
:100C500004208DF81D000620ADF818001AE00020D1
:100C60008DF81B0004208DF81C0002208DF81D005B
:100C70000520ADF818000DE000208DF81B000220C3
:100C80008DF81C0001208DF81D000620ADF818001D
:100C900000E000BF00BF06A91348FFF734FEE8B22A
:100CA0008DF8120000208DF8130001208DF814003B
:100CB000300CADF80800F0B2ADF80A004FEA184069
:100CC000ADF80C0008F0FF00ADF80E000020ADF804
:100CD000100001208DF8150002A8FFF787FD002005
:100CE000A8E60000000C01400064004010B500F5CB
:100CF000D87303EB01131B6803F004031372137A18
:100D000053B900F5D87303EB01131B6840F2FF746D
:100D100004EA5353136009E000F5D87303EB0113A1
:100D20001B686FF0604404EAD303536000F5D87386
:100D300003EB01131B6803F00203537200F5D87331
:100D400003EB01135B6803F00F03937200F5D87394
:100D500003EB01135B681B0AD37400F5D87303EB34
:100D600001139B68D37200F5D87303EB01139B68E2
:100D70001C0A147300F5D87303EB01139B681C0C59
:100D8000547300F5D87303EB01139B681B0E937328
:100D900000F5D87303EB0113DB68D37300F5D87348
:100DA00003EB0113DB681C0A147400F5D87303EB22
:100DB0000113DB681C0C547400F5D87303EB0113AA
:100DC000DB681B0E937421B9C36843F02003C36032
:100DD00003E0036943F02003036110BD10B5024630
:100DE0000020936803F08063B3F1806F00D110E0BE
:100DF000936803F00063B3F1006F01D1012008E0B4
:100E0000936803F08053B3F1805F01D1022000E0CA
:100E10000420042874D002F5C07303EB00131B6890
:100E200003F0010402F5C07303EB00131C600B7A9E
:100E30007BB94B7A0C8843EA445302F5C07404EB47
:100E400000142468234302F5C07404EB00142360EB
:100E500010E00B7A4C6843EAC4034C7A234302F552
:100E6000C07404EB00142468234302F5C07404EB3F
:100E7000001423608B7A03F00F038B7202F5C073AA
:100E800003EB00135B6823F00F0402F5C07303EB60
:100E900000135C6002F5C07303EB00135B688C7A8F
:100EA000234302F5C07404EB001463608B7B1C06C3
:100EB0004B7B44EA03440B7B44EA0323CC7A234371
:100EC00002F5C07404EB0014A3608B7C1C064B7C01
:100ED00044EA03440B7C44EA0323CC7B234302F51E
:100EE000C07404EB0014E36002F5C07303EB00135D
:100EF0001B6843F0010402F5C07303EB00131C6090
:100F000010BD000010B50246002321B1012907D011
:100F100002290FD109E090681D4C00EA04030BE0A0
:100F200090681C4C00EA040306E090681A4C00EA42
:100F3000040301E0002300BF00BF184C181BA342AC
:100F400016D007DC83B16FF08060184470B10228BE
:100F500018D111E0B0F5007F10D0114C204448B1F9
:100F6000B0F5003F0ED10BE002230DE000230BE0B3
:100F7000002309E0002307E0012305E0012303E04B
:100F8000012301E0002300BF00BFD8B210BD000064
:100F90000300000400030008000003100001000823
:100FA0000001FFF72DE9F04186B005468846164658
:100FB00000240195029500208DF80C008DF80D009D
:100FC0008DF80E6000BF06E018F804100DF10F0058
:100FD0000155601C84B2B442F6DB01A90D48FFF74D
:100FE000FDFE0746002401E0601C84B23946094832
:100FF000FFF788FF012803D040F6FF708442F3DB3F
:1010000040F6FF70844203DB012006B0BDE8F081AA
:101010000020FAE7006400402DE9F041002400259B
:1010200000221146674802F0A2FC02F075FB06465A
:1010300000BF02F071FB801BB0F5FA6FF9D3BCE082
:101040005CB904F00DF801215E48683802F07EFCBE
:1010500002F062FB06460124AFE0012C18D13046B5
:1010600003F048F83228EAD902F06EFB074608225E
:1010700054496839FFF794F910B9002502249CE01F
:10108000032D02DA6D1C002497E00025022494E071
:10109000022C0ED103F0E4FF03244A4870380122E9
:1010A000D0F8AC10203002F062FC02F035FB0646AE
:1010B00083E0032C18D102F02FFB801B32287CD94F
:1010C00002F042FB074608223E495039FFF768F913
:1010D00010B90025042470E0032D02DA6D1C0224EF
:1010E0006BE00025042468E0042C0ED103F0B8FF67
:1010F000344870380122D0F8A810283002F037FCAC
:10110000052402F009FB064657E0052C18D102F031
:1011100003FB801B322850D902F016FB0746082239
:1011200028494839FFF73CF910B90025062444E066
:10113000032D02DA6D1C04243FE0002506243CE068
:10114000062C0ED103F08CFF1E4870380122D0F817
:10115000A810303002F00BFC072402F0DDFA06463E
:101160002BE0072C18D102F0D7FA801B322824D9A3
:1011700002F0EAFA0746082212494039FFF710F94F
:1011800010B90025642418E0032D02DA6D1C062432
:1011900013E00025642410E0642C0ED108200A49D5
:1011A000C1F8DC0007497039C1F8B00003F08AFAD1
:1011B00003F056FF04F00AF800E041E700BFBDE885
:1011C000F08100002C010020DC28002010B502F086
:1011D000BBFA0446FB48D0F8B00003280AD1082027
:1011E000F849C1F8B0000A20F74908600020F74923
:1011F00008602EE0F348D0F8B00002280AD1082099
:10120000F049C1F8B0002820EF4908600020EF49FC
:1012100008601EE0EB48D0F8B00005280AD108208D
:10122000E849C1F8B0001420E74908600020E74908
:1012300008600EE0E348D0F8B000072809D1082084
:10124000E049C1F8B0003220DF4908600020DF49E2
:101250000860DD48006838B902F05EFADC490860D1
:101260000120D949086061E2D748006801280AD105
:10127000D748006802F03EFFB0F57A7FF3D91E2010
:10128000D149086052E2D04800680A2823D103F00F
:10129000E7FE0120CF494870CA48D0F8AC000A21C7
:1012A00090FBF1F07F2803DD7F20CA49887007E0BA
:1012B000C448D0F8AC000A2190FBF1F0C549887011
:1012C000C44803F011F902F027FAC14908600B2065
:1012D000BD4908602AE2BC4800680B284ED1BC48D2
:1012E000006802F007FF3228BDD902F031FA042865
:1012F0002FD12078992828D16078A1784840E178CA
:10130000884222D1A07810B1A078102804D10821F9
:10131000B14803F00FFF18E0A07800F0010020B101
:101320000120AE4981F80E010FE0A07800F0020024
:10133000022804D10520A94981F80E0105E0A07812
:1013400040F08000A54981F80E0100209E49086008
:10135000ECE19E480068022808DA9C480068401CBE
:101360009A4908600A2098490860DFE10020964900
:1013700008600821984803F0DDFED7E19248006834
:10138000142813D103F06CFE00209249887008469F
:1013900003F0AAF8052192A003F046FE02F0BCF982
:1013A0008B490860152088490860BFE186480068BD
:1013B000152856D18648006802F09CFE322889D94B
:1013C00002F0C6F9042833D1207899282CD160780E
:1013D000A1784840E178884226D1A07810B1A07861
:1013E000102808D108217C4803F0A4FE0E217EA01D
:1013F00003F01AFE18E0A07800F0010020B10120EF
:10140000764981F80E010FE0A07800F00200022872
:1014100004D10520714981F80E0105E0A07840F063
:1014200080006E4981F80E010020674908607DE167
:1014300066480068022808DA64480068401C63496E
:10144000086014206049086070E10E216AA003F072
:10145000EBFD00205C49086008215F4803F06AFE4C
:1014600064E1594800681E280CD103F0F9FD594881
:1014700003F03AF802F050F9554908601F2052492C
:10148000086053E1504800681F283ED1504800686A
:1014900002F030FE322888D902F05AF904282CD301
:1014A000207899282DD16078A1784840E178884249
:1014B00027D1A07810B1A078102804D10020474986
:1014C00081F80E011DE0A07800F0010020B101209C
:1014D000424981F80E0114E0A07800F002000228D1
:1014E00004D105203D4981F80E010AE0A07840F0C2
:1014F00080003A4981F80E0103E0FF20374981F866
:101500000E0100203049086010E12F4800682828AB
:1015100023D103F0A5FD41202E4948702948D0F879
:10152000AC000A2190FBF1F07F2803DD7F202949E0
:10153000887007E02348D0F8AC000A2190FBF1F056
:1015400024498870234802F0CFFF02F0E5F82049D3
:10155000086029201C490860E8E01B480068292829
:1015600072D11B48006802F0C5FD322889D902F00B
:10157000EFF8042852D1207899284BD16078A178CF
:101580004840E178884245D1A07810B1A078102871
:1015900004D10821104803F0CDFD3BE0A07800F015
:1015A000010020B101200D4981F80E0132E0A07840
:1015B00000F00200022827D10520084981F80E0119
:1015C00028E00000BC0000206C000020700000201B
:1015D000680000207C00002074000020C827002044
:1015E00073746F700D0000006361722073656E6428
:1015F00020737563630D00006361722073656E6410
:10160000206661696C0D0000A07840F080004849B8
:1016100081F80E0100204749086087E046480068CD
:10162000022808DA44480068401C43490860282022
:10163000404908607AE000203E49086008213F48A0
:1016400003F078FD72E0FFE73A480068322822D1C3
:1016500003F006FD3A48D0F8AC000A2190FBF1F007
:101660007F2803DD7F203749887007E03448D0F8B1
:10167000AC000A2190FBF1F032498870314802F049
:1016800033FF02F049F8304908602A480068401CDE
:10169000284908604AE027480068332846D12A488C
:1016A000006802F027FD322840D902F051F80428E2
:1016B0002AD12078992823D16078A1784840E17810
:1016C00088421DD1A078D8B1A078102818D0A07871
:1016D00000F0010020B10120154981F80E010FE052
:1016E000A07800F00200022804D10520104981F8FA
:1016F0000E0105E0A07840F080000D4981F80E0150
:1017000000200C49086011E00B48006802280ADA42
:1017100009480068401C0849086006480068401EE7
:101720000449086002E000200249086010BD000082
:10173000C82700206C0000207000002074000020EA
:10174000BC0000207C000020680000200149C86027
:10175000704700000020024030B5044604254FF4D5
:10176000302000F085F80546042D17D10C4800699B
:1017700040F002000A49086108464461006940F0EF
:10178000400008614FF4302000F072F8054604482C
:10179000006941F6FD71084001490861284630BDE5
:1017A0000020024004200B49C96801F0010109B181
:1017B00001200EE00749C96801F0040109B10220C7
:1017C00007E00449C96801F0100109B1032000E0F5
:1017D00004207047002002400348006940F0800068
:1017E00001490861704700000020024078B50646B4
:1017F0000C46042500200090E80200F039F8054668
:10180000042D24D11348006940F0010011490861FA
:101810003480E80200F02CF80546042D10D1B01CED
:101820000090200C00990880E80200F021F805469D
:101830000848006941F6FE7108400649086106E063
:101840000448006941F6FE710840024908612846D3
:1018500078BD000000200240024803494860034868
:10186000486070472301674500200240AB89EFCDF7
:1018700000B502460423FFF795FF034603E0FFF798
:1018800091FF0346521E012B01D1002AF7D102B964
:101890000523184600BD2DE9F0410246002500262B
:1018A000002000230024002791F803C00CF00F054E
:1018B00091F803C00CF0100CBCF1000F03D091F8AC
:1018C00002C04CEA050591F800C0BCF1000F31D010
:1018D000146800202BE04FF0010C0CFA00F3B1F873
:1018E00000C00CEA03069E4220D183004FF00F0C8B
:1018F0000CFA03F7BC4305FA03FC4CEA040491F824
:1019000003C0BCF1280F06D14FF0010C0CFA00FC0B
:10191000C2F814C00AE091F803C0BCF1480F05D129
:101920004FF0010C0CFA00FCC2F810C0401C082853
:10193000D1D31460B1F800C0BCF1FF0F34DD54689E
:1019400000202EE000F1080C4FF0010808FA0CF31B
:10195000B1F800C00CEA03069E4221D183004FF08B
:101960000F0C0CFA03F7BC4305FA03FC4CEA040421
:1019700091F803C0BCF1280F05D100F1080C08FA5A
:101980000CF8C2F8148091F803C0BCF1480F07D1DD
:1019900000F1080C4FF0010808FA0CF8C2F81080AA
:1019A000401C0828CED35460BDE8F081F0B50A464B
:1019B000002300240021002500F00046B6F1004F6E
:1019C00002D11D4EF16901E01B4E7168C0F3034561
:1019D00083B200F44016B6F5401F08D121F07061C3
:1019E000154E766826F07066134F7E6012E000F4A4
:1019F0008016B6F5801F06D1032606FA05F4A1432A
:101A000041F0706106E0460D360103FA06F6B14377
:101A100041F0706122B1460D360103FA06F63143FA
:101A200000F00046B6F1004F02D1034EF16101E033
:101A3000014E7160F0BD0000000001400246002030
:101A400093680B400BB1012000E00020704741611A
:101A500070470161704700004CF6CC4001490860B6
:101A600070470000003000404AF6AA200149086093
:101A70007047000000300040014948607047000096
:101A8000003000400149886070470000003000408D
:101A900001490860704700000030004010B53E4822
:101AA000006850BB40213D48FFF7C8FF38B901F03E
:101AB00033FE3B49086001203749086007E0394898
:101AC00090F8100100F0EF003649A1F810018021D4
:101AD0003248FFF7B3FF38B901F01EFE3049086005
:101AE0000A202D49086055E02E4890F8100100F0BA
:101AF000DF002C49A1F810014CE0274800680128BC
:101B000012D12748006802F0F5FA0A2842D940218C
:101B10002248FFF793FF18B902201F49086039E0F7
:101B200000201D49086035E01B48006802280BD1E1
:101B30001C48B0F9100140F010001A49A1F810013A
:101B400000201549086025E0134800680A2812D1D2
:101B50001348006802F0CEFA0A281BD980210F48EA
:101B6000FFF76CFF18B90B200B49086012E000204A
:101B7000094908600EE0084800680B280AD10948A6
:101B8000B0F9100140F020000649A1F81001002032
:101B90000149086010BD00008C00002000100140C9
:101BA00090000020C827002070B5002100230F22DC
:101BB000C47804B3154C246804F4E064C4F5E0640C
:101BC000210AC1F10403CA40447804FA03F184787D
:101BD0001440214309010E4C0678A155047804F005
:101BE0001F050124AC4005786D11AD0005F1E0251D
:101BF000C5F8004109E0047804F01F050124AC4059
:101C0000044D0678761145F8264070BD0CED00E0D5
:101C100000E400E080E100E029B1064AD269024315
:101C2000044BDA6104E0034AD2698243014BDA6172
:101C3000704700000010024029B1064A12690243B1
:101C4000044B1A6104E0034A12698243014B1A6192
:101C5000704700000010024029B1064A9269024311
:101C6000044B9A6104E0034A92698243014B9A61F2
:101C7000704700000010024029B1064AD2680243B2
:101C8000044BDA6004E0034AD2688243014BDA6015
:101C9000704700000010024030B5002100220024EF
:101CA00000232D4D6D6805F00C0121B1042905D0EC
:101CB000082923D105E0294D056022E0274D056064
:101CC0001FE0254D6D6805F47012234D6D6805F415
:101CD0008034022505EB92421CB9214D5543056025
:101CE0000BE01D4D6D6805F400351DB11C4D5543CD
:101CF000056002E0194D5543056002E0174D05608F
:101D000000BF00BF144D6D6805F0F0010909154DC5
:101D10006B5C0568DD4045600F4D6D6805F4E06162
:101D2000090A104D6B5C4568DD4085600A4D6D68A1
:101D300005F46051C90A0B4D6B5C4568DD40C56018
:101D4000054D6D6805F44041890B074D6B5CC56816
:101D5000B5FBF3F5056130BD0010024000127A00BA
:101D600000093D0094000020A400002010B50146A9
:101D70000022002300204A11012A02D1094C2368C5
:101D800006E0022A02D1074C236A01E0054C636A8F
:101D900001F01F02012494401C400CB1012000E01E
:101DA000002010BD0010024001490860704700008B
:101DB000800442422DE9F0470646002401F0ACFCC5
:101DC000074600BF384602F095F9B0F57A7FF9D39F
:101DD000ADE194B90121D848FFF730FE01280AD1BE
:101DE0000221D548FFF72AFE012804D1641C01F026
:101DF00093FC07469BE1082499E1012C14D1384655
:101E000002F078F90A28E3D90121CB48FFF716FE42
:101E1000012807D10221C848FFF710FE012801D18F
:101E2000682484E1641E82E1082C0AD103F0CEF913
:101E30000121C24802F0A8F901F06EFC0746641CBB
:101E400075E1092C17D1384602F054F93228BFD970
:101E500001F084FC80460822B849FEF7A1FA10B1CF
:101E6000641C002563E1032D02DA6D1C641E5EE133
:101E70000025641C5BE10A2C0CD103F0A7F90422B5
:101E80003146AE48353802F002FB01F045FC07460A
:101E9000641C4CE10B2C18D1384602F02BF9322887
:101EA00096D901F05BFC80460822A4493539FEF73B
:101EB00077FA10B1641C002539E1032D02DA6D1C9C
:101EC000641E34E1641C002531E10C2C1AD101217F
:101ED0009948FFF7B3FD012805D102219648FFF785
:101EE000ADFD00B90F2401219348FFF7A7FD38B9D4
:101EF00002219148FFF7A2FD012801D10D2416E12E
:101F00000F2414E10D2C0FD103F060F98B48AD388C
:101F1000D0F8D80041428948253802F048F901F04C
:101F2000FBFB0746641C02E10E2C21D1384602F06F
:101F3000E1F81E2884D981482538FEF75DFA8046ED
:101F400001F00CFC814642467C492539FEF728FA0F
:101F500020B9642401F0E0FB0746E8E0022D02DA34
:101F60006D1C641EE3E0642401F0D6FB0746DEE04E
:101F70000F2C0DD103F02AF97048AD38D0F8D810E5
:101F8000883002F014F901F0C7FB0746641CCEE06C
:101F9000102C21D1384602F0ADF81E288CD96748A4
:101FA0002538FEF729FA804601F0D8FB81464246E3
:101FB00062492539FEF7F4F920B9642401F0ACFB3D
:101FC0000746B4E0022D02DA6D1C641EAFE0642403
:101FD00001F0A2FB0746AAE0642C19D10121564862
:101FE000FFF72CFD012807D102215348FFF726FDFA
:101FF000012801D1641C9AE0384602F07BF843F6D0
:10200000982188428FD909214DA003F00DF88FE067
:10201000652C14D1384602F06DF80A280CD901213C
:102020004548FFF70BFD012807D102214248FFF781
:1020300005FD012801D1641C79E0641E77E0662C5F
:102040000BD103F0C3F810213C48183002F09CF883
:1020500001F062FB0746641C69E0672C16D1384624
:1020600002F048F8322862D901F078FB8046082255
:1020700032491831FEF794F908B9641C57E0032D72
:1020800002DA6D1C641E52E0641C50E0682C0ED114
:1020900003F09CF82948AD380422D0F8D0107830ED
:1020A00002F0F5F901F038FB0746641C3FE0692CAB
:1020B00018D1384602F01EF8322838D901F04EFB0C
:1020C000804608221D493539FEF76AF910B100250E
:1020D000641C2CE0032D02DA6D1C641E27E0002531
:1020E000641C24E06A2C0AD103F070F80121134823
:1020F00002F04AF801F010FB0746641C17E06B2C55
:1021000015D1384601F0F6FF322810D901F026FB30
:10211000804608220949FEF743F908B1002507E087
:10212000032D02DA6D1C641E01E0002500E050E67C
:1021300000BFBDE8F0870000000C014089290020A5
:1021400074696D65206F75740D0000002DE9F04114
:10215000044601F003FB0546FB48D0F8DC0050B90B
:102160000A20FA4908600020F94908600820F64969
:10217000C1F8DC003EE0F448D0F8DC0001280AD1C8
:102180001420F24908600020F14908600820EE4957
:10219000C1F8DC002EE0EC48D0F8DC0005280AD1BC
:1021A0001E20EA4908600020E94908600820E64945
:1021B000C1F8DC001EE0E448D0F8DC0004280AD1B5
:1021C0003220E24908600020E14908600820DE4929
:1021D000C1F8DC000EE0DC48D0F8DC00072809D1AB
:1021E0003C20DA4908600020D94908600820D64917
:1021F000C1F8DC00D548006838B901F08DFAD5493E
:1022000008600120D149086095E2D04800680128A3
:102210000AD1D048006801F06DFFB0F57A7FF3D99C
:102220002820CA49086086E2C84800680A286CD19C
:102230000121C948FFF702FCA8B90221C648FFF7EF
:10224000FDFB01280FD1C548006800F5FA70C349AD
:1022500008600020C2490860C048006800F5FA70B4
:10226000C04908603BE00121BB48FFF7E7FB0128BC
:1022700014D10221B848FFF7E1FB78B9B8480068EB
:10228000A0F5FA70B64908600020B4490860B44867
:102290000068A0F5FA70B349086020E00121AE485B
:1022A000FFF7CCFBA0B90221AB48FFF7C7FB78B919
:1022B000AA48006800F5FA70A84908600020A849FB
:1022C0000860A648006800F5FA70A649086006E0B4
:1022D0000020A4490860A1490860A149086002F0F3
:1022E00075FF9948D0F8D8009E4A12688118964820
:1022F000883001F05CFF01F00FFA964908609348BE
:102300000068401C9149086015E2904800680B285D
:102310002AD19048006801F0EDFEA042F4D98A4825
:102320008830FEF769F8064601F018FA074632468B
:1023300085498831FEF734F818B9002083490860D0
:10234000F9E18348006802280ADA81480068401CE5
:102350007F4908607D480068401E7C490860EAE1CA
:1023600000207A490860E6E17848006814286DD1B9
:1023700001217948FFF762FBA8B902217648FFF7EF
:102380005DFB01280FD178480068A0F5FA70764906
:10239000086000207549086073480068A0F5FA706D
:1023A000704908603BE001216B48FFF747FB0128BB
:1023B00014D102216848FFF741FB78B96B480068E7
:1023C00000F5FA70694908600020674908606748AD
:1023D000006800F5FA706349086020E001215E485A
:1023E000FFF72CFBA0B902215B48FFF727FB78B968
:1023F0005E480068A0F5FA705C49086000205A4900
:1024000008605A480068A0F5FA705649086006E06E
:10241000002055490860554908605249086002F09B
:10242000D5FE4948D0F8D80040424E4A126881187B
:102430004548883001F0BBFE01F06EF9454908605F
:1024400042480068401C4149086074E13F48006808
:1024500015282AD13F48006801F04CFEA042F4D96B
:1024600039488830FDF7C8FF064601F077F907467E
:10247000324635498831FDF793FF18B900203349BA
:10248000086058E13248006802280ADA30480068DB
:10249000401C2F4908602D480068401E2B490860E9
:1024A00049E100202949086045E1284800681E28C4
:1024B00019D101212848FFF7C1FA01280BD10221C7
:1024C0002548FFF7BBFA012805D120480068401CC9
:1024D0001E4908602FE101F01FF91E490860232002
:1024E0001A49086027E1194800681F2810D102F036
:1024F0006DFE10211448AD3001F046FE01F00CF9DC
:102500001449086011480068401C1049086012E135
:102510000E48006820283ED10E48006801F0EAFD10
:10252000A04292D90848AD30FDF766FF064601F09B
:1025300015F9074632460449B531FDF731FFB8B900
:10254000002002490860F6E0DC2800204C00002052
:102550005000002048000020000C014058000020DE
:102560005C00002054000020600000206400002077
:10257000724800680A280ADA70480068401C6F49EF
:1025800008606F480068401E6D490860D3E0002075
:102590006B490860CFE06A48006823280AD169487F
:1025A000006801F0A7FDB0F5FA6F93D91F206449C8
:1025B0000860C0E062480068282810D102F006FEDA
:1025C00004220121604801F062FF01F0A5F85D4995
:1025D00008605B480068401C59490860ABE05848F7
:1025E000006829281DD15748006801F083FDA042EA
:1025F0000ED901F0B3F8064602225349FDF7D0FE8A
:1026000038B92979514880F80F1100204C490860E9
:1026100091E0FF214D4880F80F11002048490860E3
:1026200089E047480068322810D102F0CFFD01212F
:102630004548083001F0A8FD01F06EF841490860F6
:102640003F480068401C3E49086074E03C48006810
:1026500033282AD13B48006801F04CFDA0426AD9DA
:1026600039480830FDF7C8FE064601F077F80746FE
:10267000324635491031FDF793FE18B90020304934
:10268000086058E02D4800680A280ADA2B480068DC
:10269000401C2A4908602A480068401E28490860F2
:1026A00049E000202649086045E0254800683C28AC
:1026B00013D102F08BFD2448A5380422D0F8D010A5
:1026C000783001F0E4FE01F027F81E4908601C484C
:1026D0000068401C1A4908602DE0194800683D2830
:1026E00029D11848006801F005FDA04223D91648F9
:1026F0002D38FDF781FE064601F030F807463246D8
:1027000011492D39FDF74CFE18B900200C4908601D
:1027100011E00A4800680A280ADA08480068401CE4
:102720000649086006480068401E0549086002E046
:10273000002003490860BDE8F0810000500000203F
:102740004C0000204800002081290020C8270020DC
:1027500010B500F001F810BD0CB5002001900090FC
:102760003348006840F480303149086000BF304889
:10277000006800F4003000900198401C019000981F
:1027800018B90198B0F5A06FF1D12948006800F49C
:10279000003010B10120009001E00020009000986E
:1027A000012843D12348006840F010002149086007
:1027B0000846006820F0030008600846006840F002
:1027C000020008601A484068194948600846406895
:1027D00048600846406840F48060486008464068A9
:1027E00020F47C1048600846406840F4E8104860D7
:1027F0000846006840F08070086000BF0C48006820
:1028000000F000700028F9D00948406820F003006B
:10281000074948600846406840F00200486000BF31
:102820000348406800F00C000828F9D10CBD0000F6
:102830000010024000200240EFB51425002627A119
:1028400003C9CDE9020127A103C9CDE9000141E097
:10285000142D0AD102F004FC0821684602F06AFC3B
:1028600000F05AFF0746152534E0152D22D13846D1
:1028700001F040FC32282DD900F06AFF04280ED167
:102880002078992809D16078A1784840E178884279
:1028900003D1082102A802F04DFC64251AE0022EA3
:1028A00002DA761C142515E06425082102A802F03E
:1028B00041FC0FE0642D0DD108200C49C1F8DC006B
:1028C0000B49C1F8B00001F0FDFE02F0C9FB02F0B7
:1028D0007DFC00E0BCE700BFEFBD00008A01000006
:1028E000000001008501000000000001DC2800203C
:1028F000BC0000201CB500200090019063480068D7
:1029000070B94FF480716248FFF798F8002806D13B
:1029100000F002FF5F49086001205C490860B3E0F5
:102920005A480068012813D15A48006801F0E2FBB8
:102930000A28F4D94FF480715548FFF77FF818B989
:102940000220524908609FE00020504908609BE047
:102950004E48006802283BD14F4800788DF80000AF
:1029600073208DF8010074208DF802006F208DF81F
:10297000030070208DF80400082269460020FEF74D
:1029800011FB00F0C9FE434908604348B0F910014B
:1029900040F001004049A1F8100105203F49C1F86D
:1029A000DC003F49C1F8B000002406E0002004EB41
:1029B000C4013C4A22F83100641C802CF6DB002064
:1029C0003549486031480068401C304908605BE088
:1029D0002E48006803281CD14FF480712C48FFF763
:1029E0002DF8012809D100F097FE2A4908602748F0
:1029F0000068401C2549086046E02648006801F050
:102A000079FB642840D921480068401E1F490860AE
:102A10003AE01E480068042836D11E48006801F0DC
:102A200069FB0A2830D94FF480711948FFF706F87E
:102A3000012826D1002015490860174800788DF834
:102A4000000075208DF801006E208DF802007320C3
:102A50008DF8030074208DF804006F208DF80500B8
:102A600070208DF80600082269460020FEF79AFAC9
:102A7000094890F8100100F0FE000749A1F8100184
:102A800002E00320014908601CBD00008400002012
:102A90000010014088000020C8270020DC2800200A
:102AA000BC0000207001002002480068401C014961
:102AB000086070473800002010B51348006840F0E7
:102AC00001001149086008464068104908400E4955
:102AD0004860084600680E4908400B4908600846EF
:102AE000006820F4802008600846406820F4FE005A
:102AF00048604FF41F008860FFF72AFE4FF0006027
:102B00000449086010BD0000001002400000FFF8FA
:102B1000FFFFF6FE08ED00E010B540F225510C482D
:102B200000F0F9F890B10A4800F0B0F9C4B20948D1
:102B300001680068401C074A10600748445410466A
:102B40000068C82802D3C7201146086010BD0000E5
:102B5000004C004030000020BC29002010B540F29D
:102B60002551134800F0D7F800B3114800F08EF952
:102B7000C4B210480068C8B90D2C01D00A2C06D187
:102B80000D48006890B101200A4908600EE00A482B
:102B900001680068401C084A106008484454104608
:102BA0000068C82802D3C7201146086010BD000085
:102BB000003801400800002000000020702500209F
:102BC00010B540F225510C4800F0A5F890B10A4824
:102BD00000F05CF9C4B2094801680068401C074A6B
:102BE00010600748445410460068C82802D3C72024
:102BF0001146086010BD0000004400400C00002099
:102C00003826002010B540F225510C4800F083F81A
:102C100090B10A4800F03AF9C4B209480168006866
:102C2000401C074A10600748445410460068C828F2
:102C300002D3C7201146086010BD000000480040C4
:102C4000140000200027002021B1828942F40052A4
:102C5000828104E082894DF6FF731A4082817047B9
:102C600010B504462048844209D101218803FFF7AA
:102C700003F800214FF48040FEF7FEFF32E01B48CE
:102C8000844209D101214804FEF7D6FF00214FF408
:102C90000030FEF7D1FF25E01548844209D101211B
:102CA0008804FEF7C9FF00214FF48020FEF7C4FF1F
:102CB00018E01048844209D10121C804FEF7BCFF86
:102CC00000214FF40020FEF7B7FF0BE00A488442D2
:102CD00008D101210805FEF7AFFF00214FF4801055
:102CE000FEF7AAFF10BD000000380140004400407C
:102CF00000480040004C00400050004002460020C8
:102D0000B1F5007F00D100BF13880B400BB101204B
:102D100000E00020704770B5024600240023002523
:102D2000002040F66A16B14200D100BFC1F342153F
:102D300001F01F03012606FA03F3012D02D1968943
:102D4000334006E0022D02D1168A334001E0968A14
:102D500033400C12012606FA04F41688344013B1ED
:102D60000CB1012000E0002070BDF0B50346002446
:102D700000260025002040F66A17B94200D100BFA6
:102D80001846C1F3421401F01F06012707FA06F5A1
:102D9000012C01D10C3004E0022C01D1103000E0F4
:102DA00014301AB107682F43076002E00768AF4389
:102DB0000760F0BD2DE9F04786B005460E460024B9
:102DC000A24600BFA1460027B08900B100BF2F4630
:102DD0002C8A4CF6FF700440F08804432C82AC89A6
:102DE0004EF6F3100440B0883189084371890843D6
:102DF0000443AC81AC8A4FF6FF400440B0890443E1
:102E0000AC8201A8FEF748FF1F48874202D1DDF8D7
:102E100010A001E0DDF80CA0A88900F4004040B14A
:102E20000AEBCA0000EB0A1031684900B0FBF1F868
:102E300007E00AEBCA0000EB0A1031688900B0FB1A
:102E4000F1F86420B8FBF0F004012009642101FBD3
:102E50001089A88900F4004040B1322000EBC9007D
:102E6000B0FBF1F000F00700044308E0322000EB73
:102E700009106421B0FBF1F000F00F0004432C8135
:102E800006B0BDE8F08700000038014001468888A0
:102E9000C0F308007047C1F3080282807047000049
:102EA00010B586B0002401AA00212048FDF71EFFBE
:102EB0000198012801D906B010BD002409E00DF1E8
:102EC0000F00005D1A4908550846007C401C087434
:102ED000641C082CF3DB16484078732822D1144870
:102EE000807874281ED11248C0786F281AD11048F3
:102EF0000079702816D105200E49C1F8DC000E4972
:102F0000C1F8B000002400BF06E0002004EBC401BB
:102F10000A4A22F83100641C802CF6DB00200849A4
:102F2000486000E000BF00BFC5E70000006400404B
:102F3000842A0020DC280020BC0000207001002032
:102F4000C827002070B590B005460E4600240CE05E
:102F5000601C1B4951F820004DF82400601CB5EBA3
:102F6000800F01D14DF82460641C102CF0DBFEF7BB
:102F700073FC3420FEF7EAFB012012490870104868
:102F8000FEF7EAFB0F49087008460078042810D1C4
:102F90000120087000240AE05DF82410621C084B30
:102FA00003EB8200FEF722FC06490870641C102C1B
:102FB000F2DB012003490870FEF70EFC10B070BD73
:102FC00000F000081C0000202DE9FF410027002030
:102FD00000900190FB48007C08287DD1F94840789A
:102FE00006287AD006DC012809D0022876D00328EA
:102FF00075D1B9E0082873D01028F9D16EE2F248F3
:103000004068401CF049486008460088ED4909784E
:10301000884277DBEC480088EA490978884271D118
:103020006F208DF800006B208DF80100E6490888BC
:1030300008226946FDF7B6FF00245FE004EBC400F8
:10304000E24931F83000002857D1DE488078000688
:1030500050B9DC48C0780004DA49097940EA012017
:10306000D8494979084308B1012000E0002004EB69
:10307000C401D64A22F83100D348808804EBC40149
:1030800002EBC1014880652004EBC40102EBC101E1
:1030900008716E2104EBC40002EBC0004171642191
:1030A00004EBC40002EBC000817100261FE0C5499B
:1030B000F01D0A5C04EBC400C44901EBC000001D14
:1030C000F11C425404EBC400C04901EBC000406C49
:1030D000401C04EBC40105E023E286E013E017E2A4
:1030E000C4E00FE0B94A02EBC1014864761CB54860
:1030F000007C801FB042DADC02E0641C802C9DDB87
:1031000000BF00BF05E2B0480088AE490978884298
:1031100029D1AD4800788DF8000002208DF801001B
:1031200003208DF80200A84890F80E018DF80300E6
:10313000A54890F80F018DF80400A34890F81001FD
:103140008DF805000120A049A1F80C01088808228B
:103150006946FDF727FF0646012E03D10F219CA0EB
:1031600001F062FF00BFD4E19748008895490978D3
:10317000884239D193488078012818D18DF8080009
:1031800003208DF809008F48C0788DF80A008D481B
:1031900000798DF80B008B4880798A49497940EA9B
:1031A00001250222294602A801F071F91CE0854898
:1031B0008078022818D101208DF8080003208DF8AE
:1031C00009008048C0788DF80A007E4800798DF8A3
:1031D0000B007C4880797B49497940EA012504222B
:1031E000294602A801F053F993E177480088754910
:1031F0000978884239D173488078012818D18DF830
:10320000080006208DF809006E48C0788DF80A0085
:103210006C4800798DF80B006A48807969494979D2
:1032200040EA01250222294602A801F030F91CE0FB
:1032300064488078022818D101208DF80800062003
:103240008DF809005F48C0788DF80A005D48007964
:103250008DF80B005B4880795A49497940EA01258D
:103260000422294602A801F012F952E156480088CA
:1032700054490978884203D052480078002816D172
:103280005048007850490988884211D14D488078CB
:1032900020280DD14B48C078082809D149484079E9
:1032A00049490880084601881C20FFF74BFE14E1BD
:1032B0004448807830BB4348C07818BB41484079C7
:1032C00040B902204649C1F8B00004204549C1F880
:1032D000DC0002E13B484079012808D10320404945
:1032E000C1F8B00004203F49C1F8DC00F5E03548E2
:1032F00040790528DBD13A49C1F8B0003949C1F815
:10330000DC00EAE02F48807820BB2E48C0780128F6
:1033100020D12C48407920B900203249C1F8DC0086
:10332000DBE028484079012803D12E49C1F8DC00B0
:10333000D3E024484079032804D104202949C1F866
:10334000DC00CAE01F4840790528B0D12549C1F802
:10335000DC00C2E01B488078202817D11948C078CB
:10336000012813D1174840791649097940EA01200C
:103370001B49C1F8AC000846D0F8AC100820FFF794
:10338000E1FD07201649C1F8B000A6E00D4880789D
:10339000012829D10B48C078902825D109484079C7
:1033A0000849097940EA01200E49C1F8D0000846D1
:1033B000D0F8D0101020FFF7C5FD07200949C1F84B
:1033C000DC008AE0842A0020C82700207001002049
:1033D000686561727462656174206661696C0D0074
:1033E000BC000020DC2800204F48807801281BD139
:1033F0004D48C078682817D14B48007900064A49E3
:10340000497940EA01404849897940EA0120464922
:10341000C97908434549C1F8D8000846D0F8D81002
:103420001820FFF78FFD58E03F48807850BB3E489A
:10343000C078502826D13C4840793B49097940EA78
:1034400001203A49C1F8D40008460422D0F8D4102B
:10345000103001F01CF800F05FF9074600BF00F0E3
:103460005BF9C01B6428FAD330480422D0F8D4108A
:10347000183001F00CF82D48D0F8D4101420FFF7C4
:1034800061FD2AE028488078692810D12648C07854
:103490006E280CD124480079692808D12248407947
:1034A000742804D100F07EFAFDF7B6FD15E01E4841
:1034B0008078722811D11C48C07865280DD11A482F
:1034C0000079732809D118484079652805D1164834
:1034D0008079742801D100F0E9FD1AE014480088D1
:1034E00011490978884212D10F488078012805D106
:1034F0000D48C178C01C01F01DFE08E00A48807824
:10350000022804D10848C178C01C01F0CFFE00E0B9
:1035100000BF00BF04480021016041600020024953
:103520000874BDE8FF810000842A0020DC28002008
:10353000C8270020F0B502460E464FF6FF7015462C
:103540007DB100240BE02B7880EA0301CFB2DFF8D5
:1035500020C03CF8177087EA20206D1C641CB44220
:10356000F1D34FF6FF7707EA002100120843F0BDC0
:1035700044530008FF20064981F80E01FF2104484A
:1035800080F80F1100200249A1F80C0170470000DB
:10359000C827002006494868411C19B10549C1F8EF
:1035A000A80003E00521034AC2F8A81070470000F4
:1035B00000F00008BC0000200549C869411C11B199
:1035C000044A108002E00221024A11807047000084
:1035D00000F00008C827002000B5FFF7DBFF00F06F
:1035E00089F800F03FF800F073F800F04BF800F0B5
:1035F0005BF8FFF7E1FF00BD10B5A6B0802106A87B
:10360000FCF76DFF124800881249D1F8D810114A12
:10361000D2F8D4200F4BD3F8D030CDE90132CDE928
:1036200003100D48008800900C48D0F8AC300C49CD
:10363000D0F8A82006A8FCF7F7FD06A8FCF7DCFEEA
:103640000446214606A801F0EFFC26B010BD00009C
:10365000C8270020DC2800201E000020BC0000201D
:10366000545500080549C868411C11B1044A10802E
:1036700003E046F2A811024A1180704700F00008EA
:103680001E00002006494869411C19B10549C1F8CE
:10369000D40003E03221034AC2F8D410704700007E
:1036A00000F00008DC28002006498869411C19B197
:1036B0000549C1F8D80003E00449034AC2F8D8100C
:1036C0007047000000F00008DC28002018E4030028
:1036D00006490869411C19B10549C1F8D00004E048
:1036E00040F2DC51024AC2F8D010704700F00008E6
:1036F000DC28002006498868411C19B10549C1F839
:10370000AC0004E040F21451024AC2F8AC10704719
:1037100000F00008BC00002001480068704700006D
:1037200038000020004870477025002004480068D9
:10373000012802D10348006870470020FCE7000020
:1037400008000020000000200048704738260020B4
:1037500001480068704700000C00002000487047D6
:10376000BC2900207CB505466DA103C9CDE9000147
:103770006D48006858BB10216C48FEF75FF90128BE
:103780001DD020216948FEF759F9012817D04021A2
:103790006648FEF753F9012811D080216348FEF7EF
:1037A0004DF901280BD010216148FEF747F9012897
:1037B00005D020215E48FEF741F9012806D1FFF728
:1037C000ABFF5C490860012057490860A6E05648F5
:1037D000006801285AD15748006800F08BFCA842C5
:1037E000F4D910215148FEF729F901281DD02021D4
:1037F0004E48FEF723F9012817D040214B48FEF729
:103800001DF9012811D080214848FEF717F9012839
:103810000BD010214648FEF711F9012805D02021D0
:103820004348FEF70BF9012828D1434800788DF86A
:103830000000414890F80E018DF803003E4890F8D2
:103840000F018DF804003C4890F810018DF8050038
:103850003949088806226946FDF7A4FB0446012C75
:1038600004D10F2135A001F0DFFB57E002202E49E3
:103870000860FFF751FF2F4908604FE002202A49F6
:103880000860FFF749FF2B49086047E026480068B9
:1038900002283CD110212548FEF7D0F820BB20217A
:1038A0002248FEF7CBF8F8B940212048FEF7C6F8C9
:1038B000D0B980211D48FEF7C1F8A8B910211C48D5
:1038C000FEF7BCF880B920211948FEF7B7F858B9BF
:1038D000194890F8100100F0FD001749A1F81001F7
:1038E00000201149086019E01248006800F002FC4D
:1038F000B0F57A7F12D903200B4908600E48B0F961
:10390000100140F002000C49A1F8100106E0064841
:103910000068032802D10020034908607CBD000034
:1039200000010300000000004000002000080140EA
:103930000010014044000020C82700206972207355
:10394000656E64206661696C65640D0070B504463F
:103950000D46257006212046FFF7ECFD0646300A8D
:10396000A071E6710821204601F0E4FB70BDF0B5BE
:1039700085B004460D46164614216846FCF7AFFD97
:103980002670280A2071657106212046FFF7D2FDB6
:1039900007463812A071E7710821204601F0CAFBE2
:1039A00005B0F0BD2DE9F041002500240026A8E275
:1039B00054B901F00BFC0821FB4801F077FCFFF73C
:1039C000ABFE064601249CE2012C17D1304600F0E4
:1039D00091FB3228EBD9FFF7C1FE07460822F249D6
:1039E000FCF7DEFC10B1641C00258AE2032D02DA2C
:1039F0006D1C641E85E2641C002582E2022C0BD142
:103A000001F0E4FB0821E848083001F04FFCFFF723
:103A100083FE0646641C74E2032C18D1304600F085
:103A200069FB3228C3D9FFF799FE07460822DE4911
:103A30000831FCF7B5FC10B1641C002561E2032DD0
:103A400002DA6D1C641E5CE2641C002559E2042C41
:103A50000DD101F0BBFBD4480422D0F8D4101030B3
:103A600000F015FDFFF758FE0646641C49E2052CE0
:103A700018D1304600F03EFB322898D9FFF76EFE91
:103A800007460822C8491031FCF78AFC10B1641CB3
:103A9000002536E2032D02DA6D1C641E31E2641C3F
:103AA00000252EE2062C0DD101F090FBBE48042229
:103AB000D0F8D410183000F0EAFCFFF72DFE0646CF
:103AC000641C1EE2072C18D1304600F013FB32288C
:103AD0008BD9FFF743FE07460822B3491831FCF79C
:103AE0005FFC10B1641C00250BE2032D02DA6D1C93
:103AF000641E06E2641C002503E2082C0BD101F0D1
:103B000065FB0821A848203001F0D0FBFFF704FE38
:103B10000646641CF5E1092C18D1304600F0EAFA9B
:103B200032288BD9FFF71AFE074608229E4920311A
:103B3000FCF736FC10B1641C0025E2E1032D02DA2B
:103B40006D1C641EDDE1641C0025DAE10A2C0BD13A
:103B500001F03CFB08219448283001F0A7FBFFF757
:103B6000DBFD0646641CCCE10B2C18D1304600F07E
:103B7000C1FA32288DD9FFF7F1FD074608228A499C
:103B80002831FCF70DFC10B1641C0025B9E1032DB0
:103B900002DA6D1C641EB4E1641C0025B1E10C2C3A
:103BA0000BD101F013FB08217F48303001F07EFB80
:103BB000FFF7B2FD0646641CA3E10D2C18D1304678
:103BC00000F098FA32288FD9FFF7C8FD074608227F
:103BD00075493031FCF7E4FB10B1641C002590E11D
:103BE000032D02DA6D1C641E8BE1641C002588E144
:103BF0000E2C0BD101F0EAFA08216B48483001F095
:103C000055FBFFF789FD0646641C7AE10F2C18D19D
:103C1000304600F06FFA32288FD9FFF79FFD074634
:103C2000082261494831FCF7BBFB10B1641C002538
:103C300067E1032D02DA6D1C641E62E1641C00253D
:103C40005FE1102C0BD101F0C1FA08215648503029
:103C500001F02CFBFFF760FD0646641C51E1112CBE
:103C600018D1304600F046FA32288FD9FFF776FD9A
:103C7000074608224C495031FCF792FB10B1641CF6
:103C800000253EE1032D02DA6D1C641E39E1641C3F
:103C9000002536E1122C0BD101F098FA0821424898
:103CA000583001F003FBFFF737FD0646641C28E19E
:103CB000132C18D1304600F01DFA32288FD9FFF7A7
:103CC0004DFD0746082238495831FCF769FB10B111
:103CD000641C002515E1032D02DA6D1C641E10E141
:103CE000641C00250DE1142C0BD101F06FFA0821A2
:103CF0002D48603001F0DAFAFFF70EFD0646641C2D
:103D0000FFE0152C18D1304600F0F4F932288FD995
:103D1000FFF724FD0746082223496031FCF740FBEA
:103D200010B1641C0025ECE0032D02DA6D1C641E4A
:103D3000E7E0641C0025E4E0162C0BD101F046FA04
:103D400008211948703001F0B1FAFFF7E5FC06468A
:103D5000641CD6E0172C18D1304600F0CBF932287D
:103D60008FD9FFF7FBFC074608220F497031FCF79B
:103D700017FB10B1641C0025C3E0032D02DA6D1C93
:103D8000641EBEE0641C0025BBE0182C0ED101F0BF
:103D90001DFA08210448683001F088FAFFF7BCFCDE
:103DA0000646641CADE00000DC280020192C17D169
:103DB000304600F09FF9322809D9FFF7CFFC0746BB
:103DC00008225249FCF7ECFA10B1641C002598E077
:103DD000032D02DA6D1C641E93E0641C002590E044
:103DE0001A2C1ED101F0F2F948486838B0F8D0001A
:103DF000010A4648683880F87C1090F8D01080F8A6
:103E00007D100422D0F8D010783000F040FB08215B
:103E10003E48103001F04AFAFFF77EFC0646641C6B
:103E20006FE01B2C18D1304600F064F9322868D9B5
:103E3000FFF794FC0746082234491031FCF7B0FA2A
:103E400010B1641C00255CE0032D02DA6D1C641EB9
:103E500057E0641C002554E01C2C0BD101F0B6F98E
:103E600000212A48203000F0A2F9FFF755FC064651
:103E7000641C46E01D2C18D1304600F03BF9322876
:103E80003FD9FFF76BFC0746082220492D31FCF78C
:103E900087FA10B1641C002533E0032D02DA6D1C93
:103EA000641E2EE0641C00252BE01E2C0BD101F0BB
:103EB0008DF908211548553001F0F8F9FFF72CFC71
:103EC0000646641C1DE01F2C18D1304600F012F984
:103ED000322816D9FFF742FC074608220B49553114
:103EE000FCF75EFA10B1641C00250AE0032D02DA2B
:103EF0006D1C641E05E0641C002502E0202C00D12E
:103F000000E055E500BFBDE8F08100004429002035
:103F100008B501210420FDF79FFEF020ADF8000058
:103F200048208DF8030001208DF8020069461348EF
:103F3000FDF7B1FC01211120FDF78EFE7020ADF8D8
:103F4000000048208DF8030001208DF8020069462A
:103F50000B48FDF7A0FC01210820FDF77DFE0320A2
:103F6000ADF8000048208DF8030001208DF8020014
:103F700069460448FDF78FFC08BD000000080140B9
:103F800000100140000C014008B562B631480068DD
:103F90004FF47A72B0FBF2F1481EB0F1807F00D38B
:103FA0001BE0481E4FF0E022506150170F220028FE
:103FB00007DA13071D0E284B00F00F04241F1D55B0
:103FC00003E013071C0E254B1C5400BF00204FF0CC
:103FD000E02290610720106100BF4FF4165000F0FE
:103FE00083FB4FF4164001F04DF84FF4964001F07A
:103FF000FFF8FFF7F1FAFFF7FFFA00F089FA00F097
:10400000EDF8FFF785FF00F02DF8FEF715FC4FF4F3
:104010009670FDF7CFFEFFF7ADFA0020034602468B
:10402000014600900A20FCF7F9FC00200C490874B6
:104030000FE0FEF7C9FF3220FEF788F8FDF7C6F85B
:104040000A20FFF78FFBFEF755FCFDF727FD00F078
:104050009FFBEEE7A800002018ED00E000E400E080
:10406000842A002000210E4A516008210D4AC2F81E
:10407000DC10002010E0002100EBC0020A4B03EB33
:10408000C202518000EBC00223F8321000EBC002E4
:1040900003EBC2025164401C8028ECDB7047000037
:1040A000C8270020DC280020700100200A210EA073
:1040B00000F0BAFF45F25550FDF7EAFC0320FDF78A
:1040C000DBFC4FF47A70FDF7DDFCFDF7CDFCFDF76E
:1040D000C3FC0120FDF768FE00BF6120FDF746FE2E
:1040E0000028FAD000BFFEE73A72657365742E2E81
:1040F0002E0D0A0000B50146FFF70EFB401A00BD69
:1041000008B501210920FDF7A7FD01210B48FDF7A6
:104110004DFC4FF48040ADF8000010208DF80300F6
:1041200001208DF8020069460548FDF7B4FB4FF405
:1041300080410348FDF78BFC08BD00000002300001
:10414000000C014008B501210920FDF785FD012182
:104150000B48FDF72BFC4FF40040ADF80000102099
:104160008DF8030001208DF8020069460548FDF72F
:1041700092FB4FF400410348FDF769FC08BD0000C5
:1041800000023000000C014070B504460D46280ABC
:104190002071657106212046FFF7CCF90646300AEA
:1041A000A071E6710821204601F080F870BD70B55D
:1041B00004460D46280E6072280CA072280AE07191
:1041C00025720B212046FFF7B5F90646300AE0724A
:1041D00026730D21204601F069F870BD00B5B5B019
:1041E0006CA30FCBCDE93323CDE931016DA103C918
:1041F000CDE92F016DA103C9CDE92D016DA103C941
:10420000CDE92B016DA103C9CDE929016DA103C938
:10421000CDE927016D4903C9CDE925016CA103C989
:10422000CDE923016CA103C9CDE921016CA103C92A
:10423000CDE91F016CA103C9CDE91D016CA103C922
:10424000CDE91B016CA103C9CDE919016CA103C91A
:10425000CDE917016CA103C9CDE915016CA103C912
:10426000CDE913016CA103C9CDE911016CA103C90A
:10427000CDE90F016CA103C9CDE90D016CA103C902
:10428000CDE90B016CA103C9CDE909016CA103C9FA
:10429000CDE907016CA103C9CDE905016CA103C9F2
:1042A000CDE903014949083103C9CDE901010D22D6
:1042B00031A96948FCF7BFF867480838DDE92F12D3
:1042C00006C08838DDE92D12C0E91E1295302B9901
:1042D00001602C9941609538DDE9291206C0083843
:1042E000DDE92712C0E90212DDE92512C0E9041256
:1042F000DDE92312C0E90612DDE92112C0E9081246
:10430000DDE91F12C0E90A12DDE91D12C0E90C1235
:10431000DDE91B12C0E90E12DDE91912C0E9101225
:10432000DDE91712C0E91212DDE91512C0E9141215
:10433000DDE91312C0E91612DDE91112C0E9181205
:10434000DDE90F12C0E91A12DDE90D12C0E91C12F5
:104350009D300B9901600C9941600830099901600A
:104360000A99416008300799016008994160083056
:10437000059901600699416008300399016004992C
:104380004160083001990160BDF80810818035B0A6
:1043900000BD00000110016800020486A0000111A8
:1043A0001B00000001060001000119CA010601906E
:1043B00001F4880C011001680002C1E80106000246
:1043C0000003680B010600040000C80B44550008F8
:1043D00001100050000241D9010600900001482759
:1043E00001060094000109E601060096000069E656
:1043F000010600800000982C010600810001982C25
:10440000010600840004C820010600850014982CD1
:10441000010600860011A82F010600870010382F22
:10442000010601A000FFC8540106008F000179E1D8
:10443000010601A400024814010301D00001840F09
:10444000010601A400010815010601A40000C9D558
:10445000010601A70801FFD5642900202DE9F041DC
:1044600004460D461646280AA070E570300A2071F1
:10447000667106212046FFF75DF80746380AA071ED
:10448000E7710821204600F055FEBDE8F0812DE9D6
:10449000F04104460E461546300A20716671062129
:1044A0002046FFF747F80746380AA071E771012D4B
:1044B00004D10821204600F0B7FD13E0022D04D1FD
:1044C0000821204600F036FE0CE0032D04D108211F
:1044D000204600F05FFE05E0042D03D108212046B0
:1044E00000F0E4FEBDE8F08110B504466078A178E4
:1044F0004840E17848402179484061794840A179B5
:104500004840E0710821204600F014FE10BD000074
:104510009FB04CA000681E904BA003C8CDE91C01C1
:104520004BA103C9CDE91A014BA103C9CDE918017B
:104530004BA003C8CDE916014BA0006815904BA015
:10454000006814904AA103C9CDE912014AA103C928
:10455000CDE910014AA103C9CDE90E014AA103C961
:10456000CDE90C014AA103C9CDE90A014AA103C959
:10457000CDE908014AA103C9CDE906014AA103C951
:10458000CDE904014AA103C9CDE902014AA103C949
:10459000CDE900014A481E9901601C998160BDF86F
:1045A0007410818118990161BDF8641081821A9993
:1045B0008161BDF86C10818316990162BDF85C10B1
:1045C0008184159981621499016312998163BDF800
:1045D0004C10818710990164BDF84410A0F8441074
:1045E000803000990161BDF80410818204998160D6
:1045F000BDF81410818102990160BDF80C10818012
:1046000080380A998164BDF82C10A0F84C100699E6
:104610000167BDF81C10A0F8741008998165BDF8F9
:104620002410A0F85C100E990165BDF83C10A0F8AC
:1046300054100C998166BDF83410A0F86C101FB0AE
:104640007047000000062008010620000005000059
:104650000106200000010000010620000002000009
:104660000106200105DC00000106200301062004EC
:1046700001032003000100000103200400010000E9
:1046800001062000000700000106200900030000C9
:1046900001032104000100000103200100010000CA
:1046A0000006200B000500000006200200020000AA
:1046B00000062006000200000006200A000100009B
:1046C000BC00002010B5C8210448FBF7E6FE00201E
:1046D000034908600349086010BD000070250020F0
:1046E000000000200800002010B586B0044601211B
:1046F00044F20500FDF7B0FA2348FEF7B1FA4FF493
:104700000070ADF8140001208DF8160018208DF807
:10471000170005A91D48FDF7BEF84FF48060ADF8FD
:10472000140004208DF8170005A91848FDF7B3F808
:1047300001940020ADF80800ADF80A00ADF80C00B7
:10474000ADF810000C20ADF80E0001A90E48FEF7E0
:1047500031FB25208DF8000003208DF80100042096
:104760008DF8020001208DF803006846FDF71CFA61
:10477000012240F225510448FEF7F7FA01210248D0
:10478000FEF762FA06B010BD003801400008014093
:104790002DE9F04188B0FEF7C9FF0746002F6FD022
:1047A000FEF7C0FF04460B22FEA12046FBF7F8FDF2
:1047B000002873D1FE4890F80E5185F0010018B121
:1047C0000621FCA000F030FC0DB9012000E0002023
:1047D00080F0010018B10721F8A000F025FC85F059
:1047E000020018B90C21F7A000F01EFC85F00300B0
:1047F00018B90C21F7A000F017FC85F0040018B9D7
:104800000F21F8A000F010FC85F0050018B90C216C
:10481000F8A000F009FC85F0060018B90C21F9A0F9
:1048200000F002FC85F0070018B90F21F9A000F094
:10483000FBFB85F0080018B10921FAA000F0F4FB99
:1048400085F0080018B90A21F9A000F0EDFBD8485E
:1048500090F80E01072856D2DFE800F00405132176
:104860002E3B480054E0F5A16846FBF7DDFC6846A6
:10487000FBF7C2FD80464146684600F0D5FB47E0A5
:104880006CE3F2A16846FBF7CFFC6846FBF7B4FD8A
:1048900080464146684600F0C7FB39E04BE0EFA197
:1048A0006846FBF7C1FC6846FBF7A6FD804641461B
:1048B000684600F0B9FB2BE0ECA16846FBF7B4FCBE
:1048C0006846FBF799FD80464146684600F0ACFB20
:1048D0001EE0EAA16846FBF7A7FC6846FBF78CFDE3
:1048E00080464146684600F09FFB11E0E7A168461C
:1048F000FBF79AFC6846FBF77FFD80464146684619
:1049000000F092FB04E00B21E3A000F08DFB00BF60
:1049100000BFA74890F80F3190F80E21E1A168463A
:10492000FBF782FC6846FBF767FD80464146684618
:1049300000F07AFB10E30322E2A12046FBF730FDF2
:10494000B8B90A220021E01CFBF7F2FC0546002D55
:104950000ADD012D04D10020DB49C1F8DC0003E0B1
:104960000120D949C1F8DC000421D8A000F05CFB8B
:10497000F2E20422D7A12046FBF712FDD0B9D7A15D
:1049800003C9CDE905010A2207A9201DFBF7D0FCC8
:1049900005460A2200210798001DFBF7C9FC804646
:1049A0004246294605A8FFF759FD0521CDA000F094
:1049B0003BFBD1E20A22CDA12046FBF7F1FC88B9EE
:1049C0000A22002104F10A00FBF7B2FC78490880B2
:1049D000084601881C20FEF7B5FA0521C1A000F0A9
:1049E00023FBB9E20522C4A12046FBF7D9FC48B954
:1049F0000821B548AD3000F059FC0521B9A000F000
:104A000013FBA9E20422BEA12046FBF7C9FC48B96A
:104A10000821AD48B53000F049FC0521B1A000F0F7
:104A200003FB99E20822B8A12046FBF7B9FCC8B9FC
:104A30000A2207A904F10800FBF77AFCA249C1F891
:104A4000D8000846D0F8D8108830FFF7B0FB9E4851
:104A5000D0F8D8101820FEF775FA0521A1A000F0B3
:104A6000E3FA79E20A22ABA12046FBF799FCD8B918
:104A70000A22002104F10A00FBF75AFC9249C1F80E
:104A8000D0000846B0F8D00001B28F487830FFF768
:104A90007BFB8D48D0F8D0101020FEF753FA05218B
:104AA00090A000F0C1FA57E20B229DA12046FBF72F
:104AB00077FCD8B90A22002104F10B00FBF738FC7F
:104AC0008149C1F8D40008460222D0F8D410103031
:104AD000FFF7DDFC7C480222D0F8D4101830FFF735
:104AE000D6FC05217FA000F09FFA35E205228FA1B8
:104AF0002046FBF755FCB8B90A2207A9601DFBF751
:104B000017FC8C4908700A2200210798401CFBF70B
:104B10000FFC0646022231468648FFF7B8FC052105
:104B200070A000F081FA17E20A2283A12046FBF769
:104B300037FCC0B90A22002104F10A00FBF7F8FB98
:104B400006467C48C0F8AC6007207A49C1F8B0003E
:104B50000846D0F8AC100820FEF7F4F9052161A052
:104B600000F062FAF8E10B2276A12046FBF718FC70
:104B7000B0B90A22002104F10B00FBF7D9FB06466D
:104B80006C48C0F8A860012231462830FEF7EFFEDD
:104B90000122314667483030FEF7E9FE0521D7E0B3
:104BA000DBE000007374617475735F776F726B0084
:104BB000C827002053746F700D0A0000537461728F
:104BC000740D0A0073746174655F6F765F690D0A16
:104BD0000000000073746174655F6F765F750D0A85
:104BE0000000000073746174655F6572725F656ECA
:104BF000630D0A0073746174655F6F765F740D0AEC
:104C00000000000073746174655F6F765F710D0A58
:104C10000000000073746174655F6F765F6C6F6194
:104C2000640D0A007063206374726C0D0A0000004A
:104C3000504C43206374726C0D0A00006F766572ED
:104C40002063757272656E740D0000006F76657278
:104C500020766F6C746167650D000000756E646589
:104C60007220766F6C746167650D00006C6F636B0A
:104C7000656420726F746F720D000000686F6C7A4B
:104C80006572206661756C740D000000746F6F2092
:104C9000686F740D00000000756E6B6F776E206595
:104CA00072720D006361725F6572726F723A256491
:104CB0002C736572766F5F6572726F723A25640D40
:104CC0000000000077696E00DC28002077696E0D17
:104CD0000000000061646472000000000106000032
:104CE00000000000737563630D0000006465766961
:104CF00063655F69643D0000737461727400000055
:104D000073746F7000000000706F735F7365743DA3
:104D100000000000706F735F73706565643D000094
:104D2000706F735F616474696D653D00736574696C
:104D300064000000BC0000206361725F73706565F1
:104D4000643D00006361725F616474696D653D007C
:104D5000AFF2700000F068F9FEE0092281A1204660
:104D6000FBF71EFB70B90A22002104F10900FBF7D2
:104D7000DFFA05467E490D800521AFF2980000F06C
:104D800053F9E9E005227BA12046FBF709FB48B96E
:104D900002207A49C1F8B0000521AFF2B80000F056
:104DA00043F9D9E0052276A12046FBF7F9FA48B984
:104DB00003207249C1F8B0000521AFF2D80000F01D
:104DC00033F9C9E0052270A12046FBF7E9FA48B99A
:104DD00005206A49C1F8B0000521AFF2F80000F0E3
:104DE00023F9B9E007226AA12046FBF7D9FA40B9B6
:104DF0006948FBF701FB05462946674800F014F9AE
:104E0000AAE00A2265A12046FBF7CAFA10B9FEF70C
:104E1000F3FBA1E0042264A12046FBF7C1FA80B9AC
:104E20005648D0F8A8100420FEF78CF850480188A6
:104E30000C20FEF787F80521AFF2581000F0F4F8C7
:104E40008AE010225AA12046FBF7AAFA90B90A225A
:104E5000002104F11000FBF76BFA064602223146EE
:104E600046482030FEF783FD0521AFF2881000F0A0
:104E7000DBF871E00B2253A12046FBF791FA50B901
:104E800002213E481830FEF761FD0521AFF2AC105B
:104E900000F0CAF860E00B224DA12046FBF780FA33
:104EA00050B9022135481030FEF750FD0521AFF210
:104EB000CC1000F0B9F84FE00B2248A12046FBF7D8
:104EC0006FFA50B902212D480830FEF73FFD052149
:104ED000AFF2F01000F0A8F83EE0052242A1204613
:104EE000FBF75EFA48B90821414800F023F9052193
:104EF000AFF2102000F098F82EE005223DA12046E8
:104F0000FBF74EFA70B93D4890F80E018DF81C0081
:104F10003A4890F80F018DF81D00022107A800F013
:104F200083F819E0092236A12046FBF739FA30B997
:104F3000FEF738FD042135A000F076F80CE00522DC
:104F400034A12046FBF72CFA10B9FFF7AFF803E0C5
:104F50000A2132A000F068F8FFF7B4FB08B0BDE802
:104F6000F08100006361725F7469636B3D00000053
:104F70001E0000206361725F66000000BC0000201C
:104F80006361725F620000006361725F7300000022
:104F900076657273696F6E0020000020726561642F
:104FA0005F666C61736800007361766500000000E5
:104FB0006361725F6F746865725F73706565643D8D
:104FC000000000006361725F6F746865725F660065
:104FD0006361725F6F746865725F62006361725FC4
:104FE0006F746865725F7300636C65616E000000CA
:104FF00079290020636865636B000000C8270020E2
:10500000696E6974536572766F000000737563632F
:10501000000000007265736574000000756E6B6EB1
:105020006F7720636D64000070B506460C4600255E
:10503000002C00DC70BD00250BE0715D0748FDF71A
:105040002AFF00BF80210548FDF758FE0028F9D04F
:105050006D1CA542F1DB00BFECE700000038014009
:1050600010B5C8210448FBF718FA0020034908606E
:105070000349086010BD0000382600200C00002005
:105080001000002010B586B0044601214804FCF74A
:10509000C3FD01210520FCF7DFFD2448FDF7E0FDFD
:1050A0000420ADF8140001208DF8160018208DF8AA
:1050B000170005A91E48FCF7EEFB0820ADF8140008
:1050C00004208DF8170005A91948FCF7E4FB0194AA
:1050D0000020ADF80800ADF80A00ADF80C00ADF8FE
:1050E00010000C20ADF80E0001A91048FDF762FE7B
:1050F00026208DF8000003208DF8010002208DF895
:10510000020001208DF803006846FCF74DFD0122E6
:1051100040F225510548FDF728FE01210348FDF71F
:1051200093FDFFF70FF806B010BD000000440040EB
:105130000008014070B506460C460025002C00DC36
:1051400070BD4FF400411148FCF783FC4FF47A70B6
:1051500000F0DCF800250BE0715D0D48FDF79BFECB
:1051600000BF80210A48FDF7C9FD0028F9D06D1C59
:10517000A542F1DB41F27C5000F0C8F84FF4004149
:105180000248FCF764FC00BFDAE70000000C0140B5
:105190000044004070B506460C460025002C00DC9B
:1051A00070BD00250BE0715D0748FDF774FE00BF80
:1051B00080210548FDF7A2FD0028F9D06D1CA5420D
:1051C000F1DB00BFECE700000048004010B5C8214B
:1051D0000448FBF762F900200349086003490860AE
:1051E00010BD0000BC290020300000203400002049
:1051F00010B586B004460121C804FCF70DFD01215D
:105200001120FCF729FD2748FDF72AFD4FF48060A7
:10521000ADF8140001208DF8160018208DF8170045
:1052200005A92148FCF737FB4FF40060ADF81400E6
:1052300048208DF8170005A91B48FCF72CFB0194AA
:105240004FF48050ADF808000020ADF80A004FF48C
:105250008060ADF80C000020ADF810000C20ADF817
:105260000E0001A90F48FDF7A5FD34208DF80000C0
:1052700003208DF801008DF8020001208DF8030055
:105280006846FCF791FC012240F225510548FDF7E4
:105290006CFD01210348FDF7D7FCFEF731FF06B096
:1052A00010BD0000004C00400010014070B50646E3
:1052B0000C460025002C00DC70BD4FF480411148E5
:1052C000FCF7C7FB4FF47A7000F020F800250BE0E4
:1052D000715D0D48FDF7DFFD00BF80210A48FDF735
:1052E0000DFD0028F9D06D1CA542F1DB42F21070D3
:1052F00000F00CF84FF480410248FCF7A8FB00BF17
:10530000DAE70000000C0140004C0040002100E002
:10531000491C8142FCDB704710B500290AD008788F
:10532000002807D005487844FBF718FA002801D078
:10533000002010BD0248784410BD0000A202000009
:105340009A0200000000C1C081C1400101C3C00336
:10535000800241C201C6C006800741C70005C1C521
:1053600081C4400401CCC00C800D41CD000FC1CFE1
:1053700081CE400E000AC1CA81CB400B01C9C009D1
:10538000800841C801D8C018801941D9001BC1DB71
:1053900081DA401A001EC1DE81DF401F01DDC01D21
:1053A000801C41DC0014C1D481D5401501D7C01741
:1053B000801641D601D2C012801341D30011C1D151
:1053C00081D0401001F0C030803141F10033C1F391
:1053D00081F240320036C1F681F7403701F5C03521
:1053E000803441F4003CC1FC81FD403D01FFC03FE1
:1053F000803E41FE01FAC03A803B41FB0039C1F9D1
:1054000081F840380028C1E881E9402901EBC02B30
:10541000802A41EA01EEC02E802F41EF002DC1ED20
:1054200081EC402C01E4C024802541E50027C1E740
:1054300081E640260022C1E281E3402301E1C02150
:10544000802041E001A0C060806141A10063C1A350
:1054500081A240620066C1A681A7406701A5C06520
:10546000806441A4006CC1AC81AD406D01AFC06FE0
:10547000806E41AE01AAC06A806B41AB0069C1A9D0
:1054800081A840680078C1B881B9407901BBC07B70
:10549000807A41BA01BEC07E807F41BF007DC1BD20
:1054A00081BC407C01B4C074807541B50077C1B740
:1054B00081B640760072C1B281B3407301B1C07150
:1054C000807041B00050C190819140510193C05310
:1054D000805241920196C056805741970055C19520
:1054E00081944054019CC05C805D419D005FC19FE0
:1054F000819E405E005AC19A819B405B0199C059D0
:10550000805841980188C04880494189004BC18B2F
:10551000818A404A004EC18E818F404F018DC04D1F
:10552000804C418C0044C184818540450187C0473F
:10553000804641860182C042804341830041C1814F
:10554000818040400110005000020400010601A4C7
:10555000001000006361725F616474696D653D25D0
:10556000642C6361725F73706565643D25642C63B0
:1055700061725F7469636B3D25642C706F735F7338
:10558000706565643D25642C706F735F6164746938
:105590006D653D25642C706F735F7365743D256484
:1055A0002C69643D25640D00D856000800000020D9
:1055B000BC0000006C01000894570008BC000020EB
:1055C0004431000088010008100100004300000081
:1055D000F8FFFFFF00404040404040404040414114
:1055E00041414140404040404040404040404040B8
:1055F0004040404040050202020202020202020252
:10560000020202020220202020202020202020024E
:1056100002020202020290909090909010101010DE
:10562000101010101010101010101010101010107A
:10563000020202020202888888888888080808080E
:1056400008080808080808080808080808080808DA
:105650000202020240000000000000000000000002
:10566000000000000000000000000000000000003A
:10567000000000000000000000000000000000002A
:10568000000000000000000000000000000000001A
:10569000000000000000000000000000000000000A
:1056A00000000000000000000000000000000000FA
:1056B00000000000000000000000000000000000EA
:1056C00000000000000000000000000000000000DA
:1056D00000000000000000000000000000000000CA
:1056E00000000000000000000000000000000000BA
:1056F000000000000100000076657273696F6E2083
:1057000076332E312E310000000000000000000032
:105710000000000000000000000000000000000089
:105720000000000000000000000000000000000079
:105730000000000000000000000000000000000069
:105740000000000000000000000000008A010000CE
:10575000000001008501530000000052000000001D
:105760000000000000000000000000000000000039
:1057700001020304010203040607080902040608E3
:1057800000A24A040000000000000000010203041F
:0457900006070809F7
:0400000508000131BD
:00000001FF
