:020000040800F2
:10000000F0310020ED010008F5010008F7010008BB
:10001000F9010008FB010008FD01000800000000D4
:10002000000000000000000000000000FF010008C8
:10003000010200080000000003020008B1230008CC
:10004000070200080702000807020008070200086C
:10005000070200080702000807020008070200085C
:10006000070200080702000807020008070200084C
:10007000070200080702000807020008070200083C
:10008000070200080702000807020008070200082C
:10009000A927000807020008070200080702000855
:1000A000070200080702000807020008070200080C
:1000B00007020008070200080702000807020008FC
:1000C00007020008070200080702000807020008EC
:1000D0000702000865240008C92400080D2500084F
:1000E00007020008070200080702000807020008CC
:1000F00007020008070200080702000807020008BC
:1001000007020008070200080702000807020008AB
:10011000212400080702000807020008070200085F
:10012000070200080702000807020008070200088B
:1001300000F002F800F04BF80AA090E8000C8244AE
:100140008344AAF10107DA4501D100F040F8AFF28B
:10015000090EBAE80F0013F0010F18BFFB1A43F0A5
:1001600001031847304E0000504E0000103A24BFE3
:1001700078C878C1FAD8520724BF30C830C144BF0C
:1001800004680C607047000000230024002500264E
:10019000103A28BF78C1FBD8520728BF30C148BFEA
:1001A0000B607047642900F0B380732900F08382EC
:1001B000002070471FB500F0D5FA04000020002190
:1001C00004F0A0FD401C60601FBD10B510BD00F024
:1001D000DBFA1146FFF7EEFF03F052FB00F0F9FAED
:1001E00003B4FFF7F2FF03BC00F03AFB0948804775
:1001F00009480047FEE7FEE7FEE7FEE7FEE7FEE709
:10020000FEE7FEE7FEE7FEE704480549054A064B20
:1002100070470000C123000831010008F02B0020C6
:10022000F0310020F02D0020F02D00200FB41CB57F
:10023000074B06AA7B4469460090059800F011FA26
:100240000020694600F020FA1CBC5DF814FB000099
:10025000510400002DE9F0410E46044600202062C2
:100260002046E168884730B3252805D0D4E901212C
:100270009047206A401CF2E7E16820460027884743
:10028000050018D0A5F14100192802D820354FF4F7
:1002900000673246294620462760FFF783FF40B1BA
:1002A000012804D0F61D26F007060836D8E7361DCB
:1002B000D6E72846DAE7206ABDE8F08170B50C463B
:1002C0000546012A05D02878800600D5EA69002372
:1002D00002E0012305E05B1C934202D2E05C0028AF
:1002E000F9D1A869E618C01AA861286A18442862DA
:1002F0002846AFF3008004E0D5E9012114F8010B92
:100300009047B442F8D32846AFF3008070BD000098
:100310002DE9F0410646002410687529314616A5DE
:1003200010D0AFF30080002802DA404213A507E0A6
:1003300031688A0701D512A502E0490704D511A545
:10034000012401E0AFF3008000210A2206F1240716
:1003500009E0B0FBF2FCB0FBF2F302FB1C00303012
:1003600078541846491C0028F3D123462A463046C3
:10037000BDE8F04100F016B9000000002D000000BB
:100380002B000000200000002DE9F04791460F46A9
:1003900080460446002614F8015B2DB100F0F6F803
:1003A0000068405DC007F6D12B2D02D02D2D18D04E
:1003B000641E4A463946204600F081F927B1396863
:1003C000A14201D1C7F800804FF0020471050BD59E
:1003D0004042002803DD00F0E1F80460A007BDE81A
:1003E000F08746F48066E4E70028F8DA00F0D6F8F3
:1003F00004606FF00040F2E740EA010310B59B078C
:100400000FD1042A0DD310C808C9121F9C42F8D07E
:1004100020BA19BA884201D9012010BD4FF0FF302F
:1004200010BD1AB1D30703D0521C07E0002010BD45
:1004300010F8013B11F8014B1B1B07D110F8013BD1
:1004400011F8014B1B1B01D1921EF1D1184610BDB2
:1004500010B5431C02E010F8011B71B18107FAD1FD
:100460004FF0013202C88C1A8C4314EAC211F9D041
:10047000C01A0A0603D0C01E10BDC01A10BD0A045F
:1004800001D0801E10BD0902FCD0401E10BD10B569
:10049000203AC0F00B80B1E81850203AA0E818507C
:1004A000B1E81850A0E81850BFF4F5AF5FEA027C3D
:1004B00024BFB1E81850A0E8185044BF18C918C0AC
:1004C000BDE810405FEA827C24BF51F8043B40F84D
:1004D000043B08BF7047D20728BF31F8023B48BF32
:1004E00011F8012B28BF20F8023B48BF00F8012B70
:1004F00070474FF000020429C0F0128010F0030C86
:1005000000F01B80CCF1040CBCF1020F18BF00F806
:10051000012BA8BF20F8022BA1EB0C0100F00DB8B5
:100520005FEAC17C24BF00F8012B00F8012B48BF13
:1005300000F8012B70474FF0000200B513469446B7
:100540009646203922BFA0E80C50A0E80C50B1F12B
:100550002001BFF4F7AF090728BFA0E80C5048BF3F
:100560000CC05DF804EB890028BF40F8042B08BFDD
:10057000704748BF20F8022B11F0804F18BF00F8D9
:10058000012B7047704770477047000010B500F0AE
:10059000E9F8001D10BD00BF6D470000004870471E
:1005A0008C2B00202DE9F0470D46994692460446D3
:1005B00000F124080168880604D5E06921F01001E3
:1005C000216000E00120A84201DD471B00E0002778
:1005D000A1697A1902EB0900081AA0612078C00607
:1005E00002D42046AFF30080002608E0D4E90121C0
:1005F0001AF806009047206A401C761C20624E457F
:10060000F4DB2078C0060AD52046AFF3008006E070
:10061000D4E9012130209047206A401C2062381E16
:10062000A7F10107F4DC07E0D4E9012118F805007F
:100630009047206A401C2062281EA5F10105F3DCCA
:100640002046AFF300802078000602D50220BDE8E6
:10065000F0870120FBE7000001694A1C026108786D
:10066000704700B58FB0CDE90131002105910549F2
:100670007944CDE9031011466846FFF7EBFD0FB052
:1006800000BD0000E5FFFFFF0A6802F8010B0A60E9
:10069000704710B5436913B1AFF3008001E0FFF775
:1006A0000DFE012010BD127800F124010A70002215
:1006B0004A700122EDE711684FF0FF32E9E72DE9BA
:1006C000F05F824615468B4600270AF10104B946C1
:1006D0000078302801D09DB113E014F8010B0127F8
:1006E000782803D0582801D045B10AE00DB1102D6B
:1006F00007D1002714F8010B102502E0082500E0BF
:100700000A250026B0460EE005FB080005FB06F1B1
:1007100001271FFA80F801EB1046B6F5803F00D3A1
:10072000B94614F8010B294600F020F80028EBDA4E
:10073000BBF1000F05D00FB1641E00E05446CBF8AA
:100740000040B9F1000F06D0FFF728FF0221016039
:10075000C81EBDE8F09F48EA0640FAE70048704727
:100760008C2B002000487047AC2B00203A2800D288
:10077000303820F02002412A01D3A2F1370088420C
:1007800001D34FF0FF3070477546FFF7E7FFAE46E5
:1007900005006946534620F00700854618B020B58D
:1007A000FFF732FDBDE820404FF000064FF0000794
:1007B0004FF000084FF0000B21F00701AC46ACE809
:1007C000C009ACE8C009ACE8C009ACE8C0098D4676
:1007D00070470446AFF300802046FFF701FD00009C
:1007E0004FF0013C50F8042B51F8043B9A4221D1C0
:1007F000A2EB0C03934313EACC1317D150F8042B4C
:1008000051F8043B9A4215D1A2EB0C03934313EA2F
:10081000CC130BD150F8042B51F8043B9A4209D168
:10082000A2EB0C03934313EACC13DBD04FF0000090
:10083000704700BFD01A01BAB1FA81F101F0180176
:1008400022FA01F0CB40C1F12001DBB2C0B2C01AE4
:100850002CFA01F3D11A914311EAC311E6D1704782
:1008600001491820ABBEFEE72600020070470000D9
:1008700010B50021837A012202FA03F13D4A126881
:1008800042F001023B4B1A603A4A1C3212688A431A
:10089000384B1C331A60027BCAB9364A0C321268D4
:1008A0008A43344B0C331A604288C38842EA0343BC
:1008B000304A4032847A42F834300288838842EAEF
:1008C00003432C4A4032847A02EBC4025360027B19
:1008D000012A19D1274A0C3212680A43254B0C33DE
:1008E0001A604288038842EA0343224A4032847AEB
:1008F00042F83430C288838842EA03431D4A4032BA
:10090000847A02EBC4025360C27A3AB9194A121DC2
:1009100012688A43174B1B1D1A6006E0154A121D08
:1009200012680A43134B1B1D1A60028932B9114A1F
:10093000143212688A430F4B14331A600289012A59
:1009400006D10C4A143212680A430A4B14331A6057
:10095000427B012A06D1074A1C3212680A43054B22
:100960001C331A60034A126822F00102014B1A601C
:1009700010BD0000006600401AB143690B4343619B
:1009800002E043698B434361704730B50246002063
:100990000023146824F002041460146844F0010475
:1009A000146000E05B1C546804F001041CB94FF6AD
:1009B000FF74A342F6D1546804F001040CB900207E
:1009C0006CE08C79012C04D1146844F0800414602C
:1009D00003E0146824F080041460CC79012C04D165
:1009E000146844F04004146003E0146824F04004E8
:1009F00014600C7A012C04D1146844F020041460B3
:100A000003E0146824F0200414604C7A012C04D113
:100A1000146844F01004146003E0146824F0100417
:100A200014608C7A012C04D1146844F0080414601A
:100A300003E0146824F008041460CC7A012C04D17B
:100A4000146844F00404146003E0146824F00404FF
:100A500014608C78A407CD7844EA05640D7944EAE3
:100A600005444D7944EA05540D886D1E2C43D4612C
:100A7000146824F001041460002300E05B1C546837
:100A800004F001041CB14FF6FF74A342F6D1546880
:100A900004F001040CB1002000E0012030BD000092
:100AA0002DE9F0418AB004460F4615461E46DDF892
:100AB00040800D2D03D901200AB0BDE8F08101214D
:100AC000480600F069FF0121092000F085FF01219F
:100AD0004FF4EA1000F02AFE4FF48070ADF82400C5
:100AE00003208DF8260048208DF8270009A99E488C
:100AF00000F091FD4FF40070ADF8240018208DF83F
:100B0000270009A9984800F086FD01221221974884
:100B1000FFF732FF14208DF8040001208DF8050046
:100B200000208DF8060001208DF8070001A800F0D4
:100B3000FBFE15208DF8040001208DF80500002033
:100B40008DF8060001208DF8070001A800F0ECFEEA
:100B500000208DF81E008DF81F008DF82000012068
:100B60008DF8210000208DF822008DF823008DF8EB
:100B70001A700F2C73D2DFE804F0081624313E4BB4
:100B8000586573808D9AA7B4C10001208DF81B00B1
:100B900005208DF81C0003208DF81D004FF4167001
:100BA000ADF81800B8E000208DF81B0002208DF889
:100BB0001C0001208DF81D004FF41670ADF81800D0
:100BC000AAE000208DF81B0009208DF81C000620EB
:100BD0008DF81D006420ADF818009DE000208DF810
:100BE0001B0002208DF81C0001208DF81D00F02054
:100BF000ADF8180090E000208DF81B0002208DF861
:100C00001C0001208DF81D009620ADF8180083E02F
:100C100000208DF81B0009208DF81C0006208DF89F
:100C20001D002820ADF8180076E000208DF81B008C
:100C300002208DF81C0001208DF81D004B20ADF81E
:100C4000180069E000208DF81B0009208DF81C00B9
:100C500006208DF81D001420ADF818005CE05AE065
:100C600000208DF81B0002208DF81C0001208DF85B
:100C70001D003020ADF818004EE000208DF81B005C
:100C800007208DF81C0006208DF81D000920ADF806
:100C9000180041E000208DF81B0002208DF81C0098
:100CA00001208DF81D001820ADF8180034E0002058
:100CB0008DF81B0004208DF81C0002208DF81D000B
:100CC0000A20ADF8180027E000208DF81B00052051
:100CD0008DF81C0004208DF81D000620ADF81800CA
:100CE0001AE000208DF81B0004208DF81C00022063
:100CF0008DF81D000520ADF818000DE000208DF8DE
:100D00001B0002208DF81C0001208DF81D0006201C
:100D1000ADF8180000E000BF00BF06A91348FFF7B8
:100D200034FEE8B28DF8120000208DF81300012087
:100D30008DF81400300CADF80800F0B2ADF80A00E0
:100D40004FEA1840ADF80C0008F0FF00ADF80E00B7
:100D50000020ADF8100001208DF8150002A8FFF763
:100D600087FD0020A8E60000000C01400064004060
:100D700010B500F5D87303EB01131B6803F00403EF
:100D80001372137A53B900F5D87303EB01131B6880
:100D900040F2FF7404EA5353136009E000F5D8737E
:100DA00003EB01131B686FF0604404EAD303536044
:100DB00000F5D87303EB01131B6803F002035372B1
:100DC00000F5D87303EB01135B6803F00F03937214
:100DD00000F5D87303EB01135B681B0AD37400F5AD
:100DE000D87303EB01139B68D37200F5D87303EB40
:100DF00001139B681C0A147300F5D87303EB0113ED
:100E00009B681C0C547300F5D87303EB01139B68AB
:100E10001B0E937300F5D87303EB0113DB68D373D8
:100E200000F5D87303EB0113DB681C0A147400F59A
:100E3000D87303EB0113DB681C0C547400F5D873F2
:100E400003EB0113DB681B0E937421B9C36843F0F5
:100E50002003C36003E0036943F02003036110BD76
:100E600010B502460020936803F08063B3F1806FF1
:100E700000D110E0936803F00063B3F1006F01D17B
:100E8000012008E0936803F08053B3F1805F01D143
:100E9000022000E00420042874D002F5C07303EBA4
:100EA00000131B6803F0010402F5C07303EB001389
:100EB0001C600B7A7BB94B7A0C8843EA445302F5E9
:100EC000C07404EB00142468234302F5C07404EBDF
:100ED0000014236010E00B7A4C6843EAC4034C7A98
:100EE000234302F5C07404EB00142468234302F585
:100EF000C07404EB001423608B7A03F00F038B7231
:100F000002F5C07303EB00135B6823F00F0402F5D6
:100F1000C07303EB00135C6002F5C07303EB0013B6
:100F20005B688C7A234302F5C07404EB00146360A1
:100F30008B7B1C064B7B44EA03440B7B44EA032374
:100F4000CC7A234302F5C07404EB0014A3608B7CBD
:100F50001C064B7C44EA03440B7C44EA0323CC7B11
:100F6000234302F5C07404EB0014E36002F5C07380
:100F700003EB00131B6843F0010402F5C07303EB9D
:100F800000131C6010BD000010B50246002321B103
:100F9000012907D002290FD109E090681D4C00EA11
:100FA00004030BE090681C4C00EA040306E0906820
:100FB0001A4C00EA040301E0002300BF00BF184CF4
:100FC000181BA34216D007DC83B16FF08060184471
:100FD00070B1022818D111E0B0F5007F10D0114C8B
:100FE000204448B1B0F5003F0ED10BE002230DE0E4
:100FF00000230BE0002309E0002307E0012305E0C4
:10100000012303E0012301E0002300BF00BFD8B2A9
:1010100010BD0000030000040003000800000310DE
:10102000000100080001FFF72DE9F04186B00546F8
:101030000F46904600240195029500208DF80C0083
:101040008DF80D008DF80E8000BF05E0395D0DF1C3
:101050000F000155601C84B2082CF7DB01A90E4873
:10106000FFF7FEFE0646002401E0601C84B2314614
:101070000948FFF789FF012803D040F6FF7084423A
:10108000F3DB40F6FF70844203DB012006B0BDE8CD
:10109000F0810020FAE70000006400402DE9F041F3
:1010A0000024002500221146694802F0DCF801F016
:1010B00091FF064600BF01F08DFF801BB0F5FA6F6F
:1010C000F9D3C1E05CB903F0BFFC01216048683886
:1010D00002F0B8F801F07EFF06460124B4E0012CCE
:1010E00018D101F077FF801B1E28EAD901F08AFF92
:1010F0000746082256496839FFF77EF910B90025DE
:101100000224A1E0032D02DA6D1C00249CE00025DE
:10111000022499E0022C0ED103F096FC03244C48E3
:1011200070380122D0F8BC10203002F09CF801F099
:1011300051FF064688E0032C18D101F04BFF801BBD
:101140001E28BED901F05EFF0746082240495039EB
:10115000FFF752F910B90025042475E0032D02DAD7
:101160006D1C022470E0002504246DE0042C0ED1D7
:1011700003F06AFC364870380122D0F8B0102830ED
:1011800002F071F8052401F025FF06465CE0052C0D
:1011900018D101F01FFF801B1E2855D901F032FF26
:1011A000074608222A494839FFF726F910B90025D1
:1011B000062449E0032D02DA6D1C042444E00025D6
:1011C000062441E0062C0ED103F03EFC2048703886
:1011D0000122D0F8B010303002F045F8072401F0B9
:1011E000F9FE064630E0072C18D101F0F3FE801B13
:1011F0001E2829D901F006FF074608221449403964
:10120000FFF7FAF810B9002564241DE0032D02DA77
:101210006D1C062418E00025642415E0642C13D10D
:1012200000200B497039C1F8C80006200949C1F8EF
:10123000DC0007497039C1F8CC0002F0EBFE03F086
:1012400003FC03F0B9FC00E03CE700BFBDE8F0811F
:1012500004010020C828002070B501F0D3FE044628
:101260009548D0F8CC0003280AD106209249C1F84D
:10127000CC000A20914908600020914908601AE0DA
:101280008D48D0F8CC0002280AD106208A49C1F83E
:10129000CC002820894908600020894908600AE0BC
:1012A0008548D0F8CC00042805D114208349086073
:1012B0000020834908608148006838B901F08AFE3F
:1012C0008049086001207D490860F4E07B4800689F
:1012D00001280AD17B48006802F0C4FBB0F57A7F90
:1012E000F3D91E2075490860E5E0744800680A28B3
:1012F0000ED103F0A9FB01216F48103001F0A2FFCD
:1013000001F068FE6F4908600B206C490860D2E06C
:101310006A4800680B2823D16A48006802F0A2FBE3
:101320003228D2D901F06EFE0546082262491031FA
:10133000FFF762F818B9002060490860BBE0604818
:101340000068022808DA5E480068401C5C490860B2
:101350000A205A490860AEE0002058490860AAE017
:101360005648006814280ED103F06EFB0121524844
:10137000083001F067FF01F02DFE5249086015208A
:101380004E49086097E04D480068152823D14D4824
:10139000006802F067FB322897D901F033FE05465A
:1013A000082245490831FFF727F818B900204349BA
:1013B000086080E042480068022808DA4048006877
:1013C000401C3F49086014203C49086073E000203D
:1013D0003A4908606FE0394800681E280ED103F0D2
:1013E00033FB01213448483001F02CFF01F0F2FDBD
:1013F000344908601F20314908605CE02F480068CC
:101400001F281ED12F48006802F02CFB322852D929
:1014100001F0F8FD0546022227494831FEF7ECFFAE
:1014200038B900202549086020792749A1F806012C
:1014300041E0FF202449A1F8060100201F4908606F
:1014400039E01E48006828280ED103F0FDFA01217A
:101450001948183001F0F6FE01F0BCFD194908608A
:1014600029201649086026E014480068292822D15E
:101470001448006802F0F6FA32281CD901F0C2FDC7
:10148000054608220C491831FEF7B6FF18B90020AE
:101490000A4908600FE00A480068022808DA08488C
:1014A0000068401C0649086028200449086002E0E2
:1014B00000200249086070BD940000205400002004
:1014C0005800002050000020BC2700200149C860BF
:1014D000704700000020024030B5044604254FF458
:1014E000302000F085F80546042D17D10C4800691E
:1014F00040F002000A49086108464461006940F072
:10150000400008614FF4302000F072F805460448AE
:10151000006941F6FD71084001490861284630BD67
:101520000020024004200B49C96801F0010109B103
:1015300001200EE00749C96801F0040109B1022049
:1015400007E00449C96801F0100109B1032000E077
:1015500004207047002002400348006940F08000EA
:1015600001490861704700000020024078B5064636
:101570000C46042500200090E80200F039F80546EA
:10158000042D24D11348006940F00100114908617D
:101590003480E80200F02CF80546042D10D1B01C70
:1015A0000090200C00990880E80200F021F8054620
:1015B0000848006941F6FE7108400649086106E0E6
:1015C0000448006941F6FE71084002490861284656
:1015D00078BD0000002002400248034948600348EB
:1015E000486070472301674500200240AB89EFCD7A
:1015F00000B502460423FFF795FF034603E0FFF71B
:1016000091FF0346521E012B01D1002AF7D102B9E6
:101610000523184600BD2DE9F041024600250026AD
:10162000002000230024002791F803C00CF00F05D0
:1016300091F803C00CF0100CBCF1000F03D091F82E
:1016400002C04CEA050591F800C0BCF1000F31D092
:10165000146800202BE04FF0010C0CFA00F3B1F8F5
:1016600000C00CEA03069E4220D183004FF00F0C0D
:101670000CFA03F7BC4305FA03FC4CEA040491F8A6
:1016800003C0BCF1280F06D14FF0010C0CFA00FC8E
:10169000C2F814C00AE091F803C0BCF1480F05D1AC
:1016A0004FF0010C0CFA00FCC2F810C0401C0828D6
:1016B000D1D31460B1F800C0BCF1FF0F34DD546821
:1016C00000202EE000F1080C4FF0010808FA0CF39E
:1016D000B1F800C00CEA03069E4221D183004FF00E
:1016E0000F0C0CFA03F7BC4305FA03FC4CEA0404A4
:1016F00091F803C0BCF1280F05D100F1080C08FADD
:101700000CF8C2F8148091F803C0BCF1480F07D15F
:1017100000F1080C4FF0010808FA0CF8C2F810802C
:10172000401C0828CED35460BDE8F081F0B50A46CD
:10173000002300240021002500F00046B6F1004FF0
:1017400002D11D4EF16901E01B4E7168C0F30345E3
:1017500083B200F44016B6F5401F08D121F0706145
:10176000154E766826F07066134F7E6012E000F426
:101770008016B6F5801F06D1032606FA05F4A143AC
:1017800041F0706106E0460D360103FA06F6B143FA
:1017900041F0706122B1460D360103FA06F631437D
:1017A00000F00046B6F1004F02D1034EF16101E0B6
:1017B000014E7160F0BD00000000014002460020B3
:1017C00093680B400BB1012000E00020704741619D
:1017D00070470161704700004CF6CC400149086039
:1017E00070470000003000404AF6AA200149086016
:1017F0007047000000300040014948607047000019
:10180000003000400149886070470000003000400F
:1018100001490860704700000030004010B53E48A4
:10182000006850BB01213D48FFF7C8FF38B901F0FF
:10183000D1FB3B49086001203749086007E039487F
:1018400090F80A0100F0EF003649A1F80A010221E0
:101850003248FFF7B3FF38B901F0BCFB30490860EC
:101860000A202D49086055E02E4890F80A0100F042
:10187000DF002C49A1F80A014CE027480068012844
:1018800012D12748006802F0EDF80A2842D9012158
:101890002248FFF793FF18B902201F49086039E07A
:1018A00000201D49086035E01B48006802280BD164
:1018B0001C48B0F90A0140F010001A49A1F80A01C9
:1018C00000201549086025E0134800680A2812D155
:1018D0001348006802F0C6F80A281BD902210F48F5
:1018E000FFF76CFF18B90B200B49086012E00020CD
:1018F000094908600EE0084800680B280AD1094829
:10190000B0F90A0140F020000649A1F80A010020C0
:101910000149086010BD000064000020000C014077
:1019200068000020BC27002070B5002100230F2292
:10193000C47804B3154C246804F4E064C4F5E0648E
:10194000210AC1F10403CA40447804FA03F18478FF
:101950001440214309010E4C0678A155047804F087
:101960001F050124AC4005786D11AD0005F1E0259F
:10197000C5F8004109E0047804F01F050124AC40DB
:10198000044D0678761145F8264070BD0CED00E058
:1019900000E400E080E100E029B1064AD269024398
:1019A000044BDA6104E0034AD2698243014BDA61F5
:1019B000704700000010024029B1064A1269024334
:1019C000044B1A6104E0034A12698243014B1A6115
:1019D000704700000010024029B1064A9269024394
:1019E000044B9A6104E0034A92698243014B9A6175
:1019F000704700000010024029B1064AD268024335
:101A0000044BDA6004E0034AD2688243014BDA6097
:101A1000704700000010024030B500210022002471
:101A200000232D4D6D6805F00C0121B1042905D06E
:101A3000082923D105E0294D056022E0274D0560E6
:101A40001FE0254D6D6805F47012234D6D6805F497
:101A50008034022505EB92421CB9214D55430560A7
:101A60000BE01D4D6D6805F400351DB11C4D55434F
:101A7000056002E0194D5543056002E0174D056011
:101A800000BF00BF144D6D6805F0F0010909154D48
:101A90006B5C0568DD4045600F4D6D6805F4E061E5
:101AA000090A104D6B5C4568DD4085600A4D6D6824
:101AB00005F46051C90A0B4D6B5C4568DD40C5609B
:101AC000054D6D6805F44041890B074D6B5CC56899
:101AD000B5FBF3F5056130BD0010024000127A003D
:101AE00000093D006C0000207C00002010B501467C
:101AF0000022002300204A11012A02D1094C236848
:101B000006E0022A02D1074C236A01E0054C636A11
:101B100001F01F02012494401C400CB1012000E0A0
:101B2000002010BD0010024001490860704700000D
:101B3000800442422DE9F0470646002485E1012257
:101B40002146C4A001F02AFF94B90121C248FFF741
:101B500035FE01280AD10221BF48FFF72FFE0128D8
:101B600004D1641C01F036FA07466EE10A246CE1E8
:101B7000012C13D1384601F075FF0A28DED9012166
:101B8000B548FFF71BFE012806D10221B248FFF736
:101B900015FE012800D159E1641E56E10A2C0BD133
:101BA00003F00AF804223146AC4802F028F901F0AB
:101BB00011FA0746641C48E10B2C17D1384601F096
:101BC00051FF3228BAD901F021FA80460822A349F0
:101BD000FEF712FC10B1641C002536E1032D02DA79
:101BE0006D1C641E31E1641C00252EE10C2C1AD101
:101BF00001219948FFF7E2FD012805D1022196480D
:101C0000FFF7DCFD00B90F2401219348FFF7D6FD53
:101C100038B902219048FFF7D1FD012801D10D24E8
:101C200013E10F2411E10D2C0FD102F0C5FF8B48F9
:101C30007838D0F8D80041428848103001F06FFF62
:101C400001F0C8F90746641CFFE00E2C21D138468C
:101C500001F008FF1E2888D980481030FEF7F8FBF5
:101C6000804601F0D3F9814642467C491031FEF7A7
:101C7000C3FB20B9642401F0ADF90746E5E0022D6D
:101C800002DA6D1C641EE0E0642401F0A3F907464B
:101C9000DBE00F2C0DD102F08FFF70487838D0F8C0
:101CA000D810883001F03BFF01F094F90746641C1E
:101CB000CBE0102C21D1384601F0D4FE1E288CD95F
:101CC00066481030FEF7C4FB804601F09FF981465C
:101CD000424662491031FEF78FFB20B9642401F0BF
:101CE00079F90746B1E0022D02DA6D1C641EACE002
:101CF000642401F06FF90746A7E0642C15D1012197
:101D00005548FFF75BFD012807D102215248FFF734
:101D100055FD012801D1641C97E0384601F0A2FE70
:101D200041F2883188428FD990E0652C14D1384631
:101D300001F098FE0A2887D901214748FFF73EFDA8
:101D4000012807D102214448FFF738FD012801D1BD
:101D5000641C7AE0641E78E0662C0BD102F02CFF44
:101D600010213E484D3001F0C7FE01F033F907461F
:101D7000641C6AE0672C16D1384601F073FE3228E5
:101D800063D901F043F98046082234494D31FEF70A
:101D900033FB08B9641C58E0032D02DA6D1C641E85
:101DA00053E0641C51E0682C0ED102F005FF2B4873
:101DB00078380422D0F8D010783002F020F801F002
:101DC00009F90746641C40E0692C17D1384601F038
:101DD00049FE322839D901F019F9804608221F49F5
:101DE000FEF70AFB10B10025641C2EE0032D02DA79
:101DF0006D1C641E29E00025641C26E06A2C0BD1B2
:101E000002F0DAFE01211548353001F075FE01F0CF
:101E1000E1F80746641C18E06B2C16D1384601F037
:101E200021FE322811D901F0F1F8804608220B4931
:101E30003531FEF7E1FA08B1002507E0032D02DA9B
:101E40006D1C641E01E0002500E078E600BFBDE8DF
:101E5000F087000061000000000C014040290020D4
:101E600070B501F0CFF80446A748D0F8DC0050B9AF
:101E70000A20A64908600020A54908600620A2495A
:101E8000C1F8DC001EE0A048D0F8DC0001280AD12F
:101E900014209E49086000209D49086006209A4948
:101EA000C1F8DC000EE09848D0F8DC00042809D125
:101EB0001E20964908600020954908600620924936
:101EC000C1F8DC009148006838B901F083F8914905
:101ED000086001208D49086015E18C4800680128E0
:101EE0000AD18C48006801F0BDFDB0F57A7FF3D9C6
:101EF00028208649086006E1844800680A2811D134
:101F000002F05AFE8048D0F8D810883001F007FE61
:101F100001F060F87F4908607C480068401C7B49FC
:101F20000860F0E0794800680B282AD179480068F9
:101F300001F098FD1E28CFD973488830FEF788FA43
:101F4000054601F063F806462A466F498831FEF7D8
:101F500053FA18B900206D490860D4E06C48006855
:101F600002280ADA6A480068401C69490860674824
:101F70000068401E65490860C5E0002063490860AC
:101F8000C1E062480068142813D102F015FE5E48D3
:101F9000D0F8D80041425C48883001F0C0FD01F023
:101FA00019F85C49086059480068401C57490860A6
:101FB000A9E05648006815282AD15648006801F063
:101FC00051FD1E2888D950488830FEF741FA054651
:101FD00001F01CF806462A464B498831FEF70CFAF8
:101FE00018B90020494908608DE049480068022876
:101FF0000ADA47480068401C4549086043480068C1
:10200000401E424908607EE00020404908607AE0B6
:102010003E4800681E2810D102F0CEFD10213A483B
:10202000AD3001F069FD00F0D5FF3A49086037484E
:102030000068401C3549086065E0344800681F2886
:102040002AD13448006801F00DFD1E285BD92E48C6
:10205000AD30FEF7FDF9054600F0D8FF06462A46EA
:102060002949B531FEF7C8F918B900202749086099
:1020700049E0274800680A280ADA25480068401C19
:102080002349086021480068401E204908603AE062
:1020900000201E49086036E01C480068282810D13E
:1020A00002F08AFD08211848A53002F0F5FD00F085
:1020B00091FF1849086015480068401C13490860E2
:1020C00021E01248006829281DD11248006801F05B
:1020D000C9FC1E2817D900F099FF054602220A49BB
:1020E000A531FEF789F938B9E1780B48A0F8081155
:1020F00000200649086006E0FF210748A0F8081103
:1021000000200249086070BDC82800204800002057
:102110004C00002044000020BC27002010B500F037
:1021200001F810BD0CB50020019000903348006804
:1021300040F480303149086000BF3048006800F446
:10214000003000900198401C0190009818B9019847
:10215000B0F5A06FF1D12948006800F4003010B14B
:102160000120009001E0002000900098012843D158
:102170002348006840F010002149086008460068C4
:1021800020F0030008600846006840F00200086084
:102190001A4840681949486008464068486008463F
:1021A000406840F4806048600846406820F47C1035
:1021B00048600846406840F4E810486008460068F7
:1021C00040F08070086000BF0C48006800F00070AC
:1021D0000028F9D00948406820F00300074948600A
:1021E0000846406840F00200486000BF034840686D
:1021F00000F00C000828F9D10CBD000000100240CE
:10220000002002401CB50020009001906148006849
:1022100068B940216048FFF7D1FA002806D100F0E4
:10222000D9FE5E49086001205A490860B0E059486B
:102230000068012812D15948006801F013FC0A28EF
:10224000F4D940215448FFF7B9FA18B9022051498E
:1022500008609DE000204F49086099E04D48006803
:1022600002283BD14E4800788DF8000073208DF88D
:10227000010074208DF802006F208DF8030070209B
:102280008DF80400082269460020FEF7CDFE00F01C
:10229000A1FE424908604248B0F90A0140F001003D
:1022A0003F49A1F80A0104203E49C1F8DC003E493B
:1022B000C1F8CC00002406E0002004EBC4013B4A36
:1022C00022F83100641C802CF6DB00203449488061
:1022D00030480068401C2F49086059E02D480068CC
:1022E00003281BD140212C48FFF768FA012809D1A7
:1022F00000F070FE2949086026480068401C254906
:10230000086045E02548006801F0ACFB64283FD92F
:1023100020480068401E1F49086039E01D480068D9
:10232000042835D11D48006801F09CFB0A282FD9EC
:1023300040211948FFF742FA012826D1002015490B
:102340000860174800788DF8000075208DF80100AE
:102350006E208DF8020073208DF8030074208DF834
:1023600004006F208DF8050070208DF8060008220B
:1023700069460020FEF758FE094890F80A0100F06F
:10238000FE000749A1F80A0102E0032001490860A4
:102390001CBD00005C000020001001406000002017
:1023A000BC270020C82800209400002064010020E1
:1023B00002480068401C014908607047380000204E
:1023C00010B51348006840F0010011490860084644
:1023D0004068104908400E494860084600680E49A8
:1023E00008400B4908600846006820F48020086017
:1023F0000846406820F4FE0048604FF41F008860E3
:10240000FFF78CFE4FF000600449086010BD00002B
:10241000001002400000FFF8FFFFF6FE08ED00E0AC
:1024200010B540F225510C4800F0F9F890B10A4877
:1024300000F0B0F9C4B2094801680068401C074ABE
:1024400010600748445410460068C82802D3C720CB
:102450001146086010BD0000004C00403000002014
:10246000A829002010B540F22551134800F0D7F8F4
:1024700000B3114800F08EF9C4B210480068C8B922
:102480000D2C01D00A2C06D10D48006890B1012016
:102490000A4908600EE00A4801680068401C084AC2
:1024A00010600848445410460068C82802D3C7206A
:1024B0001146086010BD00000038014008000020EF
:1024C000000000206425002010B540F225510C4882
:1024D00000F0A5F890B10A4800F05CF9C4B20948D0
:1024E00001680068401C074A1060074844541046C1
:1024F0000068C82802D3C7201146086010BD00003C
:10250000004400400C0000202C26002010B540F2B2
:1025100025510C4800F083F890B10A4800F03AF9D0
:10252000C4B2094801680068401C074A10600748A7
:10253000445410460068C82802D3C72011460860DA
:1025400010BD00000048004014000020F4260020C8
:1025500021B1828942F40052828104E082894DF6E1
:10256000FF731A408281704710B5044620488442A8
:1025700009D101218803FFF73FFA00214FF4804081
:10258000FFF73AFA32E01B48844209D1012148049E
:10259000FFF712FA00214FF40030FFF70DFA25E0A3
:1025A0001548844209D101218804FFF705FA00216A
:1025B0004FF48020FFF700FA18E01048844209D158
:1025C0000121C804FFF7F8F900214FF40020FFF7BC
:1025D000F3F90BE00A48844208D101210805FFF70E
:1025E000EBF900214FF48010FFF7E6F910BD000071
:1025F000003801400044004000480040004C0040CA
:102600000050004002460020B1F5007F00D100BF1D
:1026100013880B400BB1012000E00020704770B51B
:102620000246002400230025002040F66A16B1422D
:1026300000D100BFC1F3421501F01F03012606FAC5
:1026400003F3012D02D19689334006E0022D02D119
:10265000168A334001E0968A33400C12012606FAAE
:1026600004F41688344013B10CB1012000E00020BE
:1026700070BDF0B50346002400260025002040F67A
:102680006A17B94200D100BF1846C1F3421401F0E5
:102690001F06012707FA06F5012C01D10C3004E0D2
:1026A000022C01D1103000E014301AB107682F431A
:1026B000076002E00768AF430760F0BD2DE9F0470F
:1026C00086B005460E460024A24600BFA14600275C
:1026D000B08900B100BF2F462C8A4CF6FF70044031
:1026E000F08804432C82AC894EF6F3100440B08885
:1026F00031890843718908430443AC81AC8A4FF6A1
:10270000FF400440B0890443AC8201A8FFF784F97C
:102710001F48874202D1DDF810A001E0DDF80CA0CF
:10272000A88900F4004040B10AEBCA0000EB0A108F
:1027300031684900B0FBF1F807E00AEBCA0000EB92
:102740000A1031688900B0FBF1F86420B8FBF0F0A2
:1027500004012009642101FB1089A88900F40040CC
:1027600040B1322000EBC900B0FBF1F000F00700EF
:10277000044308E0322000EB09106421B0FBF1F0C3
:1027800000F00F0004432C8106B0BDE8F087000084
:102790000038014001468888C0F308007047C1F343
:1027A000080282807047000010B586B0002401AA9C
:1027B00000212448FEF7DCFA234909880198884261
:1027C00004D00198012801D906B010BD002409E009
:1027D0000DF10F00005D1D4908550846007C401CA6
:1027E0000874641C082CF3DB0821184802F054FA22
:1027F00016484078732822D11448807874281ED156
:102800001248C0786F281AD110480079702816D164
:1028100004200F49C1F8DC000E49C1F8CC000024A7
:1028200000BF06E0002004EBC4010B4A22F831008F
:10283000641C802CF6DB00200349488000E000BFC8
:1028400000BFC1E700640040BC270020702A0020C0
:10285000C8280020940000206401002070B590B0CA
:1028600005460E4600240CE0601C1B4951F8200070
:102870004DF82400601CB5EB800F01D14DF82460A9
:10288000641C102CF0DBFEF7A7FE3420FEF71EFEC2
:102890000120124908701048FEF71EFE0F4908700B
:1028A00008460078042810D10120087000240AE0AE
:1028B0005DF82410621C084B03EB8200FEF756FE05
:1028C00006490870641C102CF2DB012003490870D3
:1028D000FEF742FE10B070BD00F000081C000020A2
:1028E0002DE9FF410027002000900190FE48007C68
:1028F00008287CD1FC484078062879D006DC0128DD
:1029000009D0022875D0032874D1B1E0082872D00C
:102910001028F9D143E2F5480088F3490978884244
:1029200005DAF2484088401CF049488076E0EF48DC
:102930000088ED490978884270D16F208DF8000039
:102940006B208DF80100E949088808226946FEF7E6
:102950006BFB00245EE004EBC400E54931F8300075
:10296000002856D1E0488078000650B9DE48C0788B
:102970000004DD49097940EA0120DB49497908432F
:1029800008B1012000E0002004EBC401D84A22F87D
:102990003100D648408804EBC40102EBC1014880F5
:1029A000652004EBC40102EBC10108716E2104EB48
:1029B000C40002EBC0004171642104EBC40002EBCF
:1029C000C000817100261EE0C749F01D0A5C04EBBF
:1029D000C400C74901EBC000001DF11C425404EBC8
:1029E000C400C34901EBC000406C401C04E0F5E1A9
:1029F0007FE014E0EDE1BDE004EBC401BC4A02EB72
:102A0000C1014864761CB848007C801FB042DBDC02
:102A100002E0641C802C9EDB00BF00BFDAE1B348FB
:102A20000088B1490978884221D1B04800788DF8F2
:102A3000000002208DF8010003208DF80200AB4851
:102A400090F806018DF80300A84890F808018DF869
:102A50000400A64890F80A018DF805000120A3495A
:102A6000A1F80401088808226946FEF7DDFAB1E101
:102A70009E4800889C490978884239D19A488078D4
:102A8000012818D18DF8080003208DF80900964818
:102A9000C0788DF80A00944800798DF80B009248B0
:102AA00080799149497940EA01250222294602A804
:102AB00001F0A5F91CE08C488078022818D101208B
:102AC0008DF8080003208DF809008748C0788DF83C
:102AD0000A00854800798DF80B0083488079824987
:102AE000497940EA01250422294602A801F087F924
:102AF00070E17E4800887C490978884239D17A485B
:102B00008078012818D18DF8080006208DF809007A
:102B10007548C0788DF80A00734800798DF80B006D
:102B2000714880797049497940EA01250222294695
:102B300002A801F064F91CE06B488078022818D1E3
:102B400001208DF8080006208DF809006648C0783D
:102B50008DF80A00644800798DF80B00624880798E
:102B60006149497940EA01250422294602A801F079
:102B700046F92FE15D4800885B490978884203D017
:102B800059480078002816D15748007857490988D5
:102B9000884211D1544880782028F4D15248C07816
:102BA0000828F0D1504840795049088008460188EB
:102BB0001C20FFF753FEF1E04B488078E0B94A480B
:102BC000C078C8B94848407920B902204949C1F8BD
:102BD000CC00E3E044484079012804D10320454972
:102BE000C1F8CC00DAE0404840790528E3D1042060
:102BF0004049C1F8CC00D1E03B488078E0B93A4880
:102C0000C078012818D13848407920B900203A49C5
:102C1000C1F8DC00C2E034484079012803D13649CC
:102C2000C1F8DC00BAE0304840790528C3D104205F
:102C30003149C1F8DC00B1E02B48807820281AD156
:102C40002948C078012816D12748407926490979B2
:102C500040EA01202749C1F8BC0008460222D0F80A
:102C6000BC10203001F0CBF82248D0F8BC1008206E
:102C7000FFF7F4FD92E01C48807801281AD11A4829
:102C8000C078902816D1184840791749097940EA48
:102C900001201949C1F8D00008460422D0F8D0100C
:102CA000783001F0ACF81448D0F8D0101020FFF7BD
:102CB000D5FD73E00C48807801282DD10A48C078F2
:102CC000682829D10848007900060749497940EA6F
:102CD00001400549897940EA01200349C97908433F
:102CE0000549C1F8D80009E0702A0020BC2700205F
:102CF0006401002094000020C8280020084601221A
:102D0000D0F8D81036A000F049FE3648D0F8D810D8
:102D10001820FFF7A3FD41E03348807850BB3248CC
:102D2000C078502826D1304840792F49097940EAA7
:102D300001202C49C1F8D40008460422D0F8D41050
:102D4000103001F05CF800F045F9074600BF00F0D4
:102D500041F9C01B6428FAD322480422D0F8D410C9
:102D6000183001F04CF81F48D0F8D4101420FFF7A9
:102D700075FD13E01C48807869280FD11A48C07887
:102D80006E280BD118480079692807D11648407978
:102D9000742803D100F082FAFEF780F91AE0134894
:102DA000008811490978884212D10F48807801289B
:102DB00005D10D48C178C01C01F0B0FE08E00A48FA
:102DC0008078022804D10848C178C01C01F064FF53
:102DD00000E000BF00BF002003490874BDE8FF8188
:102DE000706F7300C8280020702A0020BC270020C4
:102DF000F0B502460E464FF6FF7015467DB1002431
:102E00000BE02B7880EA0301CFB2DFF820C03CF85A
:102E1000177087EA20206D1C641CB442F1D34FF672
:102E2000FF7707EA002100120843F0BD304D00088B
:102E3000FF200649A1F80601FF210448A0F8081167
:102E400000200249A1F8040170470000BC270020BF
:102E500006494868411C19B10549C1F8B00003E0B2
:102E60000521034AC2F8B0107047000000F00008C6
:102E7000940000200549C869411C11B1044A108022
:102E800002E00221024A11807047000000F00008B1
:102E9000BC27002000B5FFF7DBFF00F089F800F049
:102EA0003FF800F073F800F04BF800F05BF8FFF724
:102EB000E1FF00BD10B5A6B0802106A8FDF73BFBE1
:102EC000124800881249D1F8D810114AD2F8D420FB
:102ED0000F4BD3F8D030CDE90132CDE903100D48C6
:102EE000008800900C48D0F8BC300C49D0F8B020D5
:102EF00006A8FDF79BF906A8FDF7AAFA04462146A5
:102F000006A801F085FD26B010BD0000BC270020FA
:102F1000C82800201E00002094000020404F000818
:102F20000549C868411C11B1044A108003E046F20B
:102F3000A811024A1180704700F000081E0000200E
:102F400006494869411C19B10549C1F8D40003E09C
:102F50003221034AC2F8D4107047000000F0000884
:102F6000C828002006498869411C19B10549C1F8E3
:102F7000D80003E00449034AC2F8D81070470000A3
:102F800000F00008C828002018E40300064908697A
:102F9000411C19B10549C1F8D00004E040F2DC51F0
:102FA000024AC2F8D010704700F00008C82800207C
:102FB00006498868411C19B10549C1F8BC0004E004
:102FC00040F21451024AC2F8BC10704700F00008E9
:102FD000940000200148006870470000380000207D
:102FE000004870476425002004480068012802D189
:102FF0000348006870470020FCE70000080000203C
:1030000000000020004870472C2600200048704730
:10301000A829002070B505468348006858BB1021D8
:103020008248FEF7CBFB01281DD020217F48FEF708
:10303000C5FB012817D040217C48FEF7BFFB0128C3
:1030400011D080217948FEF7B9FB01280BD010215F
:103050007748FEF7B3FB012805D020217448FEF71E
:10306000ADFB012806D1FFF7B5FF724908600120CA
:103070006D490860D7E06C48006801287AD16D4836
:10308000006800F0EFFCA842F4D910216748FEF771
:1030900095FB01281DD020216448FEF78FFB0128F5
:1030A00017D040216148FEF789FB012811D080210B
:1030B0005E48FEF783FB01280BD010215C48FEF729
:1030C0007DFB012805D020215948FEF777FB012818
:1030D00059D159484088002805DD57484088401E8E
:1030E000554948804FE000244BE004EBC4005349AD
:1030F00031F83000E8B304EBC40011F8300000F000
:103100000100D0B14C4890F80A0100F0100070BBEB
:1031100000204B49C1F8DC0004EBC403474E06EB2A
:10312000C30393F8442004EBC40306EBC303191D47
:10313000414B1888FDF778FF19E03F4890F80A01E5
:1031400000F0200098B901203D49C1F8DC0004EBF3
:10315000C4033A4E06EBC30393F8442004EBC403C4
:1031600006EBC303191D344B1888FDF75DFF0020E3
:1031700001E005E00FE004EBC401304A22F8310021
:10318000641C802CB1DB022027490860FFF722FF76
:103190002849086047E02448006802283CD11021F3
:1031A0002248FEF70BFBC0B120212048FEF706FBAA
:1031B00098B140211D48FEF701FB70B180211B48EA
:1031C000FEF7FCFA48B110211948FEF7F7FA20B1D2
:1031D00020211748FEF7F2FA58B9174890F80A016B
:1031E00000F0FD001449A1F80A0100200E49086012
:1031F00019E01048006800F035FCB0F57A7F12D96C
:103200000320094908600C48B0F90A0140F00200A7
:103210000949A1F80A0106E003480068032802D121
:1032200000200149086070BD3C00002000080140FA
:103230000010014040000020BC2700206401002055
:10324000C828002070B504460D462570062120468A
:10325000FFF7CEFD0646300AA071E6710821204630
:1032600001F05CFC70BDF0B585B004460D46164615
:1032700014216846FDF75FF92670280A20716571F0
:1032800006212046FFF7B4FD07463812A071E7710A
:103290000821204601F042FC05B0F0BD2DE9F041C7
:1032A000002500240026A8E254B901F085FC08217D
:1032B000FB4801F0F1FCFFF78DFE064601249CE27D
:1032C000012C17D1304600F0CDFB3228EBD9FFF7A7
:1032D0009DFE07460822F249FDF78EF810B1641CE6
:1032E00000258AE2032D02DA6D1C641E85E2641C4F
:1032F000002582E2022C0BD101F05EFC0821E84897
:10330000083001F0C9FCFFF765FE0646641C74E254
:10331000032C18D1304600F0A5FB3228C3D9FFF7A3
:1033200075FE07460822DE490831FDF765F810B141
:10333000641C002561E2032D02DA6D1C641E5CE250
:10334000641C002559E2042C0DD101F035FCD44851
:103350000422D0F8D410103000F051FDFFF73AFEEF
:103360000646641C49E2052C18D1304600F07AFB71
:10337000322898D9FFF74AFE07460822C84910317B
:10338000FDF73AF810B1641C002536E2032D02DA8D
:103390006D1C641E31E2641C00252EE2062C0DD14A
:1033A00001F00AFCBE480422D0F8D410183000F016
:1033B00026FDFFF70FFE0646641C1EE2072C18D1FF
:1033C000304600F04FFB32288BD9FFF71FFE07462F
:1033D0000822B3491831FDF70FF810B1641C00251D
:1033E0000BE2032D02DA6D1C641E06E2641C00254C
:1033F00003E2082C0BD101F0DFFB0821A8482030A4
:1034000001F04AFCFFF7E6FD0646641CF5E1092CD5
:1034100018D1304600F026FB32288BD9FFF7F6FD95
:10342000074608229E492031FCF7E6FF10B1641CD4
:103430000025E2E1032D02DA6D1C641EDDE1641C4F
:103440000025DAE10A2C0BD101F0B6FB08219448E3
:10345000283001F021FCFFF7BDFD0646641CCCE1DD
:103460000B2C18D1304600F0FDFA32288DD9FFF729
:10347000CDFD074608228A492831FCF7BDFF10B16F
:10348000641C0025B9E1032D02DA6D1C641EB4E151
:10349000641C0025B1E10C2C0BD101F08DFB08213F
:1034A0007F48303001F0F8FBFFF794FD0646641CBE
:1034B000A3E10D2C18D1304600F0D4FA32288FD970
:1034C000FFF7A4FD0746082275493031FCF794FF49
:1034D00010B1641C002590E1032D02DA6D1C641EFE
:1034E0008BE1641C002588E10E2C0BD101F064FBFC
:1034F00008216B48483001F0CFFBFFF76BFD064613
:10350000641C7AE10F2C18D1304600F0ABFA322857
:103510008FD9FFF77BFD0746082261494831FCF748
:103520006BFF10B1641C002567E1032D02DA6D1CEE
:10353000641E62E1641C00255FE1102C0BD101F0D8
:103540003BFB08215648503001F0A6FBFFF742FD37
:103550000646641C51E1112C18D1304600F082FA65
:1035600032288FD9FFF752FD074608224C495031C7
:10357000FCF742FF10B1641C00253EE1032D02DA86
:103580006D1C641E39E1641C002536E1122C0BD140
:1035900001F012FB08214248583001F07DFBFFF793
:1035A00019FD0646641C28E1132C18D1304600F0A2
:1035B00059FA32288FD9FFF729FD074608223849E2
:1035C0005831FCF719FF10B1641C002515E1032DDB
:1035D00002DA6D1C641E10E1641C00250DE1142C40
:1035E0000BD101F0E9FA08212D48603001F054FBBD
:1035F000FFF7F0FC0646641CFFE0152C18D130469E
:1036000000F030FA32288FD9FFF700FD0746082274
:1036100023496031FCF7F0FE10B1641C0025ECE09A
:10362000032D02DA6D1C641EE7E0641C0025E4E053
:10363000162C0BD101F0C0FA08211948703001F0A6
:103640002BFBFFF7C7FC0646641CD6E0172C18D1ED
:10365000304600F007FA32288FD9FFF7D7FC07462B
:1036600008220F497031FCF7C7FE10B1641C002519
:10367000C3E0032D02DA6D1C641EBEE0641C00254D
:10368000BBE0182C0ED101F097FA082104486830ED
:1036900001F002FBFFF79EFC0646641CADE0000053
:1036A000C8280020192C17D1304600F0DBF9322849
:1036B00009D9FFF7ABFC074608225249FCF79CFEEC
:1036C00010B1641C002598E0032D02DA6D1C641E05
:1036D00093E0641C002590E01A2C1ED101F06CFAD6
:1036E00048486838B0F8D000010A4648683880F881
:1036F0007C1090F8D01080F87D100422D0F8D01003
:10370000783000F07CFB08213E48103001F0C4FA0C
:10371000FFF760FC0646641C6FE01B2C18D1304696
:1037200000F0A0F9322868D9FFF770FC074608229C
:1037300034491031FCF760FE10B1641C00255CE0D8
:10374000032D02DA6D1C641E57E0641C002554E052
:103750001C2C0BD101F030FA00212A48203000F057
:10376000DEF9FFF737FC0646641C46E01D2C18D135
:10377000304600F077F932283FD9FFF747FC07467B
:10378000082220492D31FCF737FE10B1641C0025BA
:1037900033E0032D02DA6D1C641E2EE0641C00254C
:1037A0002BE01E2C0BD101F007FA082115485530EB
:1037B00001F072FAFFF70EFC0646641C1DE01F2C98
:1037C00018D1304600F04EF9322816D9FFF71EFC0A
:1037D000074608220B495531FCF70EFE10B1641C58
:1037E00000250AE0032D02DA6D1C641E05E0641C4E
:1037F000002502E0202C00D100E055E500BFBDE827
:10380000F08100003029002008B501210420FEF7D6
:10381000E3F8F020ADF8000048208DF80300012007
:103820008DF8020069461348FDF7F5FE01211120CD
:10383000FEF7D2F87020ADF8000048208DF80300A4
:1038400001208DF8020069460B48FDF7E4FE0121D6
:103850000820FEF7C1F80320ADF8000048208DF8DD
:10386000030001208DF8020069460448FDF7D3FEED
:1038700008BD00000008014000100140000C01409C
:1038800008B562B62F4800684FF47A72B0FBF2F1C7
:10389000481EB0F1807F00D31BE0481E4FF0E022AD
:1038A000506150170F22002807DA13071D0E264B10
:1038B00000F00F04241F1D5503E013071C0E234BBB
:1038C0001C5400BF00204FF0E022906107201061DF
:1038D00000BF4FF4165000F0AFFB4FF4165001F04C
:1038E000C5F84FF4964001F079F900F0B5FAFFF70A
:1038F0008BFFFDF7D3FB00F029F900F02BF8FFF761
:10390000C9FA6420FEF716F9FFF792FA0020034681
:103910000246014600900A20FDF7C2F800200C493B
:1039200008740EE0FEF7DCFFFEF79AFAFDF794FC50
:103930001E20FFF76FFBFEF765FCFDF76FFF00F041
:10394000CFFBEFE78000002018ED00E000E400E08E
:10395000702A002000210E4A518006210D4AC2F82B
:10396000DC10002010E0002100EBC0020A4B03EB4A
:10397000C202518000EBC00223F8321000EBC002FB
:1039800003EBC2025164401C8028ECDB704700004E
:10399000BC270020C828002064010020F0B589B0B1
:1039A00005460E461446202101A8FCF7C4FD334607
:1039B0002A4618A101A8FCF739FC012C08D101A85E
:1039C000FCF746FD0746394601A801F021F81FE043
:1039D000022C08D101A8FCF73BFD0746394601A897
:1039E00001F09CF814E0032C08D101A8FCF730FD8D
:1039F0000746394601A801F0C3F809E0042C07D1B5
:103A000001A8FCF725FD0746394601A801F044F955
:103A100009B0F0BD25733D25640D00000A210EA0FC
:103A200000F0F6FF45F25550FDF7F2FE0320FDF7DA
:103A3000E3FE4FF47A70FDF7E5FEFDF7D5FEFDF7E6
:103A4000CBFE0120FEF770F800BF6120FEF74EF8B4
:103A50000028FAD000BFFEE73A72657365742E2E17
:103A60002E0D0A0000B50146FFF7B4FA401A00BD5A
:103A700008B501210920FDF7AFFF01210B48FDF733
:103A800055FE4FF48040ADF8000010208DF8030083
:103A900001208DF8020069460548FDF7BCFD4FF492
:103AA00080410348FDF793FE08BD0000000230008E
:103AB000000C014008B501210920FDF78DFF01210F
:103AC0000B48FDF733FE4FF40040ADF80000102026
:103AD0008DF8030001208DF8020069460548FDF7C6
:103AE0009AFD4FF400410348FDF771FE08BD000048
:103AF00000023000000C014070B504460D46280A53
:103B00002071657106212046FFF772F90646300ADA
:103B1000A071E6710821204601F0BEF870BD70B5B5
:103B200004460D46280E6072280CA072280AE07127
:103B300025720B212046FFF75BF90646300AE0723A
:103B400026730D21204601F0A7F870BD00B5B5B071
:103B50006CA30FCBCDE93323CDE931016DA103C9AE
:103B6000CDE92F016DA103C9CDE92D016DA103C9D7
:103B7000CDE92B016DA103C9CDE929016DA103C9CF
:103B8000CDE927016D4903C9CDE925016CA103C920
:103B9000CDE923016CA103C9CDE921016CA103C9C1
:103BA000CDE91F016CA103C9CDE91D016CA103C9B9
:103BB000CDE91B016CA103C9CDE919016CA103C9B1
:103BC000CDE917016CA103C9CDE915016CA103C9A9
:103BD000CDE913016CA103C9CDE911016CA103C9A1
:103BE000CDE90F016CA103C9CDE90D016CA103C999
:103BF000CDE90B016CA103C9CDE909016CA103C991
:103C0000CDE907016CA103C9CDE905016CA103C988
:103C1000CDE903014949083103C9CDE901010D226C
:103C200031A96948FCF733FC67480838DDE92F12F1
:103C300006C08838DDE92D12C0E91E1295302B9997
:103C400001602C9941609538DDE9291206C00838D9
:103C5000DDE92712C0E90212DDE92512C0E90412EC
:103C6000DDE92312C0E90612DDE92112C0E90812DC
:103C7000DDE91F12C0E90A12DDE91D12C0E90C12CC
:103C8000DDE91B12C0E90E12DDE91912C0E91012BC
:103C9000DDE91712C0E91212DDE91512C0E91412AC
:103CA000DDE91312C0E91612DDE91112C0E918129C
:103CB000DDE90F12C0E91A12DDE90D12C0E91C128C
:103CC0009D300B9901600C994160083009990160A1
:103CD0000A994160083007990160089941600830ED
:103CE00005990160069941600830039901600499C3
:103CF0004160083001990160BDF80810818035B03D
:103D000000BD00000110016800020486A00001113E
:103D10001B00000001060001000119CA0106019004
:103D200001F4880C011001680002C1E801060002DC
:103D30000003680B010600040000C80B304F0008A8
:103D400001100050000241D90106009000014827EF
:103D500001060094000109E601060096000069E6EC
:103D6000010600800000982C010600810001982CBB
:103D7000010600840004C820010600850014982C68
:103D8000010600860011A82F010600870010382FB9
:103D9000010601A000FFC8540106008F000179E16F
:103DA000010601A400024814010304780001052360
:103DB000010601A400010815010601A40000C9D5EF
:103DC000010601A70801FFD5502900202DE9F04187
:103DD00004460D461646280AA070E570300A207188
:103DE000667106212046FFF703F80746380AA071DE
:103DF000E7710821204600F091FEBDE8F0812DE931
:103E0000F04104460E461546300A207166710621BF
:103E10002046FEF7EDFF0746380AA071E771012D35
:103E200004D10821204600F0F3FD13E0022D04D157
:103E30000821204600F072FE0CE0032D04D1082179
:103E4000204600F09DFE05E0042D03D10821204608
:103E500000F022FFBDE8F0819FB04EA000681E90E8
:103E60004DA103C9CDE91C014DA103C9CDE91A013A
:103E70004DA103C9CDE918014DA103C9CDE9160132
:103E80004DA0006815904DA0006814904CA103C986
:103E9000CDE912014CA103C9CDE910014CA103C920
:103EA000CDE90E014CA103C9CDE90C014CA103C918
:103EB000CDE90A014CA103C9CDE908014CA103C910
:103EC000CDE906014CA103C9CDE904014CA103C908
:103ED000CDE902014CA103C9CDE900014C481E996E
:103EE00001601C998160BDF874108181189901618D
:103EF000BDF8641081821A998161BDF86C108183CC
:103F000016990162BDF85C1081841599816214993B
:103F1000016312998163BDF84C1081871099016487
:103F2000BDF84410A0F84410803000990161BDF83C
:103F30000410818204998160BDF814108181029976
:103F40000160BDF80C10818080380A998164BDF849
:103F50002C10A0F84C1006990167BDF81C10A0F8B1
:103F6000741008998165BDF82410A0F85C100E99B2
:103F70000165BDF83C10A0F854100C998166BDF89D
:103F80003410A0F86C1000202149C1F8C8001FB0FF
:103F90007047000000062008010620000005000010
:103FA00001062000000100000106200000020000C0
:103FB0000106200105DC00000106200301062004A3
:103FC00001032003000100000103200400010000A0
:103FD0000106200000070000010620090003000080
:103FE0000103210400010000010320010001000081
:103FF0000006200B00050000000620020002000061
:1040000000062006000200000006200A0001000051
:104010009400002010B5C8210448FCF76AFA00207B
:10402000034908600349086010BD000064250020B2
:10403000000000200800002010B586B004460121D1
:1040400044F20500FDF7C8FC2348FEF78DFA4FF453
:104050000070ADF8140001208DF8160018208DF8BE
:10406000170005A91D48FDF7D6FA4FF48060ADF89A
:10407000140004208DF8170005A91848FDF7CBFAA5
:1040800001940020ADF80800ADF80A00ADF80C006E
:10409000ADF810000C20ADF80E0001A90E48FEF797
:1040A0000DFB25208DF8000003208DF80100042071
:1040B0008DF8020001208DF803006846FDF734FCFE
:1040C000012240F225510448FEF7D3FA01210248AB
:1040D000FEF73EFA06B010BD00380140000801406E
:1040E0002DE9F04389B0FEF77FFF8146B9F1000F5B
:1040F0006FD0FEF775FF04460B22F8A12046FCF7AF
:104100007BF9002873D1F848B0F8065185F001001A
:1041100018B10621F5A000F07BFC0DB9012000E0EC
:10412000002080F0010018B10721F2A000F070FC1F
:1041300085F0020018B90C21F0A000F069FC85F0B0
:10414000030018B90C21F1A000F062FC85F0040016
:1041500018B90F21F1A000F05BFC85F0050018B93B
:104160000C21F2A000F054FC85F0060018B90C21D7
:10417000F2A000F04DFC85F0070018B90F21F3A064
:1041800000F046FC85F0080018B10921F3A000F00A
:104190003FFC85F0080018B90A21F3A000F038FCB4
:1041A000D148B0F80601072856D2DFE800F0040530
:1041B00013212E3B480054E0EEA101A8FCF736F88D
:1041C00001A8FCF745F90746394601A800F020FC94
:1041D00047E0AEE3EBA101A8FCF728F801A8FCF743
:1041E00037F90746394601A800F012FC39E04BE0E8
:1041F000E8A101A8FCF71AF801A8FCF729F907467D
:10420000394601A800F004FC2BE0E6A101A8FCF768
:104210000DF801A8FCF71CF90746394601A800F083
:10422000F7FB1EE0E3A101A8FCF700F801A8FCF7EA
:104230000FF90746394601A800F0EAFB11E0E1A1B9
:1042400001A8FBF7F3FF01A8FCF702F9074639467E
:1042500001A800F0DDFB04E00B21DDA000F0D8FB9D
:1042600000BF00BFA048B0F80831B0F80621DBA1BC
:1042700001A8FBF7DBFF01A8FCF7EAF8074639467F
:1042800001A800F0C5FB52E30322DCA12046FCF7A5
:10429000B3F800284BD10A220021E01CFCF774F887
:1042A0000746002F3EDDD6A103C9CDE90701002551
:1042B00034E005EBC500D44931F8300068BB781C08
:1042C00000EBD0714910491C05EBC502CE4B23F819
:1042D000321005EBC500194611F830008DF81C00AE
:1042E000F8B28DF81D0080490888082207A9FCF75C
:1042F0009BFE8046B8F1000F03D10C21C3A000F053
:104300000DFC05EBC501C04A22F8317076484088A3
:10431000A84201DA74494D8002E06D1C802DC8DB93
:1043200000BF00BF0421BDA000F072FBFFE2042229
:10433000BCA12046FCF760F8D0B9BCA103C9CDE907
:1043400006010A2208A9201DFCF71EF805460A22CC
:1043500000210898001DFCF717F807463A46294641
:1043600006A8FFF733FD0521B2A000F051FBDEE205
:104370000A22B2A12046FCF73FF888B90A220021A0
:1043800004F10A00FCF700F8574908800846018844
:104390001C20FEF763FA0521A6A000F039FBC6E257
:1043A0000822A9A12046FCF727F840B90120A94915
:1043B000C1F8C80005219FA000F02AFBB7E2072240
:1043C000A5A12046FCF718F840B90020A149C1F882
:1043D000C800052197A000F01BFBA8E20522A0A1C0
:1043E0002046FCF709F840B908219F4800F096FBE9
:1043F000052190A000F00CFB99E204229BA120462D
:10440000FBF7FAFF48B908219748083000F086FB0F
:10441000052188A000F0FCFA89E2082295A1204637
:10442000FBF7EAFFD8B90A2208A904F10800FBF754
:10443000ABFF8D49AD39C1F8D8000846D0F8D81087
:104440008830FFF76CFB8848AD38D0F8D8101820BA
:10445000FEF704FA052177A000F0DAFA67E20A22F3
:1044600087A12046FBF7C8FF98B90A22002104F172
:104470000A00FBF789FF7C49AD39C1F8D00031B2A1
:1044800079483538FFF738FB05216AA000F0C0FAFB
:104490004DE20B227DA12046FBF7AEFFE8B90A22D0
:1044A000002104F10B00FBF76FFF6F49AD39C1F834
:1044B000D40008460222D0F8D4101030FFF79FFC39
:1044C0006948AD380222D0F8D4101830FFF797FCB5
:1044D000052158A000F09CFA29E2DDE073746174B4
:1044E00075735F776F726B00BC27002053746F7019
:1044F0000D0A000053746172740D0A0073746174C4
:10450000655F6F765F690D0A000000007374617467
:10451000655F6F765F750D0A00000000737461744B
:10452000655F6572725F656E630D0A007374617416
:10453000655F6F765F740D0A00000000737461742C
:10454000655F6F765F710D0A00000000737461741F
:10455000655F6F765F6C6F61640D0A007063206346
:1045600074726C0D0A000000504C43206374726C2E
:104570000D0A00006F7665722063757272656E7445
:104580000D0000006F76657220766F6C7461676550
:104590000D000000756E64657220766F6C74616743
:1045A000650D00006C6F636B656420726F746F72D1
:1045B0000D000000686F6C7A6572206661756C741E
:1045C0000D000000746F6F20686F740D0000000014
:1045D000756E6B6F776E206572720D006361725F2E
:1045E0006572726F723A25642C736572766F5F65BF
:1045F00072726F723A25640D0000000077696E00D8
:1046000001020304050607086401002073656E6457
:10461000206661696C65640A0000000077696E0DB0
:1046200000000000616464720000000001060000E8
:1046300000000000737563630D0000006465766917
:1046400063655F69643D0000776F726B5F6F6666DC
:104650000000000094000020776F726B5F6F6E00A7
:1046600073746172740000007529002073746F7098
:1046700000000000706F735F7365743D0000000000
:10468000706F735F73706565643D0000706F735F7A
:10469000616474696D653D000522A7A12046FBF7A2
:1046A000ABFEC0B90A2208A9601DFBF76DFEA44944
:1046B00008700A2200210898401CFBF765FE064698
:1046C000022231469E48FFF79AFB0521AFF29C007B
:1046D00000F09EF92BE10A229AA12046FBF78CFEFE
:1046E000A0B90A22002104F10A00FBF74DFE06469C
:1046F0009348C0F8BC60012231462030FEF7B3FD7C
:104700000521AFF2D00000F083F910E10B2290A157
:104710002046FBF771FED0B90A22002104F10B00FC
:10472000FBF732FE06468648C0F8B06001223146EB
:104730002830FEF798FD0122314681483030FEF7DF
:1047400092FD0521AFF2141000F062F9EFE00922AA
:1047500082A12046FBF750FE70B90A22002104F125
:104760000900FBF711FE05467F490D800521AFF2D8
:104770003C1000F04DF9DAE005227CA12046FBF761
:104780003BFE48B902206E49C1F8CC000521AFF2CA
:104790005C1000F03DF9CAE0052276A12046FBF747
:1047A0002BFE48B903206649C1F8CC000521AFF2C1
:1047B0007C1000F02DF9BAE0052270A12046FBF72D
:1047C0001BFE48B904205E49C1F8CC000521AFF2B8
:1047D0009C1000F01DF9AAE007226AA12046FBF711
:1047E0000BFE40B96948FBF733FE0546294667488A
:1047F00000F00EF99BE00A2265A12046FBF7FCFDC4
:1048000010B9FEF757FB92E0042264A12046FBF7A3
:10481000F3FDB0B94A48D0F8BC100820FEF71EF8E6
:104820004748D0F8B0100420FEF718F84E48018829
:104830000C20FEF713F80521AFF2082000F0E8F88D
:1048400075E0102257A12046FBF7D6FD90B90A2249
:10485000002104F11000FBF797FD064602223146C5
:1048600037482030FEF7FFFC0521AFF2382000F07A
:10487000CFF85CE00B2250A12046FBF7BDFD50B9FC
:1048800002212F481830FEF7DDFC0521AFF25C2035
:1048900000F0BEF84BE00B224AA12046FBF7ACFD2E
:1048A00050B9022126481030FEF7CCFC0521AFF2AA
:1048B0007C2000F0ADF83AE00B2245A12046FBF742
:1048C0009BFD50B902211E480830FEF7BBFC0521B4
:1048D000AFF2A02000F09CF829E005223FA120467D
:1048E000FBF78AFD48B908213E4800F017F9052179
:1048F000AFF2C02000F08CF819E009223AA120465E
:10490000FBF77AFD30B9FEF7C9FC042139A000F0AD
:104910007FF80CE0052239A12046FBF76DFD10B9A8
:10492000FFF77CF803E00A2136A000F071F8FFF7EA
:1049300071FB09B0BDE8F083736574696400000021
:10494000940000206361725F73706565643D0000D0
:104950006361725F616474696D653D006361725F7C
:104960007469636B3D0000001E0000206361725F8C
:10497000660000006361725F620000006361725F45
:104980007300000076657273696F6E00200000206E
:10499000726561645F666C6173680000736176655F
:1049A000000000006361725F6F746865725F73700E
:1049B0006565643D000000006361725F6F74686547
:1049C000725F66006361725F6F746865725F620038
:1049D0006361725F6F746865725F7300636C6561B9
:1049E0006E00000065290020696E69745365727657
:1049F0006F000000737563630000000072657365EB
:104A000074000000756E6B6E6F7720636D6400003C
:104A100070B506460C460025002C00DC70BD002554
:104A20000BE0715D0748FDF7BAFE00BF8021054825
:104A3000FDF7E8FD0028F9D06D1CA542F1DB00BFB1
:104A4000ECE700000038014010B5C8210448FBF72E
:104A500050FD0020034908600349086010BD0000B4
:104A60002C2600200C0000201000002010B586B07D
:104A7000044601214804FCF78FFF01210520FCF7C3
:104A8000ABFF2448FDF770FD0420ADF814000120B1
:104A90008DF8160018208DF8170005A91E48FCF7A0
:104AA000BAFD0820ADF8140004208DF8170005A900
:104AB0001948FCF7B0FD01940020ADF80800ADF8EE
:104AC0000A00ADF80C00ADF810000C20ADF80E0097
:104AD00001A91048FDF7F2FD26208DF80000032003
:104AE0008DF8010002208DF8020001208DF80300EE
:104AF0006846FCF719FF012240F225510548FDF7F1
:104B0000B8FD01210348FDF723FDFEF7D3FF06B0F2
:104B100010BD0000004400400008014070B506468A
:104B20000C460025002C00DC70BD4FF400411148FC
:104B3000FCF74FFE4FF47A7000F0DEF800250BE032
:104B4000715D0D48FDF72BFE00BF80210A48FDF77F
:104B500059FD0028F9D06D1CA542F1DB07480088FB
:104B600000F0CAF84FF400410248FCF730FE00BFE5
:104B7000DAE70000000C0140004400401E00002065
:104B800070B506460C460025002C00DC70BD0025E3
:104B90000BE0715D0748FDF702FE00BF802105486C
:104BA000FDF730FD0028F9D06D1CA542F1DB00BFF8
:104BB000ECE700000048004010B5C8210448FBF7AE
:104BC00098FC0020034908600349086010BD0000FC
:104BD000A8290020300000203400002010B586B045
:104BE00004460121C804FCF7D7FE01211120FCF77F
:104BF000F3FE2748FDF7B8FC4FF48060ADF81400D1
:104C000001208DF8160018208DF8170005A92148FD
:104C1000FCF701FD4FF40060ADF8140048208DF85A
:104C2000170005A91B48FCF7F6FC01944FF48050CF
:104C3000ADF808000020ADF80A004FF48060ADF830
:104C40000C000020ADF810000C20ADF80E0001A9FA
:104C50000F48FDF733FD34208DF8000003208DF858
:104C600001008DF8020001208DF803006846FCF772
:104C70005BFE012240F225510548FDF7FAFC0121B7
:104C80000348FDF765FCFEF7F3FE06B010BD00001B
:104C9000004C00400010014070B506460C4600254F
:104CA000002C00DC70BD4FF480411148FCF791FDF1
:104CB0004FF47A7000F020F800250BE0715D0D488C
:104CC000FDF76DFD00BF80210A48FDF79BFC002821
:104CD000F9D06D1CA542F1DB42F2107000F00CF827
:104CE0004FF480410248FCF772FD00BFDAE7000094
:104CF000000C0140004C0040002100E0491C8142B2
:104D0000FCDB704710B500290AD00878002807D0CE
:104D100005487844FBF764FD002801D0002010BD51
:104D20000248784410BD0000A20200009A02000070
:104D30000000C1C081C1400101C3C003800241C263
:104D400001C6C006800741C70005C1C581C4400433
:104D500001CCC00C800D41CD000FC1CF81CE400EE3
:104D6000000AC1CA81CB400B01C9C009800841C8F3
:104D700001D8C018801941D9001BC1DB81DA401A63
:104D8000001EC1DE81DF401F01DDC01D801C41DC33
:104D90000014C1D481D5401501D7C017801641D663
:104DA00001D2C012801341D30011C1D181D0401073
:104DB00001F0C030803141F10033C1F381F2403263
:104DC0000036C1F681F7403701F5C035803441F433
:104DD000003CC1FC81FD403D01FFC03F803E41FEE3
:104DE00001FAC03A803B41FB0039C1F981F84038F3
:104DF0000028C1E881E9402901EBC02B802A41EA63
:104E000001EEC02E802F41EF002DC1ED81EC402C32
:104E100001E4C024802541E50027C1E781E6402662
:104E20000022C1E281E3402301E1C021802041E072
:104E300001A0C060806141A10063C1A381A2406262
:104E40000066C1A681A7406701A5C065806441A432
:104E5000006CC1AC81AD406D01AFC06F806E41AEE2
:104E600001AAC06A806B41AB0069C1A981A84068F2
:104E70000078C1B881B9407901BBC07B807A41BA62
:104E800001BEC07E807F41BF007DC1BD81BC407C32
:104E900001B4C074807541B50077C1B781B6407662
:104EA0000072C1B281B3407301B1C071807041B072
:104EB0000050C190819140510193C0538052419262
:104EC0000196C056805741970055C1958194405432
:104ED000019CC05C805D419D005FC19F819E405EE2
:104EE000005AC19A819B405B0199C05980584198F2
:104EF0000188C04880494189004BC18B818A404A62
:104F0000004EC18E818F404F018DC04D804C418C31
:104F10000044C184818540450187C0478046418661
:104F20000182C042804341830041C1818180404071
:104F30000110005000020400010601A4001000004E
:104F40006361725F616474696D653D25642C6361A2
:104F5000725F73706565643D25642C6361725F7474
:104F600069636B3D25642C706F735F737065656456
:104F70003D25642C706F735F616474696D653D25B8
:104F8000642C706F735F7365743D25642C69643D98
:104F900025640D00C45000080000002094000000AB
:104FA0006C01000858510008940000205C3100009A
:104FB000880100081001000043000000F8FFFFFF17
:104FC000004040404040404040404141414141401C
:104FD00040404040404040404040404040404040D1
:104FE0004005020202020202020202020202020260
:104FF0000220202020202020202020020202020265
:1050000002029090909090901010101010101010BC
:1050100010101010101010101010101002020202C8
:10502000020288888888888808080808080808080C
:105030000808080808080808080808080202020208
:105040004000000000000000000000000000000020
:105050000000000000000000000000000000000050
:105060000000000000000000000000000000000040
:105070000000000000000000000000000000000030
:105080000000000000000000000000000000000020
:105090000000000000000000000000000000000010
:1050A0000000000000000000000000000000000000
:1050B00000000000000000000000000000000000F0
:1050C00000000000000000000000000000000000E0
:1050D00000000000000000000000000000000000D0
:1050E0000100000076657273696F6E2076332E3191
:1050F0002E31000000000000000000000000000051
:10510000000000000000000000000000000000009F
:10511000000000000000000000000000000000008F
:10512000000000000000000000000000000000007F
:10513000000000000102030401020304060708093D
:105140000204060800A24A0400000000000000005B
:0851500001020304060708092F
:0400000508000131BD
:00000001FF
